{
	"data": {
		"bytecode": {
			"linkReferences": {},
			"object": "60806040526000600a60146101000a81548160ff0219169083151502179055506000600a60156101000a81548160ff0219169083151502179055506000600a60166101000a81548160ff021916908315150217905550670c7d713b49da0000600b55670c7d713b49da0000600c55670b1a2bc2ec500000600d556081600e556001600f5560016010553480156200009557600080fd5b506040518060400160405280600881526020017f594f4c4f204361740000000000000000000000000000000000000000000000008152506040518060400160405280600281526020017f594300000000000000000000000000000000000000000000000000000000000081525081600090805190602001906200011a9291906200022a565b508060019080519060200190620001339291906200022a565b505050620001566200014a6200015c60201b60201c565b6200016460201b60201c565b6200033f565b600033905090565b6000600a60009054906101000a900473ffffffffffffffffffffffffffffffffffffffff16905081600a60006101000a81548173ffffffffffffffffffffffffffffffffffffffff021916908373ffffffffffffffffffffffffffffffffffffffff1602179055508173ffffffffffffffffffffffffffffffffffffffff168173ffffffffffffffffffffffffffffffffffffffff167f8be0079c531659141344cd1fd0a4f28419497f9722a3daafe3b4186f6b6457e060405160405180910390a35050565b828054620002389062000309565b90600052602060002090601f0160209004810192826200025c5760008555620002a8565b82601f106200027757805160ff1916838001178555620002a8565b82800160010185558215620002a8579182015b82811115620002a75782518255916020019190600101906200028a565b5b509050620002b79190620002bb565b5090565b5b80821115620002d6576000816000905550600101620002bc565b5090565b7f4e487b7100000000000000000000000000000000000000000000000000000000600052602260045260246000fd5b600060028204905060018216806200032257607f821691505b60208210811415620003395762000338620002da565b5b50919050565b615d99806200034f6000396000f3fe6080604052600436106103815760003560e01c80637080d6fc116101d1578063a04a6ac811610102578063c87b56dd116100a0578063eb54f9ec1161006f578063eb54f9ec14610cc1578063f11207d814610cec578063f2fde38b14610d17578063f4a0a52814610d4057610381565b8063c87b56dd14610bdf578063d756985b14610c1c578063d7a9fbcc14610c47578063e985e9c514610c8457610381565b8063a8eae392116100dc578063a8eae39214610b25578063b88d4fde14610b62578063beafc89b14610b8b578063c4e41b2214610bb457610381565b8063a04a6ac814610ab5578063a22cb46514610ae0578063a51cae3014610b0957610381565b80638b169e581161016f5780639196eba5116101495780639196eba514610a0b57806395d89b4114610a36578063964dd24014610a615780639d51d9b714610a8c57610381565b80638b169e581461098c5780638c2ac9f7146109b75780638da5cb5b146109e057610381565b806373ad468a116101ab57806373ad468a146108f15780637501f7411461091c578063775b9c13146109475780638914e8381461097057610381565b80637080d6fc1461087257806370a082311461089d578063715018a6146108da57610381565b806342835c41116102b6578063549b9da51161025457806366534f4b1161022357806366534f4b146107ca5780636817c76c146107f3578063685756851461081e5780636a99cacb1461084957610381565b8063549b9da51461071057806355f804b31461073b5780635edd95f9146107645780636352211e1461078d57610381565b80634bd25c6f116102905780634bd25c6f146106565780634f6ccce71461068157806351cff8d9146106be578063547520fe146106e757610381565b806342835c41146105eb57806342842e0e146106025780634698a3d81461062b57610381565b8063209ee2971161032357806326cf76b6116102fd57806326cf76b61461051b5780632f745c591461054657806332cb6b0c14610583578063372c12b1146105ae57610381565b8063209ee297146104ad57806323b872dd146104d6578063257c8597146104ff57610381565b8063095ea7b31161035f578063095ea7b31461042b57806312675f361461045457806318160ddd1461046b5780631ca62dbc1461049657610381565b806301ffc9a71461038657806306fdde03146103c3578063081812fc146103ee575b600080fd5b34801561039257600080fd5b506103ad60048036038101906103a89190614041565b610d69565b6040516103ba9190614089565b60405180910390f35b3480156103cf57600080fd5b506103d8610d7b565b6040516103e5919061413d565b60405180910390f35b3480156103fa57600080fd5b5061041560048036038101906104109190614195565b610e0d565b6040516104229190614203565b60405180910390f35b34801561043757600080fd5b50610452600480360381019061044d919061424a565b610e92565b005b34801561046057600080fd5b50610469610faa565b005b34801561047757600080fd5b50610480611052565b60405161048d9190614299565b60405180910390f35b3480156104a257600080fd5b506104ab61105f565b005b3480156104b957600080fd5b506104d460048036038101906104cf9190614195565b611107565b005b3480156104e257600080fd5b506104fd60048036038101906104f891906142b4565b61118d565b005b61051960048036038101906105149190614195565b6111ed565b005b34801561052757600080fd5b5061053061146c565b60405161053d9190614089565b60405180910390f35b34801561055257600080fd5b5061056d6004803603810190610568919061424a565b61147f565b60405161057a9190614299565b60405180910390f35b34801561058f57600080fd5b50610598611524565b6040516105a59190614299565b60405180910390f35b3480156105ba57600080fd5b506105d560048036038101906105d09190614307565b61152a565b6040516105e29190614089565b60405180910390f35b3480156105f757600080fd5b5061060061154a565b005b34801561060e57600080fd5b50610629600480360381019061062491906142b4565b6115f2565b005b34801561063757600080fd5b50610640611612565b60405161064d9190614299565b60405180910390f35b34801561066257600080fd5b5061066b611618565b6040516106789190614299565b60405180910390f35b34801561068d57600080fd5b506106a860048036038101906106a39190614195565b6116bb565b6040516106b59190614299565b60405180910390f35b3480156106ca57600080fd5b506106e560048036038101906106e09190614307565b61172c565b005b3480156106f357600080fd5b5061070e60048036038101906107099190614195565b6117f8565b005b34801561071c57600080fd5b5061072561187e565b6040516107329190614299565b60405180910390f35b34801561074757600080fd5b50610762600480360381019061075d9190614469565b611884565b005b34801561077057600080fd5b5061078b600480360381019061078691906144b2565b61191a565b005b34801561079957600080fd5b506107b460048036038101906107af9190614195565b611a90565b6040516107c19190614203565b60405180910390f35b3480156107d657600080fd5b506107f160048036038101906107ec9190614195565b611b42565b005b3480156107ff57600080fd5b50610808611bc8565b6040516108159190614299565b60405180910390f35b34801561082a57600080fd5b50610833611bce565b6040516108409190614299565b60405180910390f35b34801561085557600080fd5b50610870600480360381019061086b91906144f2565b611bd4565b005b34801561087e57600080fd5b50610887611c82565b6040516108949190614089565b60405180910390f35b3480156108a957600080fd5b506108c460048036038101906108bf9190614307565b611c95565b6040516108d19190614299565b60405180910390f35b3480156108e657600080fd5b506108ef611d4d565b005b3480156108fd57600080fd5b50610906611dd5565b6040516109139190614299565b60405180910390f35b34801561092857600080fd5b50610931611ddb565b60405161093e9190614299565b60405180910390f35b34801561095357600080fd5b5061096e600480360381019061096991906145df565b611de1565b005b61098a60048036038101906109859190614195565b611f02565b005b34801561099857600080fd5b506109a1612137565b6040516109ae9190614299565b60405180910390f35b3480156109c357600080fd5b506109de60048036038101906109d991906145df565b61213d565b005b3480156109ec57600080fd5b506109f561225e565b604051610a029190614203565b60405180910390f35b348015610a1757600080fd5b50610a20612288565b604051610a2d9190614299565b60405180910390f35b348015610a4257600080fd5b50610a4b61228e565b604051610a58919061413d565b60405180910390f35b348015610a6d57600080fd5b50610a76612320565b604051610a839190614299565b60405180910390f35b348015610a9857600080fd5b50610ab36004803603810190610aae9190614195565b612326565b005b348015610ac157600080fd5b50610aca6123ac565b604051610ad79190614299565b60405180910390f35b348015610aec57600080fd5b50610b076004803603810190610b029190614658565b6123b2565b005b610b236004803603810190610b1e9190614195565b6123c8565b005b348015610b3157600080fd5b50610b4c6004803603810190610b479190614307565b6127b5565b604051610b599190614089565b60405180910390f35b348015610b6e57600080fd5b50610b896004803603810190610b849190614739565b6127d5565b005b348015610b9757600080fd5b50610bb26004803603810190610bad9190614195565b612837565b005b348015610bc057600080fd5b50610bc96128bd565b604051610bd69190614299565b60405180910390f35b348015610beb57600080fd5b50610c066004803603810190610c019190614195565b6128cc565b604051610c13919061413d565b60405180910390f35b348015610c2857600080fd5b50610c3161294e565b604051610c3e9190614299565b60405180910390f35b348015610c5357600080fd5b50610c6e6004803603810190610c699190614307565b612954565b604051610c7b919061487a565b60405180910390f35b348015610c9057600080fd5b50610cab6004803603810190610ca6919061489c565b612a02565b604051610cb89190614089565b60405180910390f35b348015610ccd57600080fd5b50610cd6612a96565b604051610ce39190614299565b60405180910390f35b348015610cf857600080fd5b50610d01612a9c565b604051610d0e9190614089565b60405180910390f35b348015610d2357600080fd5b50610d3e6004803603810190610d399190614307565b612aaf565b005b348015610d4c57600080fd5b50610d676004803603810190610d629190614195565b612ba7565b005b6000610d7482612c2d565b9050919050565b606060008054610d8a9061490b565b80601f0160208091040260200160405190810160405280929190818152602001828054610db69061490b565b8015610e035780601f10610dd857610100808354040283529160200191610e03565b820191906000526020600020905b815481529060010190602001808311610de657829003601f168201915b5050505050905090565b6000610e1882612ca7565b610e57576040517f08c379a0000000000000000000000000000000000000000000000000000000008152600401610e4e906149af565b60405180910390fd5b6004600083815260200190815260200160002060009054906101000a900473ffffffffffffffffffffffffffffffffffffffff169050919050565b6000610e9d82611a90565b90508073ffffffffffffffffffffffffffffffffffffffff168373ffffffffffffffffffffffffffffffffffffffff161415610f0e576040517f08c379a0000000000000000000000000000000000000000000000000000000008152600401610f0590614a41565b60405180910390fd5b8073ffffffffffffffffffffffffffffffffffffffff16610f2d612d13565b73ffffffffffffffffffffffffffffffffffffffff161480610f5c5750610f5b81610f56612d13565b612a02565b5b610f9b576040517f08c379a0000000000000000000000000000000000000000000000000000000008152600401610f9290614ad3565b60405180910390fd5b610fa58383612d1b565b505050565b610fb2612d13565b73ffffffffffffffffffffffffffffffffffffffff16610fd061225e565b73ffffffffffffffffffffffffffffffffffffffff1614611026576040517f08c379a000000000000000000000000000000000000000000000000000000000815260040161101d90614b3f565b60405180910390fd5b600a60159054906101000a900460ff1615600a60156101000a81548160ff021916908315150217905550565b6000600880549050905090565b611067612d13565b73ffffffffffffffffffffffffffffffffffffffff1661108561225e565b73ffffffffffffffffffffffffffffffffffffffff16146110db576040517f08c379a00000000000000000000000000000000000000000000000000000000081526004016110d290614b3f565b60405180910390fd5b600a60149054906101000a900460ff1615600a60146101000a81548160ff021916908315150217905550565b61110f612d13565b73ffffffffffffffffffffffffffffffffffffffff1661112d61225e565b73ffffffffffffffffffffffffffffffffffffffff1614611183576040517f08c379a000000000000000000000000000000000000000000000000000000000815260040161117a90614b3f565b60405180910390fd5b80600e8190555050565b61119e611198612d13565b82612dd4565b6111dd576040517f08c379a00000000000000000000000000000000000000000000000000000000081526004016111d490614bd1565b60405180910390fd5b6111e8838383612eb2565b505050565b600a60169054906101000a900460ff1661123c576040517f08c379a000000000000000000000000000000000000000000000000000000000815260040161123390614c63565b60405180910390fd5b601154421015611281576040517f08c379a000000000000000000000000000000000000000000000000000000000815260040161127890614ccf565b60405180910390fd5b600e548161128d611052565b6112979190614d1e565b11156112d8576040517f08c379a00000000000000000000000000000000000000000000000000000000081526004016112cf90614dc0565b60405180910390fd5b6103e7816112e4611052565b6112ee9190614d1e565b111561132f576040517f08c379a000000000000000000000000000000000000000000000000000000000815260040161132690614e2c565b60405180910390fd5b600f548161133c33611c95565b6113469190614d1e565b1115611387576040517f08c379a000000000000000000000000000000000000000000000000000000000815260040161137e90614e98565b60405180910390fd5b6010548111156113cc576040517f08c379a00000000000000000000000000000000000000000000000000000000081526004016113c390614f04565b60405180910390fd5b346113d5611618565b826113e09190614f24565b1115611421576040517f08c379a000000000000000000000000000000000000000000000000000000000815260040161141890614fca565b60405180910390fd5b61142b813361310e565b7ff00d28232b285f24f2e38415deb2ceb31069e70d4505838b3911b4f02058502e611454611052565b6040516114619190614299565b60405180910390a150565b600a60169054906101000a900460ff1681565b600061148a83611c95565b82106114cb576040517f08c379a00000000000000000000000000000000000000000000000000000000081526004016114c29061505c565b60405180910390fd5b600660008473ffffffffffffffffffffffffffffffffffffffff1673ffffffffffffffffffffffffffffffffffffffff168152602001908152602001600020600083815260200190815260200160002054905092915050565b6103e781565b60186020528060005260406000206000915054906101000a900460ff1681565b611552612d13565b73ffffffffffffffffffffffffffffffffffffffff1661157061225e565b73ffffffffffffffffffffffffffffffffffffffff16146115c6576040517f08c379a00000000000000000000000000000000000000000000000000000000081526004016115bd90614b3f565b60405180910390fd5b600a60169054906101000a900460ff1615600a60166101000a81548160ff021916908315150217905550565b61160d838383604051806020016040528060008152506127d5565b505050565b60155481565b6000600a60169054906101000a900460ff1661163757600090506116b8565b60115442101561164b5760135490506116b8565b60006012546011544261165e919061507c565b61166891906150df565b905060165481111561167a5760165490505b601554816116889190614f24565b60135411611698576014546116b4565b601554816116a69190614f24565b6013546116b3919061507c565b5b9150505b90565b60006116c5611052565b8210611706576040517f08c379a00000000000000000000000000000000000000000000000000000000081526004016116fd90615182565b60405180910390fd5b6008828154811061171a576117196151a2565b5b90600052602060002001549050919050565b611734612d13565b73ffffffffffffffffffffffffffffffffffffffff1661175261225e565b73ffffffffffffffffffffffffffffffffffffffff16146117a8576040517f08c379a000000000000000000000000000000000000000000000000000000000815260040161179f90614b3f565b60405180910390fd5b60004790508173ffffffffffffffffffffffffffffffffffffffff166108fc829081150290604051600060405180830381858888f193505050501580156117f3573d6000803e3d6000fd5b505050565b611800612d13565b73ffffffffffffffffffffffffffffffffffffffff1661181e61225e565b73ffffffffffffffffffffffffffffffffffffffff1614611874576040517f08c379a000000000000000000000000000000000000000000000000000000000815260040161186b90614b3f565b60405180910390fd5b8060108190555050565b600e5481565b61188c612d13565b73ffffffffffffffffffffffffffffffffffffffff166118aa61225e565b73ffffffffffffffffffffffffffffffffffffffff1614611900576040517f08c379a00000000000000000000000000000000000000000000000000000000081526004016118f790614b3f565b60405180910390fd5b8060179080519060200190611916929190613f32565b5050565b611922612d13565b73ffffffffffffffffffffffffffffffffffffffff1661194061225e565b73ffffffffffffffffffffffffffffffffffffffff1614611996576040517f08c379a000000000000000000000000000000000000000000000000000000000815260040161198d90614b3f565b60405180910390fd5b600e54826119a2611052565b6119ac9190614d1e565b11156119ed576040517f08c379a00000000000000000000000000000000000000000000000000000000081526004016119e490615243565b60405180910390fd5b6103e7826119f9611052565b611a039190614d1e565b1115611a44576040517f08c379a0000000000000000000000000000000000000000000000000000000008152600401611a3b906152d5565b60405180910390fd5b611a4e828261310e565b7ff00d28232b285f24f2e38415deb2ceb31069e70d4505838b3911b4f02058502e611a77611052565b604051611a849190614299565b60405180910390a15050565b6000806002600084815260200190815260200160002060009054906101000a900473ffffffffffffffffffffffffffffffffffffffff169050600073ffffffffffffffffffffffffffffffffffffffff168173ffffffffffffffffffffffffffffffffffffffff161415611b39576040517f08c379a0000000000000000000000000000000000000000000000000000000008152600401611b3090615367565b60405180910390fd5b80915050919050565b611b4a612d13565b73ffffffffffffffffffffffffffffffffffffffff16611b6861225e565b73ffffffffffffffffffffffffffffffffffffffff1614611bbe576040517f08c379a0000000000000000000000000000000000000000000000000000000008152600401611bb590614b3f565b60405180910390fd5b80600d8190555050565b600b5481565b600c5481565b611bdc612d13565b73ffffffffffffffffffffffffffffffffffffffff16611bfa61225e565b73ffffffffffffffffffffffffffffffffffffffff1614611c50576040517f08c379a0000000000000000000000000000000000000000000000000000000008152600401611c4790614b3f565b60405180910390fd5b856011819055508460128190555083601381905550826014819055508160158190555080601681905550505050505050565b600a60159054906101000a900460ff1681565b60008073ffffffffffffffffffffffffffffffffffffffff168273ffffffffffffffffffffffffffffffffffffffff161415611d06576040517f08c379a0000000000000000000000000000000000000000000000000000000008152600401611cfd906153f9565b60405180910390fd5b600360008373ffffffffffffffffffffffffffffffffffffffff1673ffffffffffffffffffffffffffffffffffffffff168152602001908152602001600020549050919050565b611d55612d13565b73ffffffffffffffffffffffffffffffffffffffff16611d7361225e565b73ffffffffffffffffffffffffffffffffffffffff1614611dc9576040517f08c379a0000000000000000000000000000000000000000000000000000000008152600401611dc090614b3f565b60405180910390fd5b611dd36000613153565b565b600f5481565b60105481565b611de9612d13565b73ffffffffffffffffffffffffffffffffffffffff16611e0761225e565b73ffffffffffffffffffffffffffffffffffffffff1614611e5d576040517f08c379a0000000000000000000000000000000000000000000000000000000008152600401611e5490614b3f565b60405180910390fd5b60005b82829050811015611efd57600160186000858585818110611e8457611e836151a2565b5b9050602002016020810190611e999190614307565b73ffffffffffffffffffffffffffffffffffffffff1673ffffffffffffffffffffffffffffffffffffffff16815260200190815260200160002060006101000a81548160ff0219169083151502179055508080611ef590615419565b915050611e60565b505050565b600a60159054906101000a900460ff16611f51576040517f08c379a0000000000000000000000000000000000000000000000000000000008152600401611f48906154d4565b60405180910390fd5b600e5481611f5d611052565b611f679190614d1e565b1115611fa8576040517f08c379a0000000000000000000000000000000000000000000000000000000008152600401611f9f90615540565b60405180910390fd5b6103e781611fb4611052565b611fbe9190614d1e565b1115611fff576040517f08c379a0000000000000000000000000000000000000000000000000000000008152600401611ff6906155ac565b60405180910390fd5b600f548161200c33611c95565b6120169190614d1e565b1115612057576040517f08c379a000000000000000000000000000000000000000000000000000000000815260040161204e90615618565b60405180910390fd5b60105481111561209c576040517f08c379a000000000000000000000000000000000000000000000000000000000815260040161209390615684565b60405180910390fd5b34600b54826120ab9190614f24565b11156120ec576040517f08c379a00000000000000000000000000000000000000000000000000000000081526004016120e390614fca565b60405180910390fd5b6120f6813361310e565b7ff00d28232b285f24f2e38415deb2ceb31069e70d4505838b3911b4f02058502e61211f611052565b60405161212c9190614299565b60405180910390a150565b600d5481565b612145612d13565b73ffffffffffffffffffffffffffffffffffffffff1661216361225e565b73ffffffffffffffffffffffffffffffffffffffff16146121b9576040517f08c379a00000000000000000000000000000000000000000000000000000000081526004016121b090614b3f565b60405180910390fd5b60005b82829050811015612259576001601960008585858181106121e0576121df6151a2565b5b90506020020160208101906121f59190614307565b73ffffffffffffffffffffffffffffffffffffffff1673ffffffffffffffffffffffffffffffffffffffff16815260200190815260200160002060006101000a81548160ff021916908315150217905550808061225190615419565b9150506121bc565b505050565b6000600a60009054906101000a900473ffffffffffffffffffffffffffffffffffffffff16905090565b60125481565b60606001805461229d9061490b565b80601f01602080910402602001604051908101604052809291908181526020018280546122c99061490b565b80156123165780601f106122eb57610100808354040283529160200191612316565b820191906000526020600020905b8154815290600101906020018083116122f957829003601f168201915b5050505050905090565b60165481565b61232e612d13565b73ffffffffffffffffffffffffffffffffffffffff1661234c61225e565b73ffffffffffffffffffffffffffffffffffffffff16146123a2576040517f08c379a000000000000000000000000000000000000000000000000000000000815260040161239990614b3f565b60405180910390fd5b80600f8190555050565b60145481565b6123c46123bd612d13565b8383613219565b5050565b600a60149054906101000a900460ff16612417576040517f08c379a000000000000000000000000000000000000000000000000000000000815260040161240e906154d4565b60405180910390fd5b600e5481612423611052565b61242d9190614d1e565b111561246e576040517f08c379a000000000000000000000000000000000000000000000000000000000815260040161246590615540565b60405180910390fd5b6103e78161247a611052565b6124849190614d1e565b11156124c5576040517f08c379a00000000000000000000000000000000000000000000000000000000081526004016124bc906155ac565b60405180910390fd5b600f54816124d233611c95565b6124dc9190614d1e565b111561251d576040517f08c379a000000000000000000000000000000000000000000000000000000000815260040161251490615618565b60405180910390fd5b601054811115612562576040517f08c379a000000000000000000000000000000000000000000000000000000000815260040161255990615684565b60405180910390fd5b6000600b54905060011515601960003373ffffffffffffffffffffffffffffffffffffffff1673ffffffffffffffffffffffffffffffffffffffff16815260200190815260200160002060009054906101000a900460ff161515141561262457600d5490506000601960003373ffffffffffffffffffffffffffffffffffffffff1673ffffffffffffffffffffffffffffffffffffffff16815260200190815260200160002060006101000a81548160ff02191690831515021790555061271b565b60011515601860003373ffffffffffffffffffffffffffffffffffffffff1673ffffffffffffffffffffffffffffffffffffffff16815260200190815260200160002060009054906101000a900460ff16151514156126df57600c5490506000601860003373ffffffffffffffffffffffffffffffffffffffff1673ffffffffffffffffffffffffffffffffffffffff16815260200190815260200160002060006101000a81548160ff02191690831515021790555061271a565b6040517f08c379a0000000000000000000000000000000000000000000000000000000008152600401612711906156f0565b60405180910390fd5b5b3481836127289190614f24565b1115612769576040517f08c379a000000000000000000000000000000000000000000000000000000000815260040161276090614fca565b60405180910390fd5b612773823361310e565b7ff00d28232b285f24f2e38415deb2ceb31069e70d4505838b3911b4f02058502e61279c611052565b6040516127a99190614299565b60405180910390a15050565b60196020528060005260406000206000915054906101000a900460ff1681565b6127e66127e0612d13565b83612dd4565b612825576040517f08c379a000000000000000000000000000000000000000000000000000000000815260040161281c90614bd1565b60405180910390fd5b61283184848484613386565b50505050565b61283f612d13565b73ffffffffffffffffffffffffffffffffffffffff1661285d61225e565b73ffffffffffffffffffffffffffffffffffffffff16146128b3576040517f08c379a00000000000000000000000000000000000000000000000000000000081526004016128aa90614b3f565b60405180910390fd5b80600c8190555050565b60006128c7611052565b905090565b60606128d782612ca7565b612916576040517f08c379a000000000000000000000000000000000000000000000000000000000815260040161290d90615782565b60405180910390fd5b61291e6133e2565b61292783613474565b6040516020016129389291906157de565b6040516020818303038152906040529050919050565b60135481565b6060600061296183611c95565b905060008167ffffffffffffffff81111561297f5761297e61433e565b5b6040519080825280602002602001820160405280156129ad5781602001602082028036833780820191505090505b50905060005b828110156129f7576129c5858261147f565b8282815181106129d8576129d76151a2565b5b60200260200101818152505080806129ef90615419565b9150506129b3565b508092505050919050565b6000600560008473ffffffffffffffffffffffffffffffffffffffff1673ffffffffffffffffffffffffffffffffffffffff16815260200190815260200160002060008373ffffffffffffffffffffffffffffffffffffffff1673ffffffffffffffffffffffffffffffffffffffff16815260200190815260200160002060009054906101000a900460ff16905092915050565b60115481565b600a60149054906101000a900460ff1681565b612ab7612d13565b73ffffffffffffffffffffffffffffffffffffffff16612ad561225e565b73ffffffffffffffffffffffffffffffffffffffff1614612b2b576040517f08c379a0000000000000000000000000000000000000000000000000000000008152600401612b2290614b3f565b60405180910390fd5b600073ffffffffffffffffffffffffffffffffffffffff168173ffffffffffffffffffffffffffffffffffffffff161415612b9b576040517f08c379a0000000000000000000000000000000000000000000000000000000008152600401612b9290615874565b60405180910390fd5b612ba481613153565b50565b612baf612d13565b73ffffffffffffffffffffffffffffffffffffffff16612bcd61225e565b73ffffffffffffffffffffffffffffffffffffffff1614612c23576040517f08c379a0000000000000000000000000000000000000000000000000000000008152600401612c1a90614b3f565b60405180910390fd5b80600b8190555050565b60007f780e9d63000000000000000000000000000000000000000000000000000000007bffffffffffffffffffffffffffffffffffffffffffffffffffffffff1916827bffffffffffffffffffffffffffffffffffffffffffffffffffffffff19161480612ca05750612c9f826135d5565b5b9050919050565b60008073ffffffffffffffffffffffffffffffffffffffff166002600084815260200190815260200160002060009054906101000a900473ffffffffffffffffffffffffffffffffffffffff1673ffffffffffffffffffffffffffffffffffffffff1614159050919050565b600033905090565b816004600083815260200190815260200160002060006101000a81548173ffffffffffffffffffffffffffffffffffffffff021916908373ffffffffffffffffffffffffffffffffffffffff160217905550808273ffffffffffffffffffffffffffffffffffffffff16612d8e83611a90565b73ffffffffffffffffffffffffffffffffffffffff167f8c5be1e5ebec7d5bd14f71427d1e84f3dd0314c0f7b2291e5b200ac8c7c3b92560405160405180910390a45050565b6000612ddf82612ca7565b612e1e576040517f08c379a0000000000000000000000000000000000000000000000000000000008152600401612e1590615906565b60405180910390fd5b6000612e2983611a90565b90508073ffffffffffffffffffffffffffffffffffffffff168473ffffffffffffffffffffffffffffffffffffffff161480612e9857508373ffffffffffffffffffffffffffffffffffffffff16612e8084610e0d565b73ffffffffffffffffffffffffffffffffffffffff16145b80612ea95750612ea88185612a02565b5b91505092915050565b8273ffffffffffffffffffffffffffffffffffffffff16612ed282611a90565b73ffffffffffffffffffffffffffffffffffffffff1614612f28576040517f08c379a0000000000000000000000000000000000000000000000000000000008152600401612f1f90615998565b60405180910390fd5b600073ffffffffffffffffffffffffffffffffffffffff168273ffffffffffffffffffffffffffffffffffffffff161415612f98576040517f08c379a0000000000000000000000000000000000000000000000000000000008152600401612f8f90615a2a565b60405180910390fd5b612fa38383836136b7565b612fae600082612d1b565b6001600360008573ffffffffffffffffffffffffffffffffffffffff1673ffffffffffffffffffffffffffffffffffffffff1681526020019081526020016000206000828254612ffe919061507c565b925050819055506001600360008473ffffffffffffffffffffffffffffffffffffffff1673ffffffffffffffffffffffffffffffffffffffff16815260200190815260200160002060008282546130559190614d1e565b92505081905550816002600083815260200190815260200160002060006101000a81548173ffffffffffffffffffffffffffffffffffffffff021916908373ffffffffffffffffffffffffffffffffffffffff160217905550808273ffffffffffffffffffffffffffffffffffffffff168473ffffffffffffffffffffffffffffffffffffffff167fddf252ad1be2c89b69c2b068fc378daa952ba7f163c4a11628f55a4df523b3ef60405160405180910390a4505050565b6000613118611052565b905060005b8381101561314d5761313a8382846131359190614d1e565b6136c7565b808061314590615419565b91505061311d565b50505050565b6000600a60009054906101000a900473ffffffffffffffffffffffffffffffffffffffff16905081600a60006101000a81548173ffffffffffffffffffffffffffffffffffffffff021916908373ffffffffffffffffffffffffffffffffffffffff1602179055508173ffffffffffffffffffffffffffffffffffffffff168173ffffffffffffffffffffffffffffffffffffffff167f8be0079c531659141344cd1fd0a4f28419497f9722a3daafe3b4186f6b6457e060405160405180910390a35050565b8173ffffffffffffffffffffffffffffffffffffffff168373ffffffffffffffffffffffffffffffffffffffff161415613288576040517f08c379a000000000000000000000000000000000000000000000000000000000815260040161327f90615a96565b60405180910390fd5b80600560008573ffffffffffffffffffffffffffffffffffffffff1673ffffffffffffffffffffffffffffffffffffffff16815260200190815260200160002060008473ffffffffffffffffffffffffffffffffffffffff1673ffffffffffffffffffffffffffffffffffffffff16815260200190815260200160002060006101000a81548160ff0219169083151502179055508173ffffffffffffffffffffffffffffffffffffffff168373ffffffffffffffffffffffffffffffffffffffff167f17307eab39ab6107e8899845ad3d59bd9653f200f220920489ca2b5937696c31836040516133799190614089565b60405180910390a3505050565b613391848484612eb2565b61339d848484846136e5565b6133dc576040517f08c379a00000000000000000000000000000000000000000000000000000000081526004016133d390615b28565b60405180910390fd5b50505050565b6060601780546133f19061490b565b80601f016020809104026020016040519081016040528092919081815260200182805461341d9061490b565b801561346a5780601f1061343f5761010080835404028352916020019161346a565b820191906000526020600020905b81548152906001019060200180831161344d57829003601f168201915b5050505050905090565b606060008214156134bc576040518060400160405280600181526020017f300000000000000000000000000000000000000000000000000000000000000081525090506135d0565b600082905060005b600082146134ee5780806134d790615419565b915050600a826134e791906150df565b91506134c4565b60008167ffffffffffffffff81111561350a5761350961433e565b5b6040519080825280601f01601f19166020018201604052801561353c5781602001600182028036833780820191505090505b5090505b600085146135c957600182613555919061507c565b9150600a856135649190615b48565b60306135709190614d1e565b60f81b818381518110613586576135856151a2565b5b60200101907effffffffffffffffffffffffffffffffffffffffffffffffffffffffffffff1916908160001a905350600a856135c291906150df565b9450613540565b8093505050505b919050565b60007f80ac58cd000000000000000000000000000000000000000000000000000000007bffffffffffffffffffffffffffffffffffffffffffffffffffffffff1916827bffffffffffffffffffffffffffffffffffffffffffffffffffffffff191614806136a057507f5b5e139f000000000000000000000000000000000000000000000000000000007bffffffffffffffffffffffffffffffffffffffffffffffffffffffff1916827bffffffffffffffffffffffffffffffffffffffffffffffffffffffff1916145b806136b057506136af8261386d565b5b9050919050565b6136c28383836138d7565b505050565b6136e18282604051806020016040528060008152506139eb565b5050565b60006137068473ffffffffffffffffffffffffffffffffffffffff16613a46565b15613860578373ffffffffffffffffffffffffffffffffffffffff1663150b7a0261372f612d13565b8786866040518563ffffffff1660e01b81526004016137519493929190615bce565b6020604051808303816000875af192505050801561378d57506040513d601f19601f8201168201806040525081019061378a9190615c2f565b60015b613810573d80600081146137bd576040519150601f19603f3d011682016040523d82523d6000602084013e6137c2565b606091505b50600081511415613808576040517f08c379a00000000000000000000000000000000000000000000000000000000081526004016137ff90615b28565b60405180910390fd5b805181602001fd5b63150b7a0260e01b7bffffffffffffffffffffffffffffffffffffffffffffffffffffffff1916817bffffffffffffffffffffffffffffffffffffffffffffffffffffffff191614915050613865565b600190505b949350505050565b60007f01ffc9a7000000000000000000000000000000000000000000000000000000007bffffffffffffffffffffffffffffffffffffffffffffffffffffffff1916827bffffffffffffffffffffffffffffffffffffffffffffffffffffffff1916149050919050565b6138e2838383613a59565b600073ffffffffffffffffffffffffffffffffffffffff168373ffffffffffffffffffffffffffffffffffffffff1614156139255761392081613a5e565b613964565b8173ffffffffffffffffffffffffffffffffffffffff168373ffffffffffffffffffffffffffffffffffffffff1614613963576139628382613aa7565b5b5b600073ffffffffffffffffffffffffffffffffffffffff168273ffffffffffffffffffffffffffffffffffffffff1614156139a7576139a281613c14565b6139e6565b8273ffffffffffffffffffffffffffffffffffffffff168273ffffffffffffffffffffffffffffffffffffffff16146139e5576139e48282613ce5565b5b5b505050565b6139f58383613d64565b613a0260008484846136e5565b613a41576040517f08c379a0000000000000000000000000000000000000000000000000000000008152600401613a3890615b28565b60405180910390fd5b505050565b600080823b905060008111915050919050565b505050565b6008805490506009600083815260200190815260200160002081905550600881908060018154018082558091505060019003906000526020600020016000909190919091505550565b60006001613ab484611c95565b613abe919061507c565b9050600060076000848152602001908152602001600020549050818114613ba3576000600660008673ffffffffffffffffffffffffffffffffffffffff1673ffffffffffffffffffffffffffffffffffffffff168152602001908152602001600020600084815260200190815260200160002054905080600660008773ffffffffffffffffffffffffffffffffffffffff1673ffffffffffffffffffffffffffffffffffffffff168152602001908152602001600020600084815260200190815260200160002081905550816007600083815260200190815260200160002081905550505b6007600084815260200190815260200160002060009055600660008573ffffffffffffffffffffffffffffffffffffffff1673ffffffffffffffffffffffffffffffffffffffff16815260200190815260200160002060008381526020019081526020016000206000905550505050565b60006001600880549050613c28919061507c565b9050600060096000848152602001908152602001600020549050600060088381548110613c5857613c576151a2565b5b906000526020600020015490508060088381548110613c7a57613c796151a2565b5b906000526020600020018190555081600960008381526020019081526020016000208190555060096000858152602001908152602001600020600090556008805480613cc957613cc8615c5c565b5b6001900381819060005260206000200160009055905550505050565b6000613cf083611c95565b905081600660008573ffffffffffffffffffffffffffffffffffffffff1673ffffffffffffffffffffffffffffffffffffffff168152602001908152602001600020600083815260200190815260200160002081905550806007600084815260200190815260200160002081905550505050565b600073ffffffffffffffffffffffffffffffffffffffff168273ffffffffffffffffffffffffffffffffffffffff161415613dd4576040517f08c379a0000000000000000000000000000000000000000000000000000000008152600401613dcb90615cd7565b60405180910390fd5b613ddd81612ca7565b15613e1d576040517f08c379a0000000000000000000000000000000000000000000000000000000008152600401613e1490615d43565b60405180910390fd5b613e29600083836136b7565b6001600360008473ffffffffffffffffffffffffffffffffffffffff1673ffffffffffffffffffffffffffffffffffffffff1681526020019081526020016000206000828254613e799190614d1e565b92505081905550816002600083815260200190815260200160002060006101000a81548173ffffffffffffffffffffffffffffffffffffffff021916908373ffffffffffffffffffffffffffffffffffffffff160217905550808273ffffffffffffffffffffffffffffffffffffffff16600073ffffffffffffffffffffffffffffffffffffffff167fddf252ad1be2c89b69c2b068fc378daa952ba7f163c4a11628f55a4df523b3ef60405160405180910390a45050565b828054613f3e9061490b565b90600052602060002090601f016020900481019282613f605760008555613fa7565b82601f10613f7957805160ff1916838001178555613fa7565b82800160010185558215613fa7579182015b82811115613fa6578251825591602001919060010190613f8b565b5b509050613fb49190613fb8565b5090565b5b80821115613fd1576000816000905550600101613fb9565b5090565b6000604051905090565b600080fd5b600080fd5b60007fffffffff0000000000000000000000000000000000000000000000000000000082169050919050565b61401e81613fe9565b811461402957600080fd5b50565b60008135905061403b81614015565b92915050565b60006020828403121561405757614056613fdf565b5b60006140658482850161402c565b91505092915050565b60008115159050919050565b6140838161406e565b82525050565b600060208201905061409e600083018461407a565b92915050565b600081519050919050565b600082825260208201905092915050565b60005b838110156140de5780820151818401526020810190506140c3565b838111156140ed576000848401525b50505050565b6000601f19601f8301169050919050565b600061410f826140a4565b61411981856140af565b93506141298185602086016140c0565b614132816140f3565b840191505092915050565b600060208201905081810360008301526141578184614104565b905092915050565b6000819050919050565b6141728161415f565b811461417d57600080fd5b50565b60008135905061418f81614169565b92915050565b6000602082840312156141ab576141aa613fdf565b5b60006141b984828501614180565b91505092915050565b600073ffffffffffffffffffffffffffffffffffffffff82169050919050565b60006141ed826141c2565b9050919050565b6141fd816141e2565b82525050565b600060208201905061421860008301846141f4565b92915050565b614227816141e2565b811461423257600080fd5b50565b6000813590506142448161421e565b92915050565b6000806040838503121561426157614260613fdf565b5b600061426f85828601614235565b925050602061428085828601614180565b9150509250929050565b6142938161415f565b82525050565b60006020820190506142ae600083018461428a565b92915050565b6000806000606084860312156142cd576142cc613fdf565b5b60006142db86828701614235565b93505060206142ec86828701614235565b92505060406142fd86828701614180565b9150509250925092565b60006020828403121561431d5761431c613fdf565b5b600061432b84828501614235565b91505092915050565b600080fd5b600080fd5b7f4e487b7100000000000000000000000000000000000000000000000000000000600052604160045260246000fd5b614376826140f3565b810181811067ffffffffffffffff821117156143955761439461433e565b5b80604052505050565b60006143a8613fd5565b90506143b4828261436d565b919050565b600067ffffffffffffffff8211156143d4576143d361433e565b5b6143dd826140f3565b9050602081019050919050565b82818337600083830152505050565b600061440c614407846143b9565b61439e565b90508281526020810184848401111561442857614427614339565b5b6144338482856143ea565b509392505050565b600082601f8301126144505761444f614334565b5b81356144608482602086016143f9565b91505092915050565b60006020828403121561447f5761447e613fdf565b5b600082013567ffffffffffffffff81111561449d5761449c613fe4565b5b6144a98482850161443b565b91505092915050565b600080604083850312156144c9576144c8613fdf565b5b60006144d785828601614180565b92505060206144e885828601614235565b9150509250929050565b60008060008060008060c0878903121561450f5761450e613fdf565b5b600061451d89828a01614180565b965050602061452e89828a01614180565b955050604061453f89828a01614180565b945050606061455089828a01614180565b935050608061456189828a01614180565b92505060a061457289828a01614180565b9150509295509295509295565b600080fd5b600080fd5b60008083601f84011261459f5761459e614334565b5b8235905067ffffffffffffffff8111156145bc576145bb61457f565b5b6020830191508360208202830111156145d8576145d7614584565b5b9250929050565b600080602083850312156145f6576145f5613fdf565b5b600083013567ffffffffffffffff81111561461457614613613fe4565b5b61462085828601614589565b92509250509250929050565b6146358161406e565b811461464057600080fd5b50565b6000813590506146528161462c565b92915050565b6000806040838503121561466f5761466e613fdf565b5b600061467d85828601614235565b925050602061468e85828601614643565b9150509250929050565b600067ffffffffffffffff8211156146b3576146b261433e565b5b6146bc826140f3565b9050602081019050919050565b60006146dc6146d784614698565b61439e565b9050828152602081018484840111156146f8576146f7614339565b5b6147038482856143ea565b509392505050565b600082601f8301126147205761471f614334565b5b81356147308482602086016146c9565b91505092915050565b6000806000806080858703121561475357614752613fdf565b5b600061476187828801614235565b945050602061477287828801614235565b935050604061478387828801614180565b925050606085013567ffffffffffffffff8111156147a4576147a3613fe4565b5b6147b08782880161470b565b91505092959194509250565b600081519050919050565b600082825260208201905092915050565b6000819050602082019050919050565b6147f18161415f565b82525050565b600061480383836147e8565b60208301905092915050565b6000602082019050919050565b6000614827826147bc565b61483181856147c7565b935061483c836147d8565b8060005b8381101561486d57815161485488826147f7565b975061485f8361480f565b925050600181019050614840565b5085935050505092915050565b60006020820190508181036000830152614894818461481c565b905092915050565b600080604083850312156148b3576148b2613fdf565b5b60006148c185828601614235565b92505060206148d285828601614235565b9150509250929050565b7f4e487b7100000000000000000000000000000000000000000000000000000000600052602260045260246000fd5b6000600282049050600182168061492357607f821691505b60208210811415614937576149366148dc565b5b50919050565b7f4552433732313a20617070726f76656420717565727920666f72206e6f6e657860008201527f697374656e7420746f6b656e0000000000000000000000000000000000000000602082015250565b6000614999602c836140af565b91506149a48261493d565b604082019050919050565b600060208201905081810360008301526149c88161498c565b9050919050565b7f4552433732313a20617070726f76616c20746f2063757272656e74206f776e6560008201527f7200000000000000000000000000000000000000000000000000000000000000602082015250565b6000614a2b6021836140af565b9150614a36826149cf565b604082019050919050565b60006020820190508181036000830152614a5a81614a1e565b9050919050565b7f4552433732313a20617070726f76652063616c6c6572206973206e6f74206f7760008201527f6e6572206e6f7220617070726f76656420666f7220616c6c0000000000000000602082015250565b6000614abd6038836140af565b9150614ac882614a61565b604082019050919050565b60006020820190508181036000830152614aec81614ab0565b9050919050565b7f4f776e61626c653a2063616c6c6572206973206e6f7420746865206f776e6572600082015250565b6000614b296020836140af565b9150614b3482614af3565b602082019050919050565b60006020820190508181036000830152614b5881614b1c565b9050919050565b7f4552433732313a207472616e736665722063616c6c6572206973206e6f74206f60008201527f776e6572206e6f7220617070726f766564000000000000000000000000000000602082015250565b6000614bbb6031836140af565b9150614bc682614b5f565b604082019050919050565b60006020820190508181036000830152614bea81614bae565b9050919050565b7f41756374696f6e206d7573742062652061637469766520746f206d696e74205960008201527f6f6c6f4361747300000000000000000000000000000000000000000000000000602082015250565b6000614c4d6027836140af565b9150614c5882614bf1565b604082019050919050565b60006020820190508181036000830152614c7c81614c40565b9050919050565b7f41756374696f6e206e6f74207374617274000000000000000000000000000000600082015250565b6000614cb96011836140af565b9150614cc482614c83565b602082019050919050565b60006020820190508181036000830152614ce881614cac565b9050919050565b7f4e487b7100000000000000000000000000000000000000000000000000000000600052601160045260246000fd5b6000614d298261415f565b9150614d348361415f565b9250827fffffffffffffffffffffffffffffffffffffffffffffffffffffffffffffffff03821115614d6957614d68614cef565b5b828201905092915050565b7f41756374696f6e20776f756c6420657863656564207469657220737570706c79600082015250565b6000614daa6020836140af565b9150614db582614d74565b602082019050919050565b60006020820190508181036000830152614dd981614d9d565b9050919050565b7f41756374696f6e20776f756c6420657863656564206d617820737570706c7900600082015250565b6000614e16601f836140af565b9150614e2182614de0565b602082019050919050565b60006020820190508181036000830152614e4581614e09565b9050919050565b7f41756374696f6e20776f756c6420657863656564206d61782062616c616e6365600082015250565b6000614e826020836140af565b9150614e8d82614e4c565b602082019050919050565b60006020820190508181036000830152614eb181614e75565b9050919050565b7f41756374696f6e20776f756c6420657863656564206d6178206d696e74000000600082015250565b6000614eee601d836140af565b9150614ef982614eb8565b602082019050919050565b60006020820190508181036000830152614f1d81614ee1565b9050919050565b6000614f2f8261415f565b9150614f3a8361415f565b9250817fffffffffffffffffffffffffffffffffffffffffffffffffffffffffffffffff0483118215151615614f7357614f72614cef565b5b828202905092915050565b7f4e6f7420656e6f7567682065746865722073656e740000000000000000000000600082015250565b6000614fb46015836140af565b9150614fbf82614f7e565b602082019050919050565b60006020820190508181036000830152614fe381614fa7565b9050919050565b7f455243373231456e756d657261626c653a206f776e657220696e646578206f7560008201527f74206f6620626f756e6473000000000000000000000000000000000000000000602082015250565b6000615046602b836140af565b915061505182614fea565b604082019050919050565b6000602082019050818103600083015261507581615039565b9050919050565b60006150878261415f565b91506150928361415f565b9250828210156150a5576150a4614cef565b5b828203905092915050565b7f4e487b7100000000000000000000000000000000000000000000000000000000600052601260045260246000fd5b60006150ea8261415f565b91506150f58361415f565b925082615105576151046150b0565b5b828204905092915050565b7f455243373231456e756d657261626c653a20676c6f62616c20696e646578206f60008201527f7574206f6620626f756e64730000000000000000000000000000000000000000602082015250565b600061516c602c836140af565b915061517782615110565b604082019050919050565b6000602082019050818103600083015261519b8161515f565b9050919050565b7f4e487b7100000000000000000000000000000000000000000000000000000000600052603260045260246000fd5b7f5072657365727665206d696e7420776f756c642065786365656420746965722060008201527f737570706c790000000000000000000000000000000000000000000000000000602082015250565b600061522d6026836140af565b9150615238826151d1565b604082019050919050565b6000602082019050818103600083015261525c81615220565b9050919050565b7f5072657365727665206d696e7420776f756c6420657863656564206d6178207360008201527f7570706c79000000000000000000000000000000000000000000000000000000602082015250565b60006152bf6025836140af565b91506152ca82615263565b604082019050919050565b600060208201905081810360008301526152ee816152b2565b9050919050565b7f4552433732313a206f776e657220717565727920666f72206e6f6e657869737460008201527f656e7420746f6b656e0000000000000000000000000000000000000000000000602082015250565b60006153516029836140af565b915061535c826152f5565b604082019050919050565b6000602082019050818103600083015261538081615344565b9050919050565b7f4552433732313a2062616c616e636520717565727920666f7220746865207a6560008201527f726f206164647265737300000000000000000000000000000000000000000000602082015250565b60006153e3602a836140af565b91506153ee82615387565b604082019050919050565b60006020820190508181036000830152615412816153d6565b9050919050565b60006154248261415f565b91507fffffffffffffffffffffffffffffffffffffffffffffffffffffffffffffffff82141561545757615456614cef565b5b600182019050919050565b7f53616c65206d7573742062652061637469766520746f206d696e7420596f6c6f60008201527f4361747300000000000000000000000000000000000000000000000000000000602082015250565b60006154be6024836140af565b91506154c982615462565b604082019050919050565b600060208201905081810360008301526154ed816154b1565b9050919050565b7f53616c6520776f756c6420657863656564207469657220737570706c79000000600082015250565b600061552a601d836140af565b9150615535826154f4565b602082019050919050565b600060208201905081810360008301526155598161551d565b9050919050565b7f53616c6520776f756c6420657863656564206d617820737570706c7900000000600082015250565b6000615596601c836140af565b91506155a182615560565b602082019050919050565b600060208201905081810360008301526155c581615589565b9050919050565b7f53616c6520776f756c6420657863656564206d61782062616c616e6365000000600082015250565b6000615602601d836140af565b915061560d826155cc565b602082019050919050565b60006020820190508181036000830152615631816155f5565b9050919050565b7f53616c6520776f756c6420657863656564206d6178206d696e74000000000000600082015250565b600061566e601a836140af565b915061567982615638565b602082019050919050565b6000602082019050818103600083015261569d81615661565b9050919050565b7f4e6f7420696e207768697465206c697374000000000000000000000000000000600082015250565b60006156da6011836140af565b91506156e5826156a4565b602082019050919050565b60006020820190508181036000830152615709816156cd565b9050919050565b7f4552433732314d657461646174613a2055524920717565727920666f72206e6f60008201527f6e6578697374656e7420746f6b656e0000000000000000000000000000000000602082015250565b600061576c602f836140af565b915061577782615710565b604082019050919050565b6000602082019050818103600083015261579b8161575f565b9050919050565b600081905092915050565b60006157b8826140a4565b6157c281856157a2565b93506157d28185602086016140c0565b80840191505092915050565b60006157ea82856157ad565b91506157f682846157ad565b91508190509392505050565b7f4f776e61626c653a206e6577206f776e657220697320746865207a65726f206160008201527f6464726573730000000000000000000000000000000000000000000000000000602082015250565b600061585e6026836140af565b915061586982615802565b604082019050919050565b6000602082019050818103600083015261588d81615851565b9050919050565b7f4552433732313a206f70657261746f7220717565727920666f72206e6f6e657860008201527f697374656e7420746f6b656e0000000000000000000000000000000000000000602082015250565b60006158f0602c836140af565b91506158fb82615894565b604082019050919050565b6000602082019050818103600083015261591f816158e3565b9050919050565b7f4552433732313a207472616e73666572206f6620746f6b656e2074686174206960008201527f73206e6f74206f776e0000000000000000000000000000000000000000000000602082015250565b60006159826029836140af565b915061598d82615926565b604082019050919050565b600060208201905081810360008301526159b181615975565b9050919050565b7f4552433732313a207472616e7366657220746f20746865207a65726f2061646460008201527f7265737300000000000000000000000000000000000000000000000000000000602082015250565b6000615a146024836140af565b9150615a1f826159b8565b604082019050919050565b60006020820190508181036000830152615a4381615a07565b9050919050565b7f4552433732313a20617070726f766520746f2063616c6c657200000000000000600082015250565b6000615a806019836140af565b9150615a8b82615a4a565b602082019050919050565b60006020820190508181036000830152615aaf81615a73565b9050919050565b7f4552433732313a207472616e7366657220746f206e6f6e20455243373231526560008201527f63656976657220696d706c656d656e7465720000000000000000000000000000602082015250565b6000615b126032836140af565b9150615b1d82615ab6565b604082019050919050565b60006020820190508181036000830152615b4181615b05565b9050919050565b6000615b538261415f565b9150615b5e8361415f565b925082615b6e57615b6d6150b0565b5b828206905092915050565b600081519050919050565b600082825260208201905092915050565b6000615ba082615b79565b615baa8185615b84565b9350615bba8185602086016140c0565b615bc3816140f3565b840191505092915050565b6000608082019050615be360008301876141f4565b615bf060208301866141f4565b615bfd604083018561428a565b8181036060830152615c0f8184615b95565b905095945050505050565b600081519050615c2981614015565b92915050565b600060208284031215615c4557615c44613fdf565b5b6000615c5384828501615c1a565b91505092915050565b7f4e487b7100000000000000000000000000000000000000000000000000000000600052603160045260246000fd5b7f4552433732313a206d696e7420746f20746865207a65726f2061646472657373600082015250565b6000615cc16020836140af565b9150615ccc82615c8b565b602082019050919050565b60006020820190508181036000830152615cf081615cb4565b9050919050565b7f4552433732313a20746f6b656e20616c7265616479206d696e74656400000000600082015250565b6000615d2d601c836140af565b9150615d3882615cf7565b602082019050919050565b60006020820190508181036000830152615d5c81615d20565b905091905056fea264697066735822122092257f974e26c6d3f98fbb40a8cbe3dbb9ade5a967d165424d498732b6df5f5664736f6c634300080a0033",
			"opcodes": "PUSH1 0x80 PUSH1 0x40 MSTORE PUSH1 0x0 PUSH1 0xA PUSH1 0x14 PUSH2 0x100 EXP DUP2 SLOAD DUP2 PUSH1 0xFF MUL NOT AND SWAP1 DUP4 ISZERO ISZERO MUL OR SWAP1 SSTORE POP PUSH1 0x0 PUSH1 0xA PUSH1 0x15 PUSH2 0x100 EXP DUP2 SLOAD DUP2 PUSH1 0xFF MUL NOT AND SWAP1 DUP4 ISZERO ISZERO MUL OR SWAP1 SSTORE POP PUSH1 0x0 PUSH1 0xA PUSH1 0x16 PUSH2 0x100 EXP DUP2 SLOAD DUP2 PUSH1 0xFF MUL NOT AND SWAP1 DUP4 ISZERO ISZERO MUL OR SWAP1 SSTORE POP PUSH8 0xC7D713B49DA0000 PUSH1 0xB SSTORE PUSH8 0xC7D713B49DA0000 PUSH1 0xC SSTORE PUSH8 0xB1A2BC2EC500000 PUSH1 0xD SSTORE PUSH1 0x81 PUSH1 0xE SSTORE PUSH1 0x1 PUSH1 0xF SSTORE PUSH1 0x1 PUSH1 0x10 SSTORE CALLVALUE DUP1 ISZERO PUSH3 0x95 JUMPI PUSH1 0x0 DUP1 REVERT JUMPDEST POP PUSH1 0x40 MLOAD DUP1 PUSH1 0x40 ADD PUSH1 0x40 MSTORE DUP1 PUSH1 0x8 DUP2 MSTORE PUSH1 0x20 ADD PUSH32 0x594F4C4F20436174000000000000000000000000000000000000000000000000 DUP2 MSTORE POP PUSH1 0x40 MLOAD DUP1 PUSH1 0x40 ADD PUSH1 0x40 MSTORE DUP1 PUSH1 0x2 DUP2 MSTORE PUSH1 0x20 ADD PUSH32 0x5943000000000000000000000000000000000000000000000000000000000000 DUP2 MSTORE POP DUP2 PUSH1 0x0 SWAP1 DUP1 MLOAD SWAP1 PUSH1 0x20 ADD SWAP1 PUSH3 0x11A SWAP3 SWAP2 SWAP1 PUSH3 0x22A JUMP JUMPDEST POP DUP1 PUSH1 0x1 SWAP1 DUP1 MLOAD SWAP1 PUSH1 0x20 ADD SWAP1 PUSH3 0x133 SWAP3 SWAP2 SWAP1 PUSH3 0x22A JUMP JUMPDEST POP POP POP PUSH3 0x156 PUSH3 0x14A PUSH3 0x15C PUSH1 0x20 SHL PUSH1 0x20 SHR JUMP JUMPDEST PUSH3 0x164 PUSH1 0x20 SHL PUSH1 0x20 SHR JUMP JUMPDEST PUSH3 0x33F JUMP JUMPDEST PUSH1 0x0 CALLER SWAP1 POP SWAP1 JUMP JUMPDEST PUSH1 0x0 PUSH1 0xA PUSH1 0x0 SWAP1 SLOAD SWAP1 PUSH2 0x100 EXP SWAP1 DIV PUSH20 0xFFFFFFFFFFFFFFFFFFFFFFFFFFFFFFFFFFFFFFFF AND SWAP1 POP DUP2 PUSH1 0xA PUSH1 0x0 PUSH2 0x100 EXP DUP2 SLOAD DUP2 PUSH20 0xFFFFFFFFFFFFFFFFFFFFFFFFFFFFFFFFFFFFFFFF MUL NOT AND SWAP1 DUP4 PUSH20 0xFFFFFFFFFFFFFFFFFFFFFFFFFFFFFFFFFFFFFFFF AND MUL OR SWAP1 SSTORE POP DUP2 PUSH20 0xFFFFFFFFFFFFFFFFFFFFFFFFFFFFFFFFFFFFFFFF AND DUP2 PUSH20 0xFFFFFFFFFFFFFFFFFFFFFFFFFFFFFFFFFFFFFFFF AND PUSH32 0x8BE0079C531659141344CD1FD0A4F28419497F9722A3DAAFE3B4186F6B6457E0 PUSH1 0x40 MLOAD PUSH1 0x40 MLOAD DUP1 SWAP2 SUB SWAP1 LOG3 POP POP JUMP JUMPDEST DUP3 DUP1 SLOAD PUSH3 0x238 SWAP1 PUSH3 0x309 JUMP JUMPDEST SWAP1 PUSH1 0x0 MSTORE PUSH1 0x20 PUSH1 0x0 KECCAK256 SWAP1 PUSH1 0x1F ADD PUSH1 0x20 SWAP1 DIV DUP2 ADD SWAP3 DUP3 PUSH3 0x25C JUMPI PUSH1 0x0 DUP6 SSTORE PUSH3 0x2A8 JUMP JUMPDEST DUP3 PUSH1 0x1F LT PUSH3 0x277 JUMPI DUP1 MLOAD PUSH1 0xFF NOT AND DUP4 DUP1 ADD OR DUP6 SSTORE PUSH3 0x2A8 JUMP JUMPDEST DUP3 DUP1 ADD PUSH1 0x1 ADD DUP6 SSTORE DUP3 ISZERO PUSH3 0x2A8 JUMPI SWAP2 DUP3 ADD JUMPDEST DUP3 DUP2 GT ISZERO PUSH3 0x2A7 JUMPI DUP3 MLOAD DUP3 SSTORE SWAP2 PUSH1 0x20 ADD SWAP2 SWAP1 PUSH1 0x1 ADD SWAP1 PUSH3 0x28A JUMP JUMPDEST JUMPDEST POP SWAP1 POP PUSH3 0x2B7 SWAP2 SWAP1 PUSH3 0x2BB JUMP JUMPDEST POP SWAP1 JUMP JUMPDEST JUMPDEST DUP1 DUP3 GT ISZERO PUSH3 0x2D6 JUMPI PUSH1 0x0 DUP2 PUSH1 0x0 SWAP1 SSTORE POP PUSH1 0x1 ADD PUSH3 0x2BC JUMP JUMPDEST POP SWAP1 JUMP JUMPDEST PUSH32 0x4E487B7100000000000000000000000000000000000000000000000000000000 PUSH1 0x0 MSTORE PUSH1 0x22 PUSH1 0x4 MSTORE PUSH1 0x24 PUSH1 0x0 REVERT JUMPDEST PUSH1 0x0 PUSH1 0x2 DUP3 DIV SWAP1 POP PUSH1 0x1 DUP3 AND DUP1 PUSH3 0x322 JUMPI PUSH1 0x7F DUP3 AND SWAP2 POP JUMPDEST PUSH1 0x20 DUP3 LT DUP2 EQ ISZERO PUSH3 0x339 JUMPI PUSH3 0x338 PUSH3 0x2DA JUMP JUMPDEST JUMPDEST POP SWAP2 SWAP1 POP JUMP JUMPDEST PUSH2 0x5D99 DUP1 PUSH3 0x34F PUSH1 0x0 CODECOPY PUSH1 0x0 RETURN INVALID PUSH1 0x80 PUSH1 0x40 MSTORE PUSH1 0x4 CALLDATASIZE LT PUSH2 0x381 JUMPI PUSH1 0x0 CALLDATALOAD PUSH1 0xE0 SHR DUP1 PUSH4 0x7080D6FC GT PUSH2 0x1D1 JUMPI DUP1 PUSH4 0xA04A6AC8 GT PUSH2 0x102 JUMPI DUP1 PUSH4 0xC87B56DD GT PUSH2 0xA0 JUMPI DUP1 PUSH4 0xEB54F9EC GT PUSH2 0x6F JUMPI DUP1 PUSH4 0xEB54F9EC EQ PUSH2 0xCC1 JUMPI DUP1 PUSH4 0xF11207D8 EQ PUSH2 0xCEC JUMPI DUP1 PUSH4 0xF2FDE38B EQ PUSH2 0xD17 JUMPI DUP1 PUSH4 0xF4A0A528 EQ PUSH2 0xD40 JUMPI PUSH2 0x381 JUMP JUMPDEST DUP1 PUSH4 0xC87B56DD EQ PUSH2 0xBDF JUMPI DUP1 PUSH4 0xD756985B EQ PUSH2 0xC1C JUMPI DUP1 PUSH4 0xD7A9FBCC EQ PUSH2 0xC47 JUMPI DUP1 PUSH4 0xE985E9C5 EQ PUSH2 0xC84 JUMPI PUSH2 0x381 JUMP JUMPDEST DUP1 PUSH4 0xA8EAE392 GT PUSH2 0xDC JUMPI DUP1 PUSH4 0xA8EAE392 EQ PUSH2 0xB25 JUMPI DUP1 PUSH4 0xB88D4FDE EQ PUSH2 0xB62 JUMPI DUP1 PUSH4 0xBEAFC89B EQ PUSH2 0xB8B JUMPI DUP1 PUSH4 0xC4E41B22 EQ PUSH2 0xBB4 JUMPI PUSH2 0x381 JUMP JUMPDEST DUP1 PUSH4 0xA04A6AC8 EQ PUSH2 0xAB5 JUMPI DUP1 PUSH4 0xA22CB465 EQ PUSH2 0xAE0 JUMPI DUP1 PUSH4 0xA51CAE30 EQ PUSH2 0xB09 JUMPI PUSH2 0x381 JUMP JUMPDEST DUP1 PUSH4 0x8B169E58 GT PUSH2 0x16F JUMPI DUP1 PUSH4 0x9196EBA5 GT PUSH2 0x149 JUMPI DUP1 PUSH4 0x9196EBA5 EQ PUSH2 0xA0B JUMPI DUP1 PUSH4 0x95D89B41 EQ PUSH2 0xA36 JUMPI DUP1 PUSH4 0x964DD240 EQ PUSH2 0xA61 JUMPI DUP1 PUSH4 0x9D51D9B7 EQ PUSH2 0xA8C JUMPI PUSH2 0x381 JUMP JUMPDEST DUP1 PUSH4 0x8B169E58 EQ PUSH2 0x98C JUMPI DUP1 PUSH4 0x8C2AC9F7 EQ PUSH2 0x9B7 JUMPI DUP1 PUSH4 0x8DA5CB5B EQ PUSH2 0x9E0 JUMPI PUSH2 0x381 JUMP JUMPDEST DUP1 PUSH4 0x73AD468A GT PUSH2 0x1AB JUMPI DUP1 PUSH4 0x73AD468A EQ PUSH2 0x8F1 JUMPI DUP1 PUSH4 0x7501F741 EQ PUSH2 0x91C JUMPI DUP1 PUSH4 0x775B9C13 EQ PUSH2 0x947 JUMPI DUP1 PUSH4 0x8914E838 EQ PUSH2 0x970 JUMPI PUSH2 0x381 JUMP JUMPDEST DUP1 PUSH4 0x7080D6FC EQ PUSH2 0x872 JUMPI DUP1 PUSH4 0x70A08231 EQ PUSH2 0x89D JUMPI DUP1 PUSH4 0x715018A6 EQ PUSH2 0x8DA JUMPI PUSH2 0x381 JUMP JUMPDEST DUP1 PUSH4 0x42835C41 GT PUSH2 0x2B6 JUMPI DUP1 PUSH4 0x549B9DA5 GT PUSH2 0x254 JUMPI DUP1 PUSH4 0x66534F4B GT PUSH2 0x223 JUMPI DUP1 PUSH4 0x66534F4B EQ PUSH2 0x7CA JUMPI DUP1 PUSH4 0x6817C76C EQ PUSH2 0x7F3 JUMPI DUP1 PUSH4 0x68575685 EQ PUSH2 0x81E JUMPI DUP1 PUSH4 0x6A99CACB EQ PUSH2 0x849 JUMPI PUSH2 0x381 JUMP JUMPDEST DUP1 PUSH4 0x549B9DA5 EQ PUSH2 0x710 JUMPI DUP1 PUSH4 0x55F804B3 EQ PUSH2 0x73B JUMPI DUP1 PUSH4 0x5EDD95F9 EQ PUSH2 0x764 JUMPI DUP1 PUSH4 0x6352211E EQ PUSH2 0x78D JUMPI PUSH2 0x381 JUMP JUMPDEST DUP1 PUSH4 0x4BD25C6F GT PUSH2 0x290 JUMPI DUP1 PUSH4 0x4BD25C6F EQ PUSH2 0x656 JUMPI DUP1 PUSH4 0x4F6CCCE7 EQ PUSH2 0x681 JUMPI DUP1 PUSH4 0x51CFF8D9 EQ PUSH2 0x6BE JUMPI DUP1 PUSH4 0x547520FE EQ PUSH2 0x6E7 JUMPI PUSH2 0x381 JUMP JUMPDEST DUP1 PUSH4 0x42835C41 EQ PUSH2 0x5EB JUMPI DUP1 PUSH4 0x42842E0E EQ PUSH2 0x602 JUMPI DUP1 PUSH4 0x4698A3D8 EQ PUSH2 0x62B JUMPI PUSH2 0x381 JUMP JUMPDEST DUP1 PUSH4 0x209EE297 GT PUSH2 0x323 JUMPI DUP1 PUSH4 0x26CF76B6 GT PUSH2 0x2FD JUMPI DUP1 PUSH4 0x26CF76B6 EQ PUSH2 0x51B JUMPI DUP1 PUSH4 0x2F745C59 EQ PUSH2 0x546 JUMPI DUP1 PUSH4 0x32CB6B0C EQ PUSH2 0x583 JUMPI DUP1 PUSH4 0x372C12B1 EQ PUSH2 0x5AE JUMPI PUSH2 0x381 JUMP JUMPDEST DUP1 PUSH4 0x209EE297 EQ PUSH2 0x4AD JUMPI DUP1 PUSH4 0x23B872DD EQ PUSH2 0x4D6 JUMPI DUP1 PUSH4 0x257C8597 EQ PUSH2 0x4FF JUMPI PUSH2 0x381 JUMP JUMPDEST DUP1 PUSH4 0x95EA7B3 GT PUSH2 0x35F JUMPI DUP1 PUSH4 0x95EA7B3 EQ PUSH2 0x42B JUMPI DUP1 PUSH4 0x12675F36 EQ PUSH2 0x454 JUMPI DUP1 PUSH4 0x18160DDD EQ PUSH2 0x46B JUMPI DUP1 PUSH4 0x1CA62DBC EQ PUSH2 0x496 JUMPI PUSH2 0x381 JUMP JUMPDEST DUP1 PUSH4 0x1FFC9A7 EQ PUSH2 0x386 JUMPI DUP1 PUSH4 0x6FDDE03 EQ PUSH2 0x3C3 JUMPI DUP1 PUSH4 0x81812FC EQ PUSH2 0x3EE JUMPI JUMPDEST PUSH1 0x0 DUP1 REVERT JUMPDEST CALLVALUE DUP1 ISZERO PUSH2 0x392 JUMPI PUSH1 0x0 DUP1 REVERT JUMPDEST POP PUSH2 0x3AD PUSH1 0x4 DUP1 CALLDATASIZE SUB DUP2 ADD SWAP1 PUSH2 0x3A8 SWAP2 SWAP1 PUSH2 0x4041 JUMP JUMPDEST PUSH2 0xD69 JUMP JUMPDEST PUSH1 0x40 MLOAD PUSH2 0x3BA SWAP2 SWAP1 PUSH2 0x4089 JUMP JUMPDEST PUSH1 0x40 MLOAD DUP1 SWAP2 SUB SWAP1 RETURN JUMPDEST CALLVALUE DUP1 ISZERO PUSH2 0x3CF JUMPI PUSH1 0x0 DUP1 REVERT JUMPDEST POP PUSH2 0x3D8 PUSH2 0xD7B JUMP JUMPDEST PUSH1 0x40 MLOAD PUSH2 0x3E5 SWAP2 SWAP1 PUSH2 0x413D JUMP JUMPDEST PUSH1 0x40 MLOAD DUP1 SWAP2 SUB SWAP1 RETURN JUMPDEST CALLVALUE DUP1 ISZERO PUSH2 0x3FA JUMPI PUSH1 0x0 DUP1 REVERT JUMPDEST POP PUSH2 0x415 PUSH1 0x4 DUP1 CALLDATASIZE SUB DUP2 ADD SWAP1 PUSH2 0x410 SWAP2 SWAP1 PUSH2 0x4195 JUMP JUMPDEST PUSH2 0xE0D JUMP JUMPDEST PUSH1 0x40 MLOAD PUSH2 0x422 SWAP2 SWAP1 PUSH2 0x4203 JUMP JUMPDEST PUSH1 0x40 MLOAD DUP1 SWAP2 SUB SWAP1 RETURN JUMPDEST CALLVALUE DUP1 ISZERO PUSH2 0x437 JUMPI PUSH1 0x0 DUP1 REVERT JUMPDEST POP PUSH2 0x452 PUSH1 0x4 DUP1 CALLDATASIZE SUB DUP2 ADD SWAP1 PUSH2 0x44D SWAP2 SWAP1 PUSH2 0x424A JUMP JUMPDEST PUSH2 0xE92 JUMP JUMPDEST STOP JUMPDEST CALLVALUE DUP1 ISZERO PUSH2 0x460 JUMPI PUSH1 0x0 DUP1 REVERT JUMPDEST POP PUSH2 0x469 PUSH2 0xFAA JUMP JUMPDEST STOP JUMPDEST CALLVALUE DUP1 ISZERO PUSH2 0x477 JUMPI PUSH1 0x0 DUP1 REVERT JUMPDEST POP PUSH2 0x480 PUSH2 0x1052 JUMP JUMPDEST PUSH1 0x40 MLOAD PUSH2 0x48D SWAP2 SWAP1 PUSH2 0x4299 JUMP JUMPDEST PUSH1 0x40 MLOAD DUP1 SWAP2 SUB SWAP1 RETURN JUMPDEST CALLVALUE DUP1 ISZERO PUSH2 0x4A2 JUMPI PUSH1 0x0 DUP1 REVERT JUMPDEST POP PUSH2 0x4AB PUSH2 0x105F JUMP JUMPDEST STOP JUMPDEST CALLVALUE DUP1 ISZERO PUSH2 0x4B9 JUMPI PUSH1 0x0 DUP1 REVERT JUMPDEST POP PUSH2 0x4D4 PUSH1 0x4 DUP1 CALLDATASIZE SUB DUP2 ADD SWAP1 PUSH2 0x4CF SWAP2 SWAP1 PUSH2 0x4195 JUMP JUMPDEST PUSH2 0x1107 JUMP JUMPDEST STOP JUMPDEST CALLVALUE DUP1 ISZERO PUSH2 0x4E2 JUMPI PUSH1 0x0 DUP1 REVERT JUMPDEST POP PUSH2 0x4FD PUSH1 0x4 DUP1 CALLDATASIZE SUB DUP2 ADD SWAP1 PUSH2 0x4F8 SWAP2 SWAP1 PUSH2 0x42B4 JUMP JUMPDEST PUSH2 0x118D JUMP JUMPDEST STOP JUMPDEST PUSH2 0x519 PUSH1 0x4 DUP1 CALLDATASIZE SUB DUP2 ADD SWAP1 PUSH2 0x514 SWAP2 SWAP1 PUSH2 0x4195 JUMP JUMPDEST PUSH2 0x11ED JUMP JUMPDEST STOP JUMPDEST CALLVALUE DUP1 ISZERO PUSH2 0x527 JUMPI PUSH1 0x0 DUP1 REVERT JUMPDEST POP PUSH2 0x530 PUSH2 0x146C JUMP JUMPDEST PUSH1 0x40 MLOAD PUSH2 0x53D SWAP2 SWAP1 PUSH2 0x4089 JUMP JUMPDEST PUSH1 0x40 MLOAD DUP1 SWAP2 SUB SWAP1 RETURN JUMPDEST CALLVALUE DUP1 ISZERO PUSH2 0x552 JUMPI PUSH1 0x0 DUP1 REVERT JUMPDEST POP PUSH2 0x56D PUSH1 0x4 DUP1 CALLDATASIZE SUB DUP2 ADD SWAP1 PUSH2 0x568 SWAP2 SWAP1 PUSH2 0x424A JUMP JUMPDEST PUSH2 0x147F JUMP JUMPDEST PUSH1 0x40 MLOAD PUSH2 0x57A SWAP2 SWAP1 PUSH2 0x4299 JUMP JUMPDEST PUSH1 0x40 MLOAD DUP1 SWAP2 SUB SWAP1 RETURN JUMPDEST CALLVALUE DUP1 ISZERO PUSH2 0x58F JUMPI PUSH1 0x0 DUP1 REVERT JUMPDEST POP PUSH2 0x598 PUSH2 0x1524 JUMP JUMPDEST PUSH1 0x40 MLOAD PUSH2 0x5A5 SWAP2 SWAP1 PUSH2 0x4299 JUMP JUMPDEST PUSH1 0x40 MLOAD DUP1 SWAP2 SUB SWAP1 RETURN JUMPDEST CALLVALUE DUP1 ISZERO PUSH2 0x5BA JUMPI PUSH1 0x0 DUP1 REVERT JUMPDEST POP PUSH2 0x5D5 PUSH1 0x4 DUP1 CALLDATASIZE SUB DUP2 ADD SWAP1 PUSH2 0x5D0 SWAP2 SWAP1 PUSH2 0x4307 JUMP JUMPDEST PUSH2 0x152A JUMP JUMPDEST PUSH1 0x40 MLOAD PUSH2 0x5E2 SWAP2 SWAP1 PUSH2 0x4089 JUMP JUMPDEST PUSH1 0x40 MLOAD DUP1 SWAP2 SUB SWAP1 RETURN JUMPDEST CALLVALUE DUP1 ISZERO PUSH2 0x5F7 JUMPI PUSH1 0x0 DUP1 REVERT JUMPDEST POP PUSH2 0x600 PUSH2 0x154A JUMP JUMPDEST STOP JUMPDEST CALLVALUE DUP1 ISZERO PUSH2 0x60E JUMPI PUSH1 0x0 DUP1 REVERT JUMPDEST POP PUSH2 0x629 PUSH1 0x4 DUP1 CALLDATASIZE SUB DUP2 ADD SWAP1 PUSH2 0x624 SWAP2 SWAP1 PUSH2 0x42B4 JUMP JUMPDEST PUSH2 0x15F2 JUMP JUMPDEST STOP JUMPDEST CALLVALUE DUP1 ISZERO PUSH2 0x637 JUMPI PUSH1 0x0 DUP1 REVERT JUMPDEST POP PUSH2 0x640 PUSH2 0x1612 JUMP JUMPDEST PUSH1 0x40 MLOAD PUSH2 0x64D SWAP2 SWAP1 PUSH2 0x4299 JUMP JUMPDEST PUSH1 0x40 MLOAD DUP1 SWAP2 SUB SWAP1 RETURN JUMPDEST CALLVALUE DUP1 ISZERO PUSH2 0x662 JUMPI PUSH1 0x0 DUP1 REVERT JUMPDEST POP PUSH2 0x66B PUSH2 0x1618 JUMP JUMPDEST PUSH1 0x40 MLOAD PUSH2 0x678 SWAP2 SWAP1 PUSH2 0x4299 JUMP JUMPDEST PUSH1 0x40 MLOAD DUP1 SWAP2 SUB SWAP1 RETURN JUMPDEST CALLVALUE DUP1 ISZERO PUSH2 0x68D JUMPI PUSH1 0x0 DUP1 REVERT JUMPDEST POP PUSH2 0x6A8 PUSH1 0x4 DUP1 CALLDATASIZE SUB DUP2 ADD SWAP1 PUSH2 0x6A3 SWAP2 SWAP1 PUSH2 0x4195 JUMP JUMPDEST PUSH2 0x16BB JUMP JUMPDEST PUSH1 0x40 MLOAD PUSH2 0x6B5 SWAP2 SWAP1 PUSH2 0x4299 JUMP JUMPDEST PUSH1 0x40 MLOAD DUP1 SWAP2 SUB SWAP1 RETURN JUMPDEST CALLVALUE DUP1 ISZERO PUSH2 0x6CA JUMPI PUSH1 0x0 DUP1 REVERT JUMPDEST POP PUSH2 0x6E5 PUSH1 0x4 DUP1 CALLDATASIZE SUB DUP2 ADD SWAP1 PUSH2 0x6E0 SWAP2 SWAP1 PUSH2 0x4307 JUMP JUMPDEST PUSH2 0x172C JUMP JUMPDEST STOP JUMPDEST CALLVALUE DUP1 ISZERO PUSH2 0x6F3 JUMPI PUSH1 0x0 DUP1 REVERT JUMPDEST POP PUSH2 0x70E PUSH1 0x4 DUP1 CALLDATASIZE SUB DUP2 ADD SWAP1 PUSH2 0x709 SWAP2 SWAP1 PUSH2 0x4195 JUMP JUMPDEST PUSH2 0x17F8 JUMP JUMPDEST STOP JUMPDEST CALLVALUE DUP1 ISZERO PUSH2 0x71C JUMPI PUSH1 0x0 DUP1 REVERT JUMPDEST POP PUSH2 0x725 PUSH2 0x187E JUMP JUMPDEST PUSH1 0x40 MLOAD PUSH2 0x732 SWAP2 SWAP1 PUSH2 0x4299 JUMP JUMPDEST PUSH1 0x40 MLOAD DUP1 SWAP2 SUB SWAP1 RETURN JUMPDEST CALLVALUE DUP1 ISZERO PUSH2 0x747 JUMPI PUSH1 0x0 DUP1 REVERT JUMPDEST POP PUSH2 0x762 PUSH1 0x4 DUP1 CALLDATASIZE SUB DUP2 ADD SWAP1 PUSH2 0x75D SWAP2 SWAP1 PUSH2 0x4469 JUMP JUMPDEST PUSH2 0x1884 JUMP JUMPDEST STOP JUMPDEST CALLVALUE DUP1 ISZERO PUSH2 0x770 JUMPI PUSH1 0x0 DUP1 REVERT JUMPDEST POP PUSH2 0x78B PUSH1 0x4 DUP1 CALLDATASIZE SUB DUP2 ADD SWAP1 PUSH2 0x786 SWAP2 SWAP1 PUSH2 0x44B2 JUMP JUMPDEST PUSH2 0x191A JUMP JUMPDEST STOP JUMPDEST CALLVALUE DUP1 ISZERO PUSH2 0x799 JUMPI PUSH1 0x0 DUP1 REVERT JUMPDEST POP PUSH2 0x7B4 PUSH1 0x4 DUP1 CALLDATASIZE SUB DUP2 ADD SWAP1 PUSH2 0x7AF SWAP2 SWAP1 PUSH2 0x4195 JUMP JUMPDEST PUSH2 0x1A90 JUMP JUMPDEST PUSH1 0x40 MLOAD PUSH2 0x7C1 SWAP2 SWAP1 PUSH2 0x4203 JUMP JUMPDEST PUSH1 0x40 MLOAD DUP1 SWAP2 SUB SWAP1 RETURN JUMPDEST CALLVALUE DUP1 ISZERO PUSH2 0x7D6 JUMPI PUSH1 0x0 DUP1 REVERT JUMPDEST POP PUSH2 0x7F1 PUSH1 0x4 DUP1 CALLDATASIZE SUB DUP2 ADD SWAP1 PUSH2 0x7EC SWAP2 SWAP1 PUSH2 0x4195 JUMP JUMPDEST PUSH2 0x1B42 JUMP JUMPDEST STOP JUMPDEST CALLVALUE DUP1 ISZERO PUSH2 0x7FF JUMPI PUSH1 0x0 DUP1 REVERT JUMPDEST POP PUSH2 0x808 PUSH2 0x1BC8 JUMP JUMPDEST PUSH1 0x40 MLOAD PUSH2 0x815 SWAP2 SWAP1 PUSH2 0x4299 JUMP JUMPDEST PUSH1 0x40 MLOAD DUP1 SWAP2 SUB SWAP1 RETURN JUMPDEST CALLVALUE DUP1 ISZERO PUSH2 0x82A JUMPI PUSH1 0x0 DUP1 REVERT JUMPDEST POP PUSH2 0x833 PUSH2 0x1BCE JUMP JUMPDEST PUSH1 0x40 MLOAD PUSH2 0x840 SWAP2 SWAP1 PUSH2 0x4299 JUMP JUMPDEST PUSH1 0x40 MLOAD DUP1 SWAP2 SUB SWAP1 RETURN JUMPDEST CALLVALUE DUP1 ISZERO PUSH2 0x855 JUMPI PUSH1 0x0 DUP1 REVERT JUMPDEST POP PUSH2 0x870 PUSH1 0x4 DUP1 CALLDATASIZE SUB DUP2 ADD SWAP1 PUSH2 0x86B SWAP2 SWAP1 PUSH2 0x44F2 JUMP JUMPDEST PUSH2 0x1BD4 JUMP JUMPDEST STOP JUMPDEST CALLVALUE DUP1 ISZERO PUSH2 0x87E JUMPI PUSH1 0x0 DUP1 REVERT JUMPDEST POP PUSH2 0x887 PUSH2 0x1C82 JUMP JUMPDEST PUSH1 0x40 MLOAD PUSH2 0x894 SWAP2 SWAP1 PUSH2 0x4089 JUMP JUMPDEST PUSH1 0x40 MLOAD DUP1 SWAP2 SUB SWAP1 RETURN JUMPDEST CALLVALUE DUP1 ISZERO PUSH2 0x8A9 JUMPI PUSH1 0x0 DUP1 REVERT JUMPDEST POP PUSH2 0x8C4 PUSH1 0x4 DUP1 CALLDATASIZE SUB DUP2 ADD SWAP1 PUSH2 0x8BF SWAP2 SWAP1 PUSH2 0x4307 JUMP JUMPDEST PUSH2 0x1C95 JUMP JUMPDEST PUSH1 0x40 MLOAD PUSH2 0x8D1 SWAP2 SWAP1 PUSH2 0x4299 JUMP JUMPDEST PUSH1 0x40 MLOAD DUP1 SWAP2 SUB SWAP1 RETURN JUMPDEST CALLVALUE DUP1 ISZERO PUSH2 0x8E6 JUMPI PUSH1 0x0 DUP1 REVERT JUMPDEST POP PUSH2 0x8EF PUSH2 0x1D4D JUMP JUMPDEST STOP JUMPDEST CALLVALUE DUP1 ISZERO PUSH2 0x8FD JUMPI PUSH1 0x0 DUP1 REVERT JUMPDEST POP PUSH2 0x906 PUSH2 0x1DD5 JUMP JUMPDEST PUSH1 0x40 MLOAD PUSH2 0x913 SWAP2 SWAP1 PUSH2 0x4299 JUMP JUMPDEST PUSH1 0x40 MLOAD DUP1 SWAP2 SUB SWAP1 RETURN JUMPDEST CALLVALUE DUP1 ISZERO PUSH2 0x928 JUMPI PUSH1 0x0 DUP1 REVERT JUMPDEST POP PUSH2 0x931 PUSH2 0x1DDB JUMP JUMPDEST PUSH1 0x40 MLOAD PUSH2 0x93E SWAP2 SWAP1 PUSH2 0x4299 JUMP JUMPDEST PUSH1 0x40 MLOAD DUP1 SWAP2 SUB SWAP1 RETURN JUMPDEST CALLVALUE DUP1 ISZERO PUSH2 0x953 JUMPI PUSH1 0x0 DUP1 REVERT JUMPDEST POP PUSH2 0x96E PUSH1 0x4 DUP1 CALLDATASIZE SUB DUP2 ADD SWAP1 PUSH2 0x969 SWAP2 SWAP1 PUSH2 0x45DF JUMP JUMPDEST PUSH2 0x1DE1 JUMP JUMPDEST STOP JUMPDEST PUSH2 0x98A PUSH1 0x4 DUP1 CALLDATASIZE SUB DUP2 ADD SWAP1 PUSH2 0x985 SWAP2 SWAP1 PUSH2 0x4195 JUMP JUMPDEST PUSH2 0x1F02 JUMP JUMPDEST STOP JUMPDEST CALLVALUE DUP1 ISZERO PUSH2 0x998 JUMPI PUSH1 0x0 DUP1 REVERT JUMPDEST POP PUSH2 0x9A1 PUSH2 0x2137 JUMP JUMPDEST PUSH1 0x40 MLOAD PUSH2 0x9AE SWAP2 SWAP1 PUSH2 0x4299 JUMP JUMPDEST PUSH1 0x40 MLOAD DUP1 SWAP2 SUB SWAP1 RETURN JUMPDEST CALLVALUE DUP1 ISZERO PUSH2 0x9C3 JUMPI PUSH1 0x0 DUP1 REVERT JUMPDEST POP PUSH2 0x9DE PUSH1 0x4 DUP1 CALLDATASIZE SUB DUP2 ADD SWAP1 PUSH2 0x9D9 SWAP2 SWAP1 PUSH2 0x45DF JUMP JUMPDEST PUSH2 0x213D JUMP JUMPDEST STOP JUMPDEST CALLVALUE DUP1 ISZERO PUSH2 0x9EC JUMPI PUSH1 0x0 DUP1 REVERT JUMPDEST POP PUSH2 0x9F5 PUSH2 0x225E JUMP JUMPDEST PUSH1 0x40 MLOAD PUSH2 0xA02 SWAP2 SWAP1 PUSH2 0x4203 JUMP JUMPDEST PUSH1 0x40 MLOAD DUP1 SWAP2 SUB SWAP1 RETURN JUMPDEST CALLVALUE DUP1 ISZERO PUSH2 0xA17 JUMPI PUSH1 0x0 DUP1 REVERT JUMPDEST POP PUSH2 0xA20 PUSH2 0x2288 JUMP JUMPDEST PUSH1 0x40 MLOAD PUSH2 0xA2D SWAP2 SWAP1 PUSH2 0x4299 JUMP JUMPDEST PUSH1 0x40 MLOAD DUP1 SWAP2 SUB SWAP1 RETURN JUMPDEST CALLVALUE DUP1 ISZERO PUSH2 0xA42 JUMPI PUSH1 0x0 DUP1 REVERT JUMPDEST POP PUSH2 0xA4B PUSH2 0x228E JUMP JUMPDEST PUSH1 0x40 MLOAD PUSH2 0xA58 SWAP2 SWAP1 PUSH2 0x413D JUMP JUMPDEST PUSH1 0x40 MLOAD DUP1 SWAP2 SUB SWAP1 RETURN JUMPDEST CALLVALUE DUP1 ISZERO PUSH2 0xA6D JUMPI PUSH1 0x0 DUP1 REVERT JUMPDEST POP PUSH2 0xA76 PUSH2 0x2320 JUMP JUMPDEST PUSH1 0x40 MLOAD PUSH2 0xA83 SWAP2 SWAP1 PUSH2 0x4299 JUMP JUMPDEST PUSH1 0x40 MLOAD DUP1 SWAP2 SUB SWAP1 RETURN JUMPDEST CALLVALUE DUP1 ISZERO PUSH2 0xA98 JUMPI PUSH1 0x0 DUP1 REVERT JUMPDEST POP PUSH2 0xAB3 PUSH1 0x4 DUP1 CALLDATASIZE SUB DUP2 ADD SWAP1 PUSH2 0xAAE SWAP2 SWAP1 PUSH2 0x4195 JUMP JUMPDEST PUSH2 0x2326 JUMP JUMPDEST STOP JUMPDEST CALLVALUE DUP1 ISZERO PUSH2 0xAC1 JUMPI PUSH1 0x0 DUP1 REVERT JUMPDEST POP PUSH2 0xACA PUSH2 0x23AC JUMP JUMPDEST PUSH1 0x40 MLOAD PUSH2 0xAD7 SWAP2 SWAP1 PUSH2 0x4299 JUMP JUMPDEST PUSH1 0x40 MLOAD DUP1 SWAP2 SUB SWAP1 RETURN JUMPDEST CALLVALUE DUP1 ISZERO PUSH2 0xAEC JUMPI PUSH1 0x0 DUP1 REVERT JUMPDEST POP PUSH2 0xB07 PUSH1 0x4 DUP1 CALLDATASIZE SUB DUP2 ADD SWAP1 PUSH2 0xB02 SWAP2 SWAP1 PUSH2 0x4658 JUMP JUMPDEST PUSH2 0x23B2 JUMP JUMPDEST STOP JUMPDEST PUSH2 0xB23 PUSH1 0x4 DUP1 CALLDATASIZE SUB DUP2 ADD SWAP1 PUSH2 0xB1E SWAP2 SWAP1 PUSH2 0x4195 JUMP JUMPDEST PUSH2 0x23C8 JUMP JUMPDEST STOP JUMPDEST CALLVALUE DUP1 ISZERO PUSH2 0xB31 JUMPI PUSH1 0x0 DUP1 REVERT JUMPDEST POP PUSH2 0xB4C PUSH1 0x4 DUP1 CALLDATASIZE SUB DUP2 ADD SWAP1 PUSH2 0xB47 SWAP2 SWAP1 PUSH2 0x4307 JUMP JUMPDEST PUSH2 0x27B5 JUMP JUMPDEST PUSH1 0x40 MLOAD PUSH2 0xB59 SWAP2 SWAP1 PUSH2 0x4089 JUMP JUMPDEST PUSH1 0x40 MLOAD DUP1 SWAP2 SUB SWAP1 RETURN JUMPDEST CALLVALUE DUP1 ISZERO PUSH2 0xB6E JUMPI PUSH1 0x0 DUP1 REVERT JUMPDEST POP PUSH2 0xB89 PUSH1 0x4 DUP1 CALLDATASIZE SUB DUP2 ADD SWAP1 PUSH2 0xB84 SWAP2 SWAP1 PUSH2 0x4739 JUMP JUMPDEST PUSH2 0x27D5 JUMP JUMPDEST STOP JUMPDEST CALLVALUE DUP1 ISZERO PUSH2 0xB97 JUMPI PUSH1 0x0 DUP1 REVERT JUMPDEST POP PUSH2 0xBB2 PUSH1 0x4 DUP1 CALLDATASIZE SUB DUP2 ADD SWAP1 PUSH2 0xBAD SWAP2 SWAP1 PUSH2 0x4195 JUMP JUMPDEST PUSH2 0x2837 JUMP JUMPDEST STOP JUMPDEST CALLVALUE DUP1 ISZERO PUSH2 0xBC0 JUMPI PUSH1 0x0 DUP1 REVERT JUMPDEST POP PUSH2 0xBC9 PUSH2 0x28BD JUMP JUMPDEST PUSH1 0x40 MLOAD PUSH2 0xBD6 SWAP2 SWAP1 PUSH2 0x4299 JUMP JUMPDEST PUSH1 0x40 MLOAD DUP1 SWAP2 SUB SWAP1 RETURN JUMPDEST CALLVALUE DUP1 ISZERO PUSH2 0xBEB JUMPI PUSH1 0x0 DUP1 REVERT JUMPDEST POP PUSH2 0xC06 PUSH1 0x4 DUP1 CALLDATASIZE SUB DUP2 ADD SWAP1 PUSH2 0xC01 SWAP2 SWAP1 PUSH2 0x4195 JUMP JUMPDEST PUSH2 0x28CC JUMP JUMPDEST PUSH1 0x40 MLOAD PUSH2 0xC13 SWAP2 SWAP1 PUSH2 0x413D JUMP JUMPDEST PUSH1 0x40 MLOAD DUP1 SWAP2 SUB SWAP1 RETURN JUMPDEST CALLVALUE DUP1 ISZERO PUSH2 0xC28 JUMPI PUSH1 0x0 DUP1 REVERT JUMPDEST POP PUSH2 0xC31 PUSH2 0x294E JUMP JUMPDEST PUSH1 0x40 MLOAD PUSH2 0xC3E SWAP2 SWAP1 PUSH2 0x4299 JUMP JUMPDEST PUSH1 0x40 MLOAD DUP1 SWAP2 SUB SWAP1 RETURN JUMPDEST CALLVALUE DUP1 ISZERO PUSH2 0xC53 JUMPI PUSH1 0x0 DUP1 REVERT JUMPDEST POP PUSH2 0xC6E PUSH1 0x4 DUP1 CALLDATASIZE SUB DUP2 ADD SWAP1 PUSH2 0xC69 SWAP2 SWAP1 PUSH2 0x4307 JUMP JUMPDEST PUSH2 0x2954 JUMP JUMPDEST PUSH1 0x40 MLOAD PUSH2 0xC7B SWAP2 SWAP1 PUSH2 0x487A JUMP JUMPDEST PUSH1 0x40 MLOAD DUP1 SWAP2 SUB SWAP1 RETURN JUMPDEST CALLVALUE DUP1 ISZERO PUSH2 0xC90 JUMPI PUSH1 0x0 DUP1 REVERT JUMPDEST POP PUSH2 0xCAB PUSH1 0x4 DUP1 CALLDATASIZE SUB DUP2 ADD SWAP1 PUSH2 0xCA6 SWAP2 SWAP1 PUSH2 0x489C JUMP JUMPDEST PUSH2 0x2A02 JUMP JUMPDEST PUSH1 0x40 MLOAD PUSH2 0xCB8 SWAP2 SWAP1 PUSH2 0x4089 JUMP JUMPDEST PUSH1 0x40 MLOAD DUP1 SWAP2 SUB SWAP1 RETURN JUMPDEST CALLVALUE DUP1 ISZERO PUSH2 0xCCD JUMPI PUSH1 0x0 DUP1 REVERT JUMPDEST POP PUSH2 0xCD6 PUSH2 0x2A96 JUMP JUMPDEST PUSH1 0x40 MLOAD PUSH2 0xCE3 SWAP2 SWAP1 PUSH2 0x4299 JUMP JUMPDEST PUSH1 0x40 MLOAD DUP1 SWAP2 SUB SWAP1 RETURN JUMPDEST CALLVALUE DUP1 ISZERO PUSH2 0xCF8 JUMPI PUSH1 0x0 DUP1 REVERT JUMPDEST POP PUSH2 0xD01 PUSH2 0x2A9C JUMP JUMPDEST PUSH1 0x40 MLOAD PUSH2 0xD0E SWAP2 SWAP1 PUSH2 0x4089 JUMP JUMPDEST PUSH1 0x40 MLOAD DUP1 SWAP2 SUB SWAP1 RETURN JUMPDEST CALLVALUE DUP1 ISZERO PUSH2 0xD23 JUMPI PUSH1 0x0 DUP1 REVERT JUMPDEST POP PUSH2 0xD3E PUSH1 0x4 DUP1 CALLDATASIZE SUB DUP2 ADD SWAP1 PUSH2 0xD39 SWAP2 SWAP1 PUSH2 0x4307 JUMP JUMPDEST PUSH2 0x2AAF JUMP JUMPDEST STOP JUMPDEST CALLVALUE DUP1 ISZERO PUSH2 0xD4C JUMPI PUSH1 0x0 DUP1 REVERT JUMPDEST POP PUSH2 0xD67 PUSH1 0x4 DUP1 CALLDATASIZE SUB DUP2 ADD SWAP1 PUSH2 0xD62 SWAP2 SWAP1 PUSH2 0x4195 JUMP JUMPDEST PUSH2 0x2BA7 JUMP JUMPDEST STOP JUMPDEST PUSH1 0x0 PUSH2 0xD74 DUP3 PUSH2 0x2C2D JUMP JUMPDEST SWAP1 POP SWAP2 SWAP1 POP JUMP JUMPDEST PUSH1 0x60 PUSH1 0x0 DUP1 SLOAD PUSH2 0xD8A SWAP1 PUSH2 0x490B JUMP JUMPDEST DUP1 PUSH1 0x1F ADD PUSH1 0x20 DUP1 SWAP2 DIV MUL PUSH1 0x20 ADD PUSH1 0x40 MLOAD SWAP1 DUP2 ADD PUSH1 0x40 MSTORE DUP1 SWAP3 SWAP2 SWAP1 DUP2 DUP2 MSTORE PUSH1 0x20 ADD DUP3 DUP1 SLOAD PUSH2 0xDB6 SWAP1 PUSH2 0x490B JUMP JUMPDEST DUP1 ISZERO PUSH2 0xE03 JUMPI DUP1 PUSH1 0x1F LT PUSH2 0xDD8 JUMPI PUSH2 0x100 DUP1 DUP4 SLOAD DIV MUL DUP4 MSTORE SWAP2 PUSH1 0x20 ADD SWAP2 PUSH2 0xE03 JUMP JUMPDEST DUP3 ADD SWAP2 SWAP1 PUSH1 0x0 MSTORE PUSH1 0x20 PUSH1 0x0 KECCAK256 SWAP1 JUMPDEST DUP2 SLOAD DUP2 MSTORE SWAP1 PUSH1 0x1 ADD SWAP1 PUSH1 0x20 ADD DUP1 DUP4 GT PUSH2 0xDE6 JUMPI DUP3 SWAP1 SUB PUSH1 0x1F AND DUP3 ADD SWAP2 JUMPDEST POP POP POP POP POP SWAP1 POP SWAP1 JUMP JUMPDEST PUSH1 0x0 PUSH2 0xE18 DUP3 PUSH2 0x2CA7 JUMP JUMPDEST PUSH2 0xE57 JUMPI PUSH1 0x40 MLOAD PUSH32 0x8C379A000000000000000000000000000000000000000000000000000000000 DUP2 MSTORE PUSH1 0x4 ADD PUSH2 0xE4E SWAP1 PUSH2 0x49AF JUMP JUMPDEST PUSH1 0x40 MLOAD DUP1 SWAP2 SUB SWAP1 REVERT JUMPDEST PUSH1 0x4 PUSH1 0x0 DUP4 DUP2 MSTORE PUSH1 0x20 ADD SWAP1 DUP2 MSTORE PUSH1 0x20 ADD PUSH1 0x0 KECCAK256 PUSH1 0x0 SWAP1 SLOAD SWAP1 PUSH2 0x100 EXP SWAP1 DIV PUSH20 0xFFFFFFFFFFFFFFFFFFFFFFFFFFFFFFFFFFFFFFFF AND SWAP1 POP SWAP2 SWAP1 POP JUMP JUMPDEST PUSH1 0x0 PUSH2 0xE9D DUP3 PUSH2 0x1A90 JUMP JUMPDEST SWAP1 POP DUP1 PUSH20 0xFFFFFFFFFFFFFFFFFFFFFFFFFFFFFFFFFFFFFFFF AND DUP4 PUSH20 0xFFFFFFFFFFFFFFFFFFFFFFFFFFFFFFFFFFFFFFFF AND EQ ISZERO PUSH2 0xF0E JUMPI PUSH1 0x40 MLOAD PUSH32 0x8C379A000000000000000000000000000000000000000000000000000000000 DUP2 MSTORE PUSH1 0x4 ADD PUSH2 0xF05 SWAP1 PUSH2 0x4A41 JUMP JUMPDEST PUSH1 0x40 MLOAD DUP1 SWAP2 SUB SWAP1 REVERT JUMPDEST DUP1 PUSH20 0xFFFFFFFFFFFFFFFFFFFFFFFFFFFFFFFFFFFFFFFF AND PUSH2 0xF2D PUSH2 0x2D13 JUMP JUMPDEST PUSH20 0xFFFFFFFFFFFFFFFFFFFFFFFFFFFFFFFFFFFFFFFF AND EQ DUP1 PUSH2 0xF5C JUMPI POP PUSH2 0xF5B DUP2 PUSH2 0xF56 PUSH2 0x2D13 JUMP JUMPDEST PUSH2 0x2A02 JUMP JUMPDEST JUMPDEST PUSH2 0xF9B JUMPI PUSH1 0x40 MLOAD PUSH32 0x8C379A000000000000000000000000000000000000000000000000000000000 DUP2 MSTORE PUSH1 0x4 ADD PUSH2 0xF92 SWAP1 PUSH2 0x4AD3 JUMP JUMPDEST PUSH1 0x40 MLOAD DUP1 SWAP2 SUB SWAP1 REVERT JUMPDEST PUSH2 0xFA5 DUP4 DUP4 PUSH2 0x2D1B JUMP JUMPDEST POP POP POP JUMP JUMPDEST PUSH2 0xFB2 PUSH2 0x2D13 JUMP JUMPDEST PUSH20 0xFFFFFFFFFFFFFFFFFFFFFFFFFFFFFFFFFFFFFFFF AND PUSH2 0xFD0 PUSH2 0x225E JUMP JUMPDEST PUSH20 0xFFFFFFFFFFFFFFFFFFFFFFFFFFFFFFFFFFFFFFFF AND EQ PUSH2 0x1026 JUMPI PUSH1 0x40 MLOAD PUSH32 0x8C379A000000000000000000000000000000000000000000000000000000000 DUP2 MSTORE PUSH1 0x4 ADD PUSH2 0x101D SWAP1 PUSH2 0x4B3F JUMP JUMPDEST PUSH1 0x40 MLOAD DUP1 SWAP2 SUB SWAP1 REVERT JUMPDEST PUSH1 0xA PUSH1 0x15 SWAP1 SLOAD SWAP1 PUSH2 0x100 EXP SWAP1 DIV PUSH1 0xFF AND ISZERO PUSH1 0xA PUSH1 0x15 PUSH2 0x100 EXP DUP2 SLOAD DUP2 PUSH1 0xFF MUL NOT AND SWAP1 DUP4 ISZERO ISZERO MUL OR SWAP1 SSTORE POP JUMP JUMPDEST PUSH1 0x0 PUSH1 0x8 DUP1 SLOAD SWAP1 POP SWAP1 POP SWAP1 JUMP JUMPDEST PUSH2 0x1067 PUSH2 0x2D13 JUMP JUMPDEST PUSH20 0xFFFFFFFFFFFFFFFFFFFFFFFFFFFFFFFFFFFFFFFF AND PUSH2 0x1085 PUSH2 0x225E JUMP JUMPDEST PUSH20 0xFFFFFFFFFFFFFFFFFFFFFFFFFFFFFFFFFFFFFFFF AND EQ PUSH2 0x10DB JUMPI PUSH1 0x40 MLOAD PUSH32 0x8C379A000000000000000000000000000000000000000000000000000000000 DUP2 MSTORE PUSH1 0x4 ADD PUSH2 0x10D2 SWAP1 PUSH2 0x4B3F JUMP JUMPDEST PUSH1 0x40 MLOAD DUP1 SWAP2 SUB SWAP1 REVERT JUMPDEST PUSH1 0xA PUSH1 0x14 SWAP1 SLOAD SWAP1 PUSH2 0x100 EXP SWAP1 DIV PUSH1 0xFF AND ISZERO PUSH1 0xA PUSH1 0x14 PUSH2 0x100 EXP DUP2 SLOAD DUP2 PUSH1 0xFF MUL NOT AND SWAP1 DUP4 ISZERO ISZERO MUL OR SWAP1 SSTORE POP JUMP JUMPDEST PUSH2 0x110F PUSH2 0x2D13 JUMP JUMPDEST PUSH20 0xFFFFFFFFFFFFFFFFFFFFFFFFFFFFFFFFFFFFFFFF AND PUSH2 0x112D PUSH2 0x225E JUMP JUMPDEST PUSH20 0xFFFFFFFFFFFFFFFFFFFFFFFFFFFFFFFFFFFFFFFF AND EQ PUSH2 0x1183 JUMPI PUSH1 0x40 MLOAD PUSH32 0x8C379A000000000000000000000000000000000000000000000000000000000 DUP2 MSTORE PUSH1 0x4 ADD PUSH2 0x117A SWAP1 PUSH2 0x4B3F JUMP JUMPDEST PUSH1 0x40 MLOAD DUP1 SWAP2 SUB SWAP1 REVERT JUMPDEST DUP1 PUSH1 0xE DUP2 SWAP1 SSTORE POP POP JUMP JUMPDEST PUSH2 0x119E PUSH2 0x1198 PUSH2 0x2D13 JUMP JUMPDEST DUP3 PUSH2 0x2DD4 JUMP JUMPDEST PUSH2 0x11DD JUMPI PUSH1 0x40 MLOAD PUSH32 0x8C379A000000000000000000000000000000000000000000000000000000000 DUP2 MSTORE PUSH1 0x4 ADD PUSH2 0x11D4 SWAP1 PUSH2 0x4BD1 JUMP JUMPDEST PUSH1 0x40 MLOAD DUP1 SWAP2 SUB SWAP1 REVERT JUMPDEST PUSH2 0x11E8 DUP4 DUP4 DUP4 PUSH2 0x2EB2 JUMP JUMPDEST POP POP POP JUMP JUMPDEST PUSH1 0xA PUSH1 0x16 SWAP1 SLOAD SWAP1 PUSH2 0x100 EXP SWAP1 DIV PUSH1 0xFF AND PUSH2 0x123C JUMPI PUSH1 0x40 MLOAD PUSH32 0x8C379A000000000000000000000000000000000000000000000000000000000 DUP2 MSTORE PUSH1 0x4 ADD PUSH2 0x1233 SWAP1 PUSH2 0x4C63 JUMP JUMPDEST PUSH1 0x40 MLOAD DUP1 SWAP2 SUB SWAP1 REVERT JUMPDEST PUSH1 0x11 SLOAD TIMESTAMP LT ISZERO PUSH2 0x1281 JUMPI PUSH1 0x40 MLOAD PUSH32 0x8C379A000000000000000000000000000000000000000000000000000000000 DUP2 MSTORE PUSH1 0x4 ADD PUSH2 0x1278 SWAP1 PUSH2 0x4CCF JUMP JUMPDEST PUSH1 0x40 MLOAD DUP1 SWAP2 SUB SWAP1 REVERT JUMPDEST PUSH1 0xE SLOAD DUP2 PUSH2 0x128D PUSH2 0x1052 JUMP JUMPDEST PUSH2 0x1297 SWAP2 SWAP1 PUSH2 0x4D1E JUMP JUMPDEST GT ISZERO PUSH2 0x12D8 JUMPI PUSH1 0x40 MLOAD PUSH32 0x8C379A000000000000000000000000000000000000000000000000000000000 DUP2 MSTORE PUSH1 0x4 ADD PUSH2 0x12CF SWAP1 PUSH2 0x4DC0 JUMP JUMPDEST PUSH1 0x40 MLOAD DUP1 SWAP2 SUB SWAP1 REVERT JUMPDEST PUSH2 0x3E7 DUP2 PUSH2 0x12E4 PUSH2 0x1052 JUMP JUMPDEST PUSH2 0x12EE SWAP2 SWAP1 PUSH2 0x4D1E JUMP JUMPDEST GT ISZERO PUSH2 0x132F JUMPI PUSH1 0x40 MLOAD PUSH32 0x8C379A000000000000000000000000000000000000000000000000000000000 DUP2 MSTORE PUSH1 0x4 ADD PUSH2 0x1326 SWAP1 PUSH2 0x4E2C JUMP JUMPDEST PUSH1 0x40 MLOAD DUP1 SWAP2 SUB SWAP1 REVERT JUMPDEST PUSH1 0xF SLOAD DUP2 PUSH2 0x133C CALLER PUSH2 0x1C95 JUMP JUMPDEST PUSH2 0x1346 SWAP2 SWAP1 PUSH2 0x4D1E JUMP JUMPDEST GT ISZERO PUSH2 0x1387 JUMPI PUSH1 0x40 MLOAD PUSH32 0x8C379A000000000000000000000000000000000000000000000000000000000 DUP2 MSTORE PUSH1 0x4 ADD PUSH2 0x137E SWAP1 PUSH2 0x4E98 JUMP JUMPDEST PUSH1 0x40 MLOAD DUP1 SWAP2 SUB SWAP1 REVERT JUMPDEST PUSH1 0x10 SLOAD DUP2 GT ISZERO PUSH2 0x13CC JUMPI PUSH1 0x40 MLOAD PUSH32 0x8C379A000000000000000000000000000000000000000000000000000000000 DUP2 MSTORE PUSH1 0x4 ADD PUSH2 0x13C3 SWAP1 PUSH2 0x4F04 JUMP JUMPDEST PUSH1 0x40 MLOAD DUP1 SWAP2 SUB SWAP1 REVERT JUMPDEST CALLVALUE PUSH2 0x13D5 PUSH2 0x1618 JUMP JUMPDEST DUP3 PUSH2 0x13E0 SWAP2 SWAP1 PUSH2 0x4F24 JUMP JUMPDEST GT ISZERO PUSH2 0x1421 JUMPI PUSH1 0x40 MLOAD PUSH32 0x8C379A000000000000000000000000000000000000000000000000000000000 DUP2 MSTORE PUSH1 0x4 ADD PUSH2 0x1418 SWAP1 PUSH2 0x4FCA JUMP JUMPDEST PUSH1 0x40 MLOAD DUP1 SWAP2 SUB SWAP1 REVERT JUMPDEST PUSH2 0x142B DUP2 CALLER PUSH2 0x310E JUMP JUMPDEST PUSH32 0xF00D28232B285F24F2E38415DEB2CEB31069E70D4505838B3911B4F02058502E PUSH2 0x1454 PUSH2 0x1052 JUMP JUMPDEST PUSH1 0x40 MLOAD PUSH2 0x1461 SWAP2 SWAP1 PUSH2 0x4299 JUMP JUMPDEST PUSH1 0x40 MLOAD DUP1 SWAP2 SUB SWAP1 LOG1 POP JUMP JUMPDEST PUSH1 0xA PUSH1 0x16 SWAP1 SLOAD SWAP1 PUSH2 0x100 EXP SWAP1 DIV PUSH1 0xFF AND DUP2 JUMP JUMPDEST PUSH1 0x0 PUSH2 0x148A DUP4 PUSH2 0x1C95 JUMP JUMPDEST DUP3 LT PUSH2 0x14CB JUMPI PUSH1 0x40 MLOAD PUSH32 0x8C379A000000000000000000000000000000000000000000000000000000000 DUP2 MSTORE PUSH1 0x4 ADD PUSH2 0x14C2 SWAP1 PUSH2 0x505C JUMP JUMPDEST PUSH1 0x40 MLOAD DUP1 SWAP2 SUB SWAP1 REVERT JUMPDEST PUSH1 0x6 PUSH1 0x0 DUP5 PUSH20 0xFFFFFFFFFFFFFFFFFFFFFFFFFFFFFFFFFFFFFFFF AND PUSH20 0xFFFFFFFFFFFFFFFFFFFFFFFFFFFFFFFFFFFFFFFF AND DUP2 MSTORE PUSH1 0x20 ADD SWAP1 DUP2 MSTORE PUSH1 0x20 ADD PUSH1 0x0 KECCAK256 PUSH1 0x0 DUP4 DUP2 MSTORE PUSH1 0x20 ADD SWAP1 DUP2 MSTORE PUSH1 0x20 ADD PUSH1 0x0 KECCAK256 SLOAD SWAP1 POP SWAP3 SWAP2 POP POP JUMP JUMPDEST PUSH2 0x3E7 DUP2 JUMP JUMPDEST PUSH1 0x18 PUSH1 0x20 MSTORE DUP1 PUSH1 0x0 MSTORE PUSH1 0x40 PUSH1 0x0 KECCAK256 PUSH1 0x0 SWAP2 POP SLOAD SWAP1 PUSH2 0x100 EXP SWAP1 DIV PUSH1 0xFF AND DUP2 JUMP JUMPDEST PUSH2 0x1552 PUSH2 0x2D13 JUMP JUMPDEST PUSH20 0xFFFFFFFFFFFFFFFFFFFFFFFFFFFFFFFFFFFFFFFF AND PUSH2 0x1570 PUSH2 0x225E JUMP JUMPDEST PUSH20 0xFFFFFFFFFFFFFFFFFFFFFFFFFFFFFFFFFFFFFFFF AND EQ PUSH2 0x15C6 JUMPI PUSH1 0x40 MLOAD PUSH32 0x8C379A000000000000000000000000000000000000000000000000000000000 DUP2 MSTORE PUSH1 0x4 ADD PUSH2 0x15BD SWAP1 PUSH2 0x4B3F JUMP JUMPDEST PUSH1 0x40 MLOAD DUP1 SWAP2 SUB SWAP1 REVERT JUMPDEST PUSH1 0xA PUSH1 0x16 SWAP1 SLOAD SWAP1 PUSH2 0x100 EXP SWAP1 DIV PUSH1 0xFF AND ISZERO PUSH1 0xA PUSH1 0x16 PUSH2 0x100 EXP DUP2 SLOAD DUP2 PUSH1 0xFF MUL NOT AND SWAP1 DUP4 ISZERO ISZERO MUL OR SWAP1 SSTORE POP JUMP JUMPDEST PUSH2 0x160D DUP4 DUP4 DUP4 PUSH1 0x40 MLOAD DUP1 PUSH1 0x20 ADD PUSH1 0x40 MSTORE DUP1 PUSH1 0x0 DUP2 MSTORE POP PUSH2 0x27D5 JUMP JUMPDEST POP POP POP JUMP JUMPDEST PUSH1 0x15 SLOAD DUP2 JUMP JUMPDEST PUSH1 0x0 PUSH1 0xA PUSH1 0x16 SWAP1 SLOAD SWAP1 PUSH2 0x100 EXP SWAP1 DIV PUSH1 0xFF AND PUSH2 0x1637 JUMPI PUSH1 0x0 SWAP1 POP PUSH2 0x16B8 JUMP JUMPDEST PUSH1 0x11 SLOAD TIMESTAMP LT ISZERO PUSH2 0x164B JUMPI PUSH1 0x13 SLOAD SWAP1 POP PUSH2 0x16B8 JUMP JUMPDEST PUSH1 0x0 PUSH1 0x12 SLOAD PUSH1 0x11 SLOAD TIMESTAMP PUSH2 0x165E SWAP2 SWAP1 PUSH2 0x507C JUMP JUMPDEST PUSH2 0x1668 SWAP2 SWAP1 PUSH2 0x50DF JUMP JUMPDEST SWAP1 POP PUSH1 0x16 SLOAD DUP2 GT ISZERO PUSH2 0x167A JUMPI PUSH1 0x16 SLOAD SWAP1 POP JUMPDEST PUSH1 0x15 SLOAD DUP2 PUSH2 0x1688 SWAP2 SWAP1 PUSH2 0x4F24 JUMP JUMPDEST PUSH1 0x13 SLOAD GT PUSH2 0x1698 JUMPI PUSH1 0x14 SLOAD PUSH2 0x16B4 JUMP JUMPDEST PUSH1 0x15 SLOAD DUP2 PUSH2 0x16A6 SWAP2 SWAP1 PUSH2 0x4F24 JUMP JUMPDEST PUSH1 0x13 SLOAD PUSH2 0x16B3 SWAP2 SWAP1 PUSH2 0x507C JUMP JUMPDEST JUMPDEST SWAP2 POP POP JUMPDEST SWAP1 JUMP JUMPDEST PUSH1 0x0 PUSH2 0x16C5 PUSH2 0x1052 JUMP JUMPDEST DUP3 LT PUSH2 0x1706 JUMPI PUSH1 0x40 MLOAD PUSH32 0x8C379A000000000000000000000000000000000000000000000000000000000 DUP2 MSTORE PUSH1 0x4 ADD PUSH2 0x16FD SWAP1 PUSH2 0x5182 JUMP JUMPDEST PUSH1 0x40 MLOAD DUP1 SWAP2 SUB SWAP1 REVERT JUMPDEST PUSH1 0x8 DUP3 DUP2 SLOAD DUP2 LT PUSH2 0x171A JUMPI PUSH2 0x1719 PUSH2 0x51A2 JUMP JUMPDEST JUMPDEST SWAP1 PUSH1 0x0 MSTORE PUSH1 0x20 PUSH1 0x0 KECCAK256 ADD SLOAD SWAP1 POP SWAP2 SWAP1 POP JUMP JUMPDEST PUSH2 0x1734 PUSH2 0x2D13 JUMP JUMPDEST PUSH20 0xFFFFFFFFFFFFFFFFFFFFFFFFFFFFFFFFFFFFFFFF AND PUSH2 0x1752 PUSH2 0x225E JUMP JUMPDEST PUSH20 0xFFFFFFFFFFFFFFFFFFFFFFFFFFFFFFFFFFFFFFFF AND EQ PUSH2 0x17A8 JUMPI PUSH1 0x40 MLOAD PUSH32 0x8C379A000000000000000000000000000000000000000000000000000000000 DUP2 MSTORE PUSH1 0x4 ADD PUSH2 0x179F SWAP1 PUSH2 0x4B3F JUMP JUMPDEST PUSH1 0x40 MLOAD DUP1 SWAP2 SUB SWAP1 REVERT JUMPDEST PUSH1 0x0 SELFBALANCE SWAP1 POP DUP2 PUSH20 0xFFFFFFFFFFFFFFFFFFFFFFFFFFFFFFFFFFFFFFFF AND PUSH2 0x8FC DUP3 SWAP1 DUP2 ISZERO MUL SWAP1 PUSH1 0x40 MLOAD PUSH1 0x0 PUSH1 0x40 MLOAD DUP1 DUP4 SUB DUP2 DUP6 DUP9 DUP9 CALL SWAP4 POP POP POP POP ISZERO DUP1 ISZERO PUSH2 0x17F3 JUMPI RETURNDATASIZE PUSH1 0x0 DUP1 RETURNDATACOPY RETURNDATASIZE PUSH1 0x0 REVERT JUMPDEST POP POP POP JUMP JUMPDEST PUSH2 0x1800 PUSH2 0x2D13 JUMP JUMPDEST PUSH20 0xFFFFFFFFFFFFFFFFFFFFFFFFFFFFFFFFFFFFFFFF AND PUSH2 0x181E PUSH2 0x225E JUMP JUMPDEST PUSH20 0xFFFFFFFFFFFFFFFFFFFFFFFFFFFFFFFFFFFFFFFF AND EQ PUSH2 0x1874 JUMPI PUSH1 0x40 MLOAD PUSH32 0x8C379A000000000000000000000000000000000000000000000000000000000 DUP2 MSTORE PUSH1 0x4 ADD PUSH2 0x186B SWAP1 PUSH2 0x4B3F JUMP JUMPDEST PUSH1 0x40 MLOAD DUP1 SWAP2 SUB SWAP1 REVERT JUMPDEST DUP1 PUSH1 0x10 DUP2 SWAP1 SSTORE POP POP JUMP JUMPDEST PUSH1 0xE SLOAD DUP2 JUMP JUMPDEST PUSH2 0x188C PUSH2 0x2D13 JUMP JUMPDEST PUSH20 0xFFFFFFFFFFFFFFFFFFFFFFFFFFFFFFFFFFFFFFFF AND PUSH2 0x18AA PUSH2 0x225E JUMP JUMPDEST PUSH20 0xFFFFFFFFFFFFFFFFFFFFFFFFFFFFFFFFFFFFFFFF AND EQ PUSH2 0x1900 JUMPI PUSH1 0x40 MLOAD PUSH32 0x8C379A000000000000000000000000000000000000000000000000000000000 DUP2 MSTORE PUSH1 0x4 ADD PUSH2 0x18F7 SWAP1 PUSH2 0x4B3F JUMP JUMPDEST PUSH1 0x40 MLOAD DUP1 SWAP2 SUB SWAP1 REVERT JUMPDEST DUP1 PUSH1 0x17 SWAP1 DUP1 MLOAD SWAP1 PUSH1 0x20 ADD SWAP1 PUSH2 0x1916 SWAP3 SWAP2 SWAP1 PUSH2 0x3F32 JUMP JUMPDEST POP POP JUMP JUMPDEST PUSH2 0x1922 PUSH2 0x2D13 JUMP JUMPDEST PUSH20 0xFFFFFFFFFFFFFFFFFFFFFFFFFFFFFFFFFFFFFFFF AND PUSH2 0x1940 PUSH2 0x225E JUMP JUMPDEST PUSH20 0xFFFFFFFFFFFFFFFFFFFFFFFFFFFFFFFFFFFFFFFF AND EQ PUSH2 0x1996 JUMPI PUSH1 0x40 MLOAD PUSH32 0x8C379A000000000000000000000000000000000000000000000000000000000 DUP2 MSTORE PUSH1 0x4 ADD PUSH2 0x198D SWAP1 PUSH2 0x4B3F JUMP JUMPDEST PUSH1 0x40 MLOAD DUP1 SWAP2 SUB SWAP1 REVERT JUMPDEST PUSH1 0xE SLOAD DUP3 PUSH2 0x19A2 PUSH2 0x1052 JUMP JUMPDEST PUSH2 0x19AC SWAP2 SWAP1 PUSH2 0x4D1E JUMP JUMPDEST GT ISZERO PUSH2 0x19ED JUMPI PUSH1 0x40 MLOAD PUSH32 0x8C379A000000000000000000000000000000000000000000000000000000000 DUP2 MSTORE PUSH1 0x4 ADD PUSH2 0x19E4 SWAP1 PUSH2 0x5243 JUMP JUMPDEST PUSH1 0x40 MLOAD DUP1 SWAP2 SUB SWAP1 REVERT JUMPDEST PUSH2 0x3E7 DUP3 PUSH2 0x19F9 PUSH2 0x1052 JUMP JUMPDEST PUSH2 0x1A03 SWAP2 SWAP1 PUSH2 0x4D1E JUMP JUMPDEST GT ISZERO PUSH2 0x1A44 JUMPI PUSH1 0x40 MLOAD PUSH32 0x8C379A000000000000000000000000000000000000000000000000000000000 DUP2 MSTORE PUSH1 0x4 ADD PUSH2 0x1A3B SWAP1 PUSH2 0x52D5 JUMP JUMPDEST PUSH1 0x40 MLOAD DUP1 SWAP2 SUB SWAP1 REVERT JUMPDEST PUSH2 0x1A4E DUP3 DUP3 PUSH2 0x310E JUMP JUMPDEST PUSH32 0xF00D28232B285F24F2E38415DEB2CEB31069E70D4505838B3911B4F02058502E PUSH2 0x1A77 PUSH2 0x1052 JUMP JUMPDEST PUSH1 0x40 MLOAD PUSH2 0x1A84 SWAP2 SWAP1 PUSH2 0x4299 JUMP JUMPDEST PUSH1 0x40 MLOAD DUP1 SWAP2 SUB SWAP1 LOG1 POP POP JUMP JUMPDEST PUSH1 0x0 DUP1 PUSH1 0x2 PUSH1 0x0 DUP5 DUP2 MSTORE PUSH1 0x20 ADD SWAP1 DUP2 MSTORE PUSH1 0x20 ADD PUSH1 0x0 KECCAK256 PUSH1 0x0 SWAP1 SLOAD SWAP1 PUSH2 0x100 EXP SWAP1 DIV PUSH20 0xFFFFFFFFFFFFFFFFFFFFFFFFFFFFFFFFFFFFFFFF AND SWAP1 POP PUSH1 0x0 PUSH20 0xFFFFFFFFFFFFFFFFFFFFFFFFFFFFFFFFFFFFFFFF AND DUP2 PUSH20 0xFFFFFFFFFFFFFFFFFFFFFFFFFFFFFFFFFFFFFFFF AND EQ ISZERO PUSH2 0x1B39 JUMPI PUSH1 0x40 MLOAD PUSH32 0x8C379A000000000000000000000000000000000000000000000000000000000 DUP2 MSTORE PUSH1 0x4 ADD PUSH2 0x1B30 SWAP1 PUSH2 0x5367 JUMP JUMPDEST PUSH1 0x40 MLOAD DUP1 SWAP2 SUB SWAP1 REVERT JUMPDEST DUP1 SWAP2 POP POP SWAP2 SWAP1 POP JUMP JUMPDEST PUSH2 0x1B4A PUSH2 0x2D13 JUMP JUMPDEST PUSH20 0xFFFFFFFFFFFFFFFFFFFFFFFFFFFFFFFFFFFFFFFF AND PUSH2 0x1B68 PUSH2 0x225E JUMP JUMPDEST PUSH20 0xFFFFFFFFFFFFFFFFFFFFFFFFFFFFFFFFFFFFFFFF AND EQ PUSH2 0x1BBE JUMPI PUSH1 0x40 MLOAD PUSH32 0x8C379A000000000000000000000000000000000000000000000000000000000 DUP2 MSTORE PUSH1 0x4 ADD PUSH2 0x1BB5 SWAP1 PUSH2 0x4B3F JUMP JUMPDEST PUSH1 0x40 MLOAD DUP1 SWAP2 SUB SWAP1 REVERT JUMPDEST DUP1 PUSH1 0xD DUP2 SWAP1 SSTORE POP POP JUMP JUMPDEST PUSH1 0xB SLOAD DUP2 JUMP JUMPDEST PUSH1 0xC SLOAD DUP2 JUMP JUMPDEST PUSH2 0x1BDC PUSH2 0x2D13 JUMP JUMPDEST PUSH20 0xFFFFFFFFFFFFFFFFFFFFFFFFFFFFFFFFFFFFFFFF AND PUSH2 0x1BFA PUSH2 0x225E JUMP JUMPDEST PUSH20 0xFFFFFFFFFFFFFFFFFFFFFFFFFFFFFFFFFFFFFFFF AND EQ PUSH2 0x1C50 JUMPI PUSH1 0x40 MLOAD PUSH32 0x8C379A000000000000000000000000000000000000000000000000000000000 DUP2 MSTORE PUSH1 0x4 ADD PUSH2 0x1C47 SWAP1 PUSH2 0x4B3F JUMP JUMPDEST PUSH1 0x40 MLOAD DUP1 SWAP2 SUB SWAP1 REVERT JUMPDEST DUP6 PUSH1 0x11 DUP2 SWAP1 SSTORE POP DUP5 PUSH1 0x12 DUP2 SWAP1 SSTORE POP DUP4 PUSH1 0x13 DUP2 SWAP1 SSTORE POP DUP3 PUSH1 0x14 DUP2 SWAP1 SSTORE POP DUP2 PUSH1 0x15 DUP2 SWAP1 SSTORE POP DUP1 PUSH1 0x16 DUP2 SWAP1 SSTORE POP POP POP POP POP POP POP JUMP JUMPDEST PUSH1 0xA PUSH1 0x15 SWAP1 SLOAD SWAP1 PUSH2 0x100 EXP SWAP1 DIV PUSH1 0xFF AND DUP2 JUMP JUMPDEST PUSH1 0x0 DUP1 PUSH20 0xFFFFFFFFFFFFFFFFFFFFFFFFFFFFFFFFFFFFFFFF AND DUP3 PUSH20 0xFFFFFFFFFFFFFFFFFFFFFFFFFFFFFFFFFFFFFFFF AND EQ ISZERO PUSH2 0x1D06 JUMPI PUSH1 0x40 MLOAD PUSH32 0x8C379A000000000000000000000000000000000000000000000000000000000 DUP2 MSTORE PUSH1 0x4 ADD PUSH2 0x1CFD SWAP1 PUSH2 0x53F9 JUMP JUMPDEST PUSH1 0x40 MLOAD DUP1 SWAP2 SUB SWAP1 REVERT JUMPDEST PUSH1 0x3 PUSH1 0x0 DUP4 PUSH20 0xFFFFFFFFFFFFFFFFFFFFFFFFFFFFFFFFFFFFFFFF AND PUSH20 0xFFFFFFFFFFFFFFFFFFFFFFFFFFFFFFFFFFFFFFFF AND DUP2 MSTORE PUSH1 0x20 ADD SWAP1 DUP2 MSTORE PUSH1 0x20 ADD PUSH1 0x0 KECCAK256 SLOAD SWAP1 POP SWAP2 SWAP1 POP JUMP JUMPDEST PUSH2 0x1D55 PUSH2 0x2D13 JUMP JUMPDEST PUSH20 0xFFFFFFFFFFFFFFFFFFFFFFFFFFFFFFFFFFFFFFFF AND PUSH2 0x1D73 PUSH2 0x225E JUMP JUMPDEST PUSH20 0xFFFFFFFFFFFFFFFFFFFFFFFFFFFFFFFFFFFFFFFF AND EQ PUSH2 0x1DC9 JUMPI PUSH1 0x40 MLOAD PUSH32 0x8C379A000000000000000000000000000000000000000000000000000000000 DUP2 MSTORE PUSH1 0x4 ADD PUSH2 0x1DC0 SWAP1 PUSH2 0x4B3F JUMP JUMPDEST PUSH1 0x40 MLOAD DUP1 SWAP2 SUB SWAP1 REVERT JUMPDEST PUSH2 0x1DD3 PUSH1 0x0 PUSH2 0x3153 JUMP JUMPDEST JUMP JUMPDEST PUSH1 0xF SLOAD DUP2 JUMP JUMPDEST PUSH1 0x10 SLOAD DUP2 JUMP JUMPDEST PUSH2 0x1DE9 PUSH2 0x2D13 JUMP JUMPDEST PUSH20 0xFFFFFFFFFFFFFFFFFFFFFFFFFFFFFFFFFFFFFFFF AND PUSH2 0x1E07 PUSH2 0x225E JUMP JUMPDEST PUSH20 0xFFFFFFFFFFFFFFFFFFFFFFFFFFFFFFFFFFFFFFFF AND EQ PUSH2 0x1E5D JUMPI PUSH1 0x40 MLOAD PUSH32 0x8C379A000000000000000000000000000000000000000000000000000000000 DUP2 MSTORE PUSH1 0x4 ADD PUSH2 0x1E54 SWAP1 PUSH2 0x4B3F JUMP JUMPDEST PUSH1 0x40 MLOAD DUP1 SWAP2 SUB SWAP1 REVERT JUMPDEST PUSH1 0x0 JUMPDEST DUP3 DUP3 SWAP1 POP DUP2 LT ISZERO PUSH2 0x1EFD JUMPI PUSH1 0x1 PUSH1 0x18 PUSH1 0x0 DUP6 DUP6 DUP6 DUP2 DUP2 LT PUSH2 0x1E84 JUMPI PUSH2 0x1E83 PUSH2 0x51A2 JUMP JUMPDEST JUMPDEST SWAP1 POP PUSH1 0x20 MUL ADD PUSH1 0x20 DUP2 ADD SWAP1 PUSH2 0x1E99 SWAP2 SWAP1 PUSH2 0x4307 JUMP JUMPDEST PUSH20 0xFFFFFFFFFFFFFFFFFFFFFFFFFFFFFFFFFFFFFFFF AND PUSH20 0xFFFFFFFFFFFFFFFFFFFFFFFFFFFFFFFFFFFFFFFF AND DUP2 MSTORE PUSH1 0x20 ADD SWAP1 DUP2 MSTORE PUSH1 0x20 ADD PUSH1 0x0 KECCAK256 PUSH1 0x0 PUSH2 0x100 EXP DUP2 SLOAD DUP2 PUSH1 0xFF MUL NOT AND SWAP1 DUP4 ISZERO ISZERO MUL OR SWAP1 SSTORE POP DUP1 DUP1 PUSH2 0x1EF5 SWAP1 PUSH2 0x5419 JUMP JUMPDEST SWAP2 POP POP PUSH2 0x1E60 JUMP JUMPDEST POP POP POP JUMP JUMPDEST PUSH1 0xA PUSH1 0x15 SWAP1 SLOAD SWAP1 PUSH2 0x100 EXP SWAP1 DIV PUSH1 0xFF AND PUSH2 0x1F51 JUMPI PUSH1 0x40 MLOAD PUSH32 0x8C379A000000000000000000000000000000000000000000000000000000000 DUP2 MSTORE PUSH1 0x4 ADD PUSH2 0x1F48 SWAP1 PUSH2 0x54D4 JUMP JUMPDEST PUSH1 0x40 MLOAD DUP1 SWAP2 SUB SWAP1 REVERT JUMPDEST PUSH1 0xE SLOAD DUP2 PUSH2 0x1F5D PUSH2 0x1052 JUMP JUMPDEST PUSH2 0x1F67 SWAP2 SWAP1 PUSH2 0x4D1E JUMP JUMPDEST GT ISZERO PUSH2 0x1FA8 JUMPI PUSH1 0x40 MLOAD PUSH32 0x8C379A000000000000000000000000000000000000000000000000000000000 DUP2 MSTORE PUSH1 0x4 ADD PUSH2 0x1F9F SWAP1 PUSH2 0x5540 JUMP JUMPDEST PUSH1 0x40 MLOAD DUP1 SWAP2 SUB SWAP1 REVERT JUMPDEST PUSH2 0x3E7 DUP2 PUSH2 0x1FB4 PUSH2 0x1052 JUMP JUMPDEST PUSH2 0x1FBE SWAP2 SWAP1 PUSH2 0x4D1E JUMP JUMPDEST GT ISZERO PUSH2 0x1FFF JUMPI PUSH1 0x40 MLOAD PUSH32 0x8C379A000000000000000000000000000000000000000000000000000000000 DUP2 MSTORE PUSH1 0x4 ADD PUSH2 0x1FF6 SWAP1 PUSH2 0x55AC JUMP JUMPDEST PUSH1 0x40 MLOAD DUP1 SWAP2 SUB SWAP1 REVERT JUMPDEST PUSH1 0xF SLOAD DUP2 PUSH2 0x200C CALLER PUSH2 0x1C95 JUMP JUMPDEST PUSH2 0x2016 SWAP2 SWAP1 PUSH2 0x4D1E JUMP JUMPDEST GT ISZERO PUSH2 0x2057 JUMPI PUSH1 0x40 MLOAD PUSH32 0x8C379A000000000000000000000000000000000000000000000000000000000 DUP2 MSTORE PUSH1 0x4 ADD PUSH2 0x204E SWAP1 PUSH2 0x5618 JUMP JUMPDEST PUSH1 0x40 MLOAD DUP1 SWAP2 SUB SWAP1 REVERT JUMPDEST PUSH1 0x10 SLOAD DUP2 GT ISZERO PUSH2 0x209C JUMPI PUSH1 0x40 MLOAD PUSH32 0x8C379A000000000000000000000000000000000000000000000000000000000 DUP2 MSTORE PUSH1 0x4 ADD PUSH2 0x2093 SWAP1 PUSH2 0x5684 JUMP JUMPDEST PUSH1 0x40 MLOAD DUP1 SWAP2 SUB SWAP1 REVERT JUMPDEST CALLVALUE PUSH1 0xB SLOAD DUP3 PUSH2 0x20AB SWAP2 SWAP1 PUSH2 0x4F24 JUMP JUMPDEST GT ISZERO PUSH2 0x20EC JUMPI PUSH1 0x40 MLOAD PUSH32 0x8C379A000000000000000000000000000000000000000000000000000000000 DUP2 MSTORE PUSH1 0x4 ADD PUSH2 0x20E3 SWAP1 PUSH2 0x4FCA JUMP JUMPDEST PUSH1 0x40 MLOAD DUP1 SWAP2 SUB SWAP1 REVERT JUMPDEST PUSH2 0x20F6 DUP2 CALLER PUSH2 0x310E JUMP JUMPDEST PUSH32 0xF00D28232B285F24F2E38415DEB2CEB31069E70D4505838B3911B4F02058502E PUSH2 0x211F PUSH2 0x1052 JUMP JUMPDEST PUSH1 0x40 MLOAD PUSH2 0x212C SWAP2 SWAP1 PUSH2 0x4299 JUMP JUMPDEST PUSH1 0x40 MLOAD DUP1 SWAP2 SUB SWAP1 LOG1 POP JUMP JUMPDEST PUSH1 0xD SLOAD DUP2 JUMP JUMPDEST PUSH2 0x2145 PUSH2 0x2D13 JUMP JUMPDEST PUSH20 0xFFFFFFFFFFFFFFFFFFFFFFFFFFFFFFFFFFFFFFFF AND PUSH2 0x2163 PUSH2 0x225E JUMP JUMPDEST PUSH20 0xFFFFFFFFFFFFFFFFFFFFFFFFFFFFFFFFFFFFFFFF AND EQ PUSH2 0x21B9 JUMPI PUSH1 0x40 MLOAD PUSH32 0x8C379A000000000000000000000000000000000000000000000000000000000 DUP2 MSTORE PUSH1 0x4 ADD PUSH2 0x21B0 SWAP1 PUSH2 0x4B3F JUMP JUMPDEST PUSH1 0x40 MLOAD DUP1 SWAP2 SUB SWAP1 REVERT JUMPDEST PUSH1 0x0 JUMPDEST DUP3 DUP3 SWAP1 POP DUP2 LT ISZERO PUSH2 0x2259 JUMPI PUSH1 0x1 PUSH1 0x19 PUSH1 0x0 DUP6 DUP6 DUP6 DUP2 DUP2 LT PUSH2 0x21E0 JUMPI PUSH2 0x21DF PUSH2 0x51A2 JUMP JUMPDEST JUMPDEST SWAP1 POP PUSH1 0x20 MUL ADD PUSH1 0x20 DUP2 ADD SWAP1 PUSH2 0x21F5 SWAP2 SWAP1 PUSH2 0x4307 JUMP JUMPDEST PUSH20 0xFFFFFFFFFFFFFFFFFFFFFFFFFFFFFFFFFFFFFFFF AND PUSH20 0xFFFFFFFFFFFFFFFFFFFFFFFFFFFFFFFFFFFFFFFF AND DUP2 MSTORE PUSH1 0x20 ADD SWAP1 DUP2 MSTORE PUSH1 0x20 ADD PUSH1 0x0 KECCAK256 PUSH1 0x0 PUSH2 0x100 EXP DUP2 SLOAD DUP2 PUSH1 0xFF MUL NOT AND SWAP1 DUP4 ISZERO ISZERO MUL OR SWAP1 SSTORE POP DUP1 DUP1 PUSH2 0x2251 SWAP1 PUSH2 0x5419 JUMP JUMPDEST SWAP2 POP POP PUSH2 0x21BC JUMP JUMPDEST POP POP POP JUMP JUMPDEST PUSH1 0x0 PUSH1 0xA PUSH1 0x0 SWAP1 SLOAD SWAP1 PUSH2 0x100 EXP SWAP1 DIV PUSH20 0xFFFFFFFFFFFFFFFFFFFFFFFFFFFFFFFFFFFFFFFF AND SWAP1 POP SWAP1 JUMP JUMPDEST PUSH1 0x12 SLOAD DUP2 JUMP JUMPDEST PUSH1 0x60 PUSH1 0x1 DUP1 SLOAD PUSH2 0x229D SWAP1 PUSH2 0x490B JUMP JUMPDEST DUP1 PUSH1 0x1F ADD PUSH1 0x20 DUP1 SWAP2 DIV MUL PUSH1 0x20 ADD PUSH1 0x40 MLOAD SWAP1 DUP2 ADD PUSH1 0x40 MSTORE DUP1 SWAP3 SWAP2 SWAP1 DUP2 DUP2 MSTORE PUSH1 0x20 ADD DUP3 DUP1 SLOAD PUSH2 0x22C9 SWAP1 PUSH2 0x490B JUMP JUMPDEST DUP1 ISZERO PUSH2 0x2316 JUMPI DUP1 PUSH1 0x1F LT PUSH2 0x22EB JUMPI PUSH2 0x100 DUP1 DUP4 SLOAD DIV MUL DUP4 MSTORE SWAP2 PUSH1 0x20 ADD SWAP2 PUSH2 0x2316 JUMP JUMPDEST DUP3 ADD SWAP2 SWAP1 PUSH1 0x0 MSTORE PUSH1 0x20 PUSH1 0x0 KECCAK256 SWAP1 JUMPDEST DUP2 SLOAD DUP2 MSTORE SWAP1 PUSH1 0x1 ADD SWAP1 PUSH1 0x20 ADD DUP1 DUP4 GT PUSH2 0x22F9 JUMPI DUP3 SWAP1 SUB PUSH1 0x1F AND DUP3 ADD SWAP2 JUMPDEST POP POP POP POP POP SWAP1 POP SWAP1 JUMP JUMPDEST PUSH1 0x16 SLOAD DUP2 JUMP JUMPDEST PUSH2 0x232E PUSH2 0x2D13 JUMP JUMPDEST PUSH20 0xFFFFFFFFFFFFFFFFFFFFFFFFFFFFFFFFFFFFFFFF AND PUSH2 0x234C PUSH2 0x225E JUMP JUMPDEST PUSH20 0xFFFFFFFFFFFFFFFFFFFFFFFFFFFFFFFFFFFFFFFF AND EQ PUSH2 0x23A2 JUMPI PUSH1 0x40 MLOAD PUSH32 0x8C379A000000000000000000000000000000000000000000000000000000000 DUP2 MSTORE PUSH1 0x4 ADD PUSH2 0x2399 SWAP1 PUSH2 0x4B3F JUMP JUMPDEST PUSH1 0x40 MLOAD DUP1 SWAP2 SUB SWAP1 REVERT JUMPDEST DUP1 PUSH1 0xF DUP2 SWAP1 SSTORE POP POP JUMP JUMPDEST PUSH1 0x14 SLOAD DUP2 JUMP JUMPDEST PUSH2 0x23C4 PUSH2 0x23BD PUSH2 0x2D13 JUMP JUMPDEST DUP4 DUP4 PUSH2 0x3219 JUMP JUMPDEST POP POP JUMP JUMPDEST PUSH1 0xA PUSH1 0x14 SWAP1 SLOAD SWAP1 PUSH2 0x100 EXP SWAP1 DIV PUSH1 0xFF AND PUSH2 0x2417 JUMPI PUSH1 0x40 MLOAD PUSH32 0x8C379A000000000000000000000000000000000000000000000000000000000 DUP2 MSTORE PUSH1 0x4 ADD PUSH2 0x240E SWAP1 PUSH2 0x54D4 JUMP JUMPDEST PUSH1 0x40 MLOAD DUP1 SWAP2 SUB SWAP1 REVERT JUMPDEST PUSH1 0xE SLOAD DUP2 PUSH2 0x2423 PUSH2 0x1052 JUMP JUMPDEST PUSH2 0x242D SWAP2 SWAP1 PUSH2 0x4D1E JUMP JUMPDEST GT ISZERO PUSH2 0x246E JUMPI PUSH1 0x40 MLOAD PUSH32 0x8C379A000000000000000000000000000000000000000000000000000000000 DUP2 MSTORE PUSH1 0x4 ADD PUSH2 0x2465 SWAP1 PUSH2 0x5540 JUMP JUMPDEST PUSH1 0x40 MLOAD DUP1 SWAP2 SUB SWAP1 REVERT JUMPDEST PUSH2 0x3E7 DUP2 PUSH2 0x247A PUSH2 0x1052 JUMP JUMPDEST PUSH2 0x2484 SWAP2 SWAP1 PUSH2 0x4D1E JUMP JUMPDEST GT ISZERO PUSH2 0x24C5 JUMPI PUSH1 0x40 MLOAD PUSH32 0x8C379A000000000000000000000000000000000000000000000000000000000 DUP2 MSTORE PUSH1 0x4 ADD PUSH2 0x24BC SWAP1 PUSH2 0x55AC JUMP JUMPDEST PUSH1 0x40 MLOAD DUP1 SWAP2 SUB SWAP1 REVERT JUMPDEST PUSH1 0xF SLOAD DUP2 PUSH2 0x24D2 CALLER PUSH2 0x1C95 JUMP JUMPDEST PUSH2 0x24DC SWAP2 SWAP1 PUSH2 0x4D1E JUMP JUMPDEST GT ISZERO PUSH2 0x251D JUMPI PUSH1 0x40 MLOAD PUSH32 0x8C379A000000000000000000000000000000000000000000000000000000000 DUP2 MSTORE PUSH1 0x4 ADD PUSH2 0x2514 SWAP1 PUSH2 0x5618 JUMP JUMPDEST PUSH1 0x40 MLOAD DUP1 SWAP2 SUB SWAP1 REVERT JUMPDEST PUSH1 0x10 SLOAD DUP2 GT ISZERO PUSH2 0x2562 JUMPI PUSH1 0x40 MLOAD PUSH32 0x8C379A000000000000000000000000000000000000000000000000000000000 DUP2 MSTORE PUSH1 0x4 ADD PUSH2 0x2559 SWAP1 PUSH2 0x5684 JUMP JUMPDEST PUSH1 0x40 MLOAD DUP1 SWAP2 SUB SWAP1 REVERT JUMPDEST PUSH1 0x0 PUSH1 0xB SLOAD SWAP1 POP PUSH1 0x1 ISZERO ISZERO PUSH1 0x19 PUSH1 0x0 CALLER PUSH20 0xFFFFFFFFFFFFFFFFFFFFFFFFFFFFFFFFFFFFFFFF AND PUSH20 0xFFFFFFFFFFFFFFFFFFFFFFFFFFFFFFFFFFFFFFFF AND DUP2 MSTORE PUSH1 0x20 ADD SWAP1 DUP2 MSTORE PUSH1 0x20 ADD PUSH1 0x0 KECCAK256 PUSH1 0x0 SWAP1 SLOAD SWAP1 PUSH2 0x100 EXP SWAP1 DIV PUSH1 0xFF AND ISZERO ISZERO EQ ISZERO PUSH2 0x2624 JUMPI PUSH1 0xD SLOAD SWAP1 POP PUSH1 0x0 PUSH1 0x19 PUSH1 0x0 CALLER PUSH20 0xFFFFFFFFFFFFFFFFFFFFFFFFFFFFFFFFFFFFFFFF AND PUSH20 0xFFFFFFFFFFFFFFFFFFFFFFFFFFFFFFFFFFFFFFFF AND DUP2 MSTORE PUSH1 0x20 ADD SWAP1 DUP2 MSTORE PUSH1 0x20 ADD PUSH1 0x0 KECCAK256 PUSH1 0x0 PUSH2 0x100 EXP DUP2 SLOAD DUP2 PUSH1 0xFF MUL NOT AND SWAP1 DUP4 ISZERO ISZERO MUL OR SWAP1 SSTORE POP PUSH2 0x271B JUMP JUMPDEST PUSH1 0x1 ISZERO ISZERO PUSH1 0x18 PUSH1 0x0 CALLER PUSH20 0xFFFFFFFFFFFFFFFFFFFFFFFFFFFFFFFFFFFFFFFF AND PUSH20 0xFFFFFFFFFFFFFFFFFFFFFFFFFFFFFFFFFFFFFFFF AND DUP2 MSTORE PUSH1 0x20 ADD SWAP1 DUP2 MSTORE PUSH1 0x20 ADD PUSH1 0x0 KECCAK256 PUSH1 0x0 SWAP1 SLOAD SWAP1 PUSH2 0x100 EXP SWAP1 DIV PUSH1 0xFF AND ISZERO ISZERO EQ ISZERO PUSH2 0x26DF JUMPI PUSH1 0xC SLOAD SWAP1 POP PUSH1 0x0 PUSH1 0x18 PUSH1 0x0 CALLER PUSH20 0xFFFFFFFFFFFFFFFFFFFFFFFFFFFFFFFFFFFFFFFF AND PUSH20 0xFFFFFFFFFFFFFFFFFFFFFFFFFFFFFFFFFFFFFFFF AND DUP2 MSTORE PUSH1 0x20 ADD SWAP1 DUP2 MSTORE PUSH1 0x20 ADD PUSH1 0x0 KECCAK256 PUSH1 0x0 PUSH2 0x100 EXP DUP2 SLOAD DUP2 PUSH1 0xFF MUL NOT AND SWAP1 DUP4 ISZERO ISZERO MUL OR SWAP1 SSTORE POP PUSH2 0x271A JUMP JUMPDEST PUSH1 0x40 MLOAD PUSH32 0x8C379A000000000000000000000000000000000000000000000000000000000 DUP2 MSTORE PUSH1 0x4 ADD PUSH2 0x2711 SWAP1 PUSH2 0x56F0 JUMP JUMPDEST PUSH1 0x40 MLOAD DUP1 SWAP2 SUB SWAP1 REVERT JUMPDEST JUMPDEST CALLVALUE DUP2 DUP4 PUSH2 0x2728 SWAP2 SWAP1 PUSH2 0x4F24 JUMP JUMPDEST GT ISZERO PUSH2 0x2769 JUMPI PUSH1 0x40 MLOAD PUSH32 0x8C379A000000000000000000000000000000000000000000000000000000000 DUP2 MSTORE PUSH1 0x4 ADD PUSH2 0x2760 SWAP1 PUSH2 0x4FCA JUMP JUMPDEST PUSH1 0x40 MLOAD DUP1 SWAP2 SUB SWAP1 REVERT JUMPDEST PUSH2 0x2773 DUP3 CALLER PUSH2 0x310E JUMP JUMPDEST PUSH32 0xF00D28232B285F24F2E38415DEB2CEB31069E70D4505838B3911B4F02058502E PUSH2 0x279C PUSH2 0x1052 JUMP JUMPDEST PUSH1 0x40 MLOAD PUSH2 0x27A9 SWAP2 SWAP1 PUSH2 0x4299 JUMP JUMPDEST PUSH1 0x40 MLOAD DUP1 SWAP2 SUB SWAP1 LOG1 POP POP JUMP JUMPDEST PUSH1 0x19 PUSH1 0x20 MSTORE DUP1 PUSH1 0x0 MSTORE PUSH1 0x40 PUSH1 0x0 KECCAK256 PUSH1 0x0 SWAP2 POP SLOAD SWAP1 PUSH2 0x100 EXP SWAP1 DIV PUSH1 0xFF AND DUP2 JUMP JUMPDEST PUSH2 0x27E6 PUSH2 0x27E0 PUSH2 0x2D13 JUMP JUMPDEST DUP4 PUSH2 0x2DD4 JUMP JUMPDEST PUSH2 0x2825 JUMPI PUSH1 0x40 MLOAD PUSH32 0x8C379A000000000000000000000000000000000000000000000000000000000 DUP2 MSTORE PUSH1 0x4 ADD PUSH2 0x281C SWAP1 PUSH2 0x4BD1 JUMP JUMPDEST PUSH1 0x40 MLOAD DUP1 SWAP2 SUB SWAP1 REVERT JUMPDEST PUSH2 0x2831 DUP5 DUP5 DUP5 DUP5 PUSH2 0x3386 JUMP JUMPDEST POP POP POP POP JUMP JUMPDEST PUSH2 0x283F PUSH2 0x2D13 JUMP JUMPDEST PUSH20 0xFFFFFFFFFFFFFFFFFFFFFFFFFFFFFFFFFFFFFFFF AND PUSH2 0x285D PUSH2 0x225E JUMP JUMPDEST PUSH20 0xFFFFFFFFFFFFFFFFFFFFFFFFFFFFFFFFFFFFFFFF AND EQ PUSH2 0x28B3 JUMPI PUSH1 0x40 MLOAD PUSH32 0x8C379A000000000000000000000000000000000000000000000000000000000 DUP2 MSTORE PUSH1 0x4 ADD PUSH2 0x28AA SWAP1 PUSH2 0x4B3F JUMP JUMPDEST PUSH1 0x40 MLOAD DUP1 SWAP2 SUB SWAP1 REVERT JUMPDEST DUP1 PUSH1 0xC DUP2 SWAP1 SSTORE POP POP JUMP JUMPDEST PUSH1 0x0 PUSH2 0x28C7 PUSH2 0x1052 JUMP JUMPDEST SWAP1 POP SWAP1 JUMP JUMPDEST PUSH1 0x60 PUSH2 0x28D7 DUP3 PUSH2 0x2CA7 JUMP JUMPDEST PUSH2 0x2916 JUMPI PUSH1 0x40 MLOAD PUSH32 0x8C379A000000000000000000000000000000000000000000000000000000000 DUP2 MSTORE PUSH1 0x4 ADD PUSH2 0x290D SWAP1 PUSH2 0x5782 JUMP JUMPDEST PUSH1 0x40 MLOAD DUP1 SWAP2 SUB SWAP1 REVERT JUMPDEST PUSH2 0x291E PUSH2 0x33E2 JUMP JUMPDEST PUSH2 0x2927 DUP4 PUSH2 0x3474 JUMP JUMPDEST PUSH1 0x40 MLOAD PUSH1 0x20 ADD PUSH2 0x2938 SWAP3 SWAP2 SWAP1 PUSH2 0x57DE JUMP JUMPDEST PUSH1 0x40 MLOAD PUSH1 0x20 DUP2 DUP4 SUB SUB DUP2 MSTORE SWAP1 PUSH1 0x40 MSTORE SWAP1 POP SWAP2 SWAP1 POP JUMP JUMPDEST PUSH1 0x13 SLOAD DUP2 JUMP JUMPDEST PUSH1 0x60 PUSH1 0x0 PUSH2 0x2961 DUP4 PUSH2 0x1C95 JUMP JUMPDEST SWAP1 POP PUSH1 0x0 DUP2 PUSH8 0xFFFFFFFFFFFFFFFF DUP2 GT ISZERO PUSH2 0x297F JUMPI PUSH2 0x297E PUSH2 0x433E JUMP JUMPDEST JUMPDEST PUSH1 0x40 MLOAD SWAP1 DUP1 DUP3 MSTORE DUP1 PUSH1 0x20 MUL PUSH1 0x20 ADD DUP3 ADD PUSH1 0x40 MSTORE DUP1 ISZERO PUSH2 0x29AD JUMPI DUP2 PUSH1 0x20 ADD PUSH1 0x20 DUP3 MUL DUP1 CALLDATASIZE DUP4 CALLDATACOPY DUP1 DUP3 ADD SWAP2 POP POP SWAP1 POP JUMPDEST POP SWAP1 POP PUSH1 0x0 JUMPDEST DUP3 DUP2 LT ISZERO PUSH2 0x29F7 JUMPI PUSH2 0x29C5 DUP6 DUP3 PUSH2 0x147F JUMP JUMPDEST DUP3 DUP3 DUP2 MLOAD DUP2 LT PUSH2 0x29D8 JUMPI PUSH2 0x29D7 PUSH2 0x51A2 JUMP JUMPDEST JUMPDEST PUSH1 0x20 MUL PUSH1 0x20 ADD ADD DUP2 DUP2 MSTORE POP POP DUP1 DUP1 PUSH2 0x29EF SWAP1 PUSH2 0x5419 JUMP JUMPDEST SWAP2 POP POP PUSH2 0x29B3 JUMP JUMPDEST POP DUP1 SWAP3 POP POP POP SWAP2 SWAP1 POP JUMP JUMPDEST PUSH1 0x0 PUSH1 0x5 PUSH1 0x0 DUP5 PUSH20 0xFFFFFFFFFFFFFFFFFFFFFFFFFFFFFFFFFFFFFFFF AND PUSH20 0xFFFFFFFFFFFFFFFFFFFFFFFFFFFFFFFFFFFFFFFF AND DUP2 MSTORE PUSH1 0x20 ADD SWAP1 DUP2 MSTORE PUSH1 0x20 ADD PUSH1 0x0 KECCAK256 PUSH1 0x0 DUP4 PUSH20 0xFFFFFFFFFFFFFFFFFFFFFFFFFFFFFFFFFFFFFFFF AND PUSH20 0xFFFFFFFFFFFFFFFFFFFFFFFFFFFFFFFFFFFFFFFF AND DUP2 MSTORE PUSH1 0x20 ADD SWAP1 DUP2 MSTORE PUSH1 0x20 ADD PUSH1 0x0 KECCAK256 PUSH1 0x0 SWAP1 SLOAD SWAP1 PUSH2 0x100 EXP SWAP1 DIV PUSH1 0xFF AND SWAP1 POP SWAP3 SWAP2 POP POP JUMP JUMPDEST PUSH1 0x11 SLOAD DUP2 JUMP JUMPDEST PUSH1 0xA PUSH1 0x14 SWAP1 SLOAD SWAP1 PUSH2 0x100 EXP SWAP1 DIV PUSH1 0xFF AND DUP2 JUMP JUMPDEST PUSH2 0x2AB7 PUSH2 0x2D13 JUMP JUMPDEST PUSH20 0xFFFFFFFFFFFFFFFFFFFFFFFFFFFFFFFFFFFFFFFF AND PUSH2 0x2AD5 PUSH2 0x225E JUMP JUMPDEST PUSH20 0xFFFFFFFFFFFFFFFFFFFFFFFFFFFFFFFFFFFFFFFF AND EQ PUSH2 0x2B2B JUMPI PUSH1 0x40 MLOAD PUSH32 0x8C379A000000000000000000000000000000000000000000000000000000000 DUP2 MSTORE PUSH1 0x4 ADD PUSH2 0x2B22 SWAP1 PUSH2 0x4B3F JUMP JUMPDEST PUSH1 0x40 MLOAD DUP1 SWAP2 SUB SWAP1 REVERT JUMPDEST PUSH1 0x0 PUSH20 0xFFFFFFFFFFFFFFFFFFFFFFFFFFFFFFFFFFFFFFFF AND DUP2 PUSH20 0xFFFFFFFFFFFFFFFFFFFFFFFFFFFFFFFFFFFFFFFF AND EQ ISZERO PUSH2 0x2B9B JUMPI PUSH1 0x40 MLOAD PUSH32 0x8C379A000000000000000000000000000000000000000000000000000000000 DUP2 MSTORE PUSH1 0x4 ADD PUSH2 0x2B92 SWAP1 PUSH2 0x5874 JUMP JUMPDEST PUSH1 0x40 MLOAD DUP1 SWAP2 SUB SWAP1 REVERT JUMPDEST PUSH2 0x2BA4 DUP2 PUSH2 0x3153 JUMP JUMPDEST POP JUMP JUMPDEST PUSH2 0x2BAF PUSH2 0x2D13 JUMP JUMPDEST PUSH20 0xFFFFFFFFFFFFFFFFFFFFFFFFFFFFFFFFFFFFFFFF AND PUSH2 0x2BCD PUSH2 0x225E JUMP JUMPDEST PUSH20 0xFFFFFFFFFFFFFFFFFFFFFFFFFFFFFFFFFFFFFFFF AND EQ PUSH2 0x2C23 JUMPI PUSH1 0x40 MLOAD PUSH32 0x8C379A000000000000000000000000000000000000000000000000000000000 DUP2 MSTORE PUSH1 0x4 ADD PUSH2 0x2C1A SWAP1 PUSH2 0x4B3F JUMP JUMPDEST PUSH1 0x40 MLOAD DUP1 SWAP2 SUB SWAP1 REVERT JUMPDEST DUP1 PUSH1 0xB DUP2 SWAP1 SSTORE POP POP JUMP JUMPDEST PUSH1 0x0 PUSH32 0x780E9D6300000000000000000000000000000000000000000000000000000000 PUSH28 0xFFFFFFFFFFFFFFFFFFFFFFFFFFFFFFFFFFFFFFFFFFFFFFFFFFFFFFFF NOT AND DUP3 PUSH28 0xFFFFFFFFFFFFFFFFFFFFFFFFFFFFFFFFFFFFFFFFFFFFFFFFFFFFFFFF NOT AND EQ DUP1 PUSH2 0x2CA0 JUMPI POP PUSH2 0x2C9F DUP3 PUSH2 0x35D5 JUMP JUMPDEST JUMPDEST SWAP1 POP SWAP2 SWAP1 POP JUMP JUMPDEST PUSH1 0x0 DUP1 PUSH20 0xFFFFFFFFFFFFFFFFFFFFFFFFFFFFFFFFFFFFFFFF AND PUSH1 0x2 PUSH1 0x0 DUP5 DUP2 MSTORE PUSH1 0x20 ADD SWAP1 DUP2 MSTORE PUSH1 0x20 ADD PUSH1 0x0 KECCAK256 PUSH1 0x0 SWAP1 SLOAD SWAP1 PUSH2 0x100 EXP SWAP1 DIV PUSH20 0xFFFFFFFFFFFFFFFFFFFFFFFFFFFFFFFFFFFFFFFF AND PUSH20 0xFFFFFFFFFFFFFFFFFFFFFFFFFFFFFFFFFFFFFFFF AND EQ ISZERO SWAP1 POP SWAP2 SWAP1 POP JUMP JUMPDEST PUSH1 0x0 CALLER SWAP1 POP SWAP1 JUMP JUMPDEST DUP2 PUSH1 0x4 PUSH1 0x0 DUP4 DUP2 MSTORE PUSH1 0x20 ADD SWAP1 DUP2 MSTORE PUSH1 0x20 ADD PUSH1 0x0 KECCAK256 PUSH1 0x0 PUSH2 0x100 EXP DUP2 SLOAD DUP2 PUSH20 0xFFFFFFFFFFFFFFFFFFFFFFFFFFFFFFFFFFFFFFFF MUL NOT AND SWAP1 DUP4 PUSH20 0xFFFFFFFFFFFFFFFFFFFFFFFFFFFFFFFFFFFFFFFF AND MUL OR SWAP1 SSTORE POP DUP1 DUP3 PUSH20 0xFFFFFFFFFFFFFFFFFFFFFFFFFFFFFFFFFFFFFFFF AND PUSH2 0x2D8E DUP4 PUSH2 0x1A90 JUMP JUMPDEST PUSH20 0xFFFFFFFFFFFFFFFFFFFFFFFFFFFFFFFFFFFFFFFF AND PUSH32 0x8C5BE1E5EBEC7D5BD14F71427D1E84F3DD0314C0F7B2291E5B200AC8C7C3B925 PUSH1 0x40 MLOAD PUSH1 0x40 MLOAD DUP1 SWAP2 SUB SWAP1 LOG4 POP POP JUMP JUMPDEST PUSH1 0x0 PUSH2 0x2DDF DUP3 PUSH2 0x2CA7 JUMP JUMPDEST PUSH2 0x2E1E JUMPI PUSH1 0x40 MLOAD PUSH32 0x8C379A000000000000000000000000000000000000000000000000000000000 DUP2 MSTORE PUSH1 0x4 ADD PUSH2 0x2E15 SWAP1 PUSH2 0x5906 JUMP JUMPDEST PUSH1 0x40 MLOAD DUP1 SWAP2 SUB SWAP1 REVERT JUMPDEST PUSH1 0x0 PUSH2 0x2E29 DUP4 PUSH2 0x1A90 JUMP JUMPDEST SWAP1 POP DUP1 PUSH20 0xFFFFFFFFFFFFFFFFFFFFFFFFFFFFFFFFFFFFFFFF AND DUP5 PUSH20 0xFFFFFFFFFFFFFFFFFFFFFFFFFFFFFFFFFFFFFFFF AND EQ DUP1 PUSH2 0x2E98 JUMPI POP DUP4 PUSH20 0xFFFFFFFFFFFFFFFFFFFFFFFFFFFFFFFFFFFFFFFF AND PUSH2 0x2E80 DUP5 PUSH2 0xE0D JUMP JUMPDEST PUSH20 0xFFFFFFFFFFFFFFFFFFFFFFFFFFFFFFFFFFFFFFFF AND EQ JUMPDEST DUP1 PUSH2 0x2EA9 JUMPI POP PUSH2 0x2EA8 DUP2 DUP6 PUSH2 0x2A02 JUMP JUMPDEST JUMPDEST SWAP2 POP POP SWAP3 SWAP2 POP POP JUMP JUMPDEST DUP3 PUSH20 0xFFFFFFFFFFFFFFFFFFFFFFFFFFFFFFFFFFFFFFFF AND PUSH2 0x2ED2 DUP3 PUSH2 0x1A90 JUMP JUMPDEST PUSH20 0xFFFFFFFFFFFFFFFFFFFFFFFFFFFFFFFFFFFFFFFF AND EQ PUSH2 0x2F28 JUMPI PUSH1 0x40 MLOAD PUSH32 0x8C379A000000000000000000000000000000000000000000000000000000000 DUP2 MSTORE PUSH1 0x4 ADD PUSH2 0x2F1F SWAP1 PUSH2 0x5998 JUMP JUMPDEST PUSH1 0x40 MLOAD DUP1 SWAP2 SUB SWAP1 REVERT JUMPDEST PUSH1 0x0 PUSH20 0xFFFFFFFFFFFFFFFFFFFFFFFFFFFFFFFFFFFFFFFF AND DUP3 PUSH20 0xFFFFFFFFFFFFFFFFFFFFFFFFFFFFFFFFFFFFFFFF AND EQ ISZERO PUSH2 0x2F98 JUMPI PUSH1 0x40 MLOAD PUSH32 0x8C379A000000000000000000000000000000000000000000000000000000000 DUP2 MSTORE PUSH1 0x4 ADD PUSH2 0x2F8F SWAP1 PUSH2 0x5A2A JUMP JUMPDEST PUSH1 0x40 MLOAD DUP1 SWAP2 SUB SWAP1 REVERT JUMPDEST PUSH2 0x2FA3 DUP4 DUP4 DUP4 PUSH2 0x36B7 JUMP JUMPDEST PUSH2 0x2FAE PUSH1 0x0 DUP3 PUSH2 0x2D1B JUMP JUMPDEST PUSH1 0x1 PUSH1 0x3 PUSH1 0x0 DUP6 PUSH20 0xFFFFFFFFFFFFFFFFFFFFFFFFFFFFFFFFFFFFFFFF AND PUSH20 0xFFFFFFFFFFFFFFFFFFFFFFFFFFFFFFFFFFFFFFFF AND DUP2 MSTORE PUSH1 0x20 ADD SWAP1 DUP2 MSTORE PUSH1 0x20 ADD PUSH1 0x0 KECCAK256 PUSH1 0x0 DUP3 DUP3 SLOAD PUSH2 0x2FFE SWAP2 SWAP1 PUSH2 0x507C JUMP JUMPDEST SWAP3 POP POP DUP2 SWAP1 SSTORE POP PUSH1 0x1 PUSH1 0x3 PUSH1 0x0 DUP5 PUSH20 0xFFFFFFFFFFFFFFFFFFFFFFFFFFFFFFFFFFFFFFFF AND PUSH20 0xFFFFFFFFFFFFFFFFFFFFFFFFFFFFFFFFFFFFFFFF AND DUP2 MSTORE PUSH1 0x20 ADD SWAP1 DUP2 MSTORE PUSH1 0x20 ADD PUSH1 0x0 KECCAK256 PUSH1 0x0 DUP3 DUP3 SLOAD PUSH2 0x3055 SWAP2 SWAP1 PUSH2 0x4D1E JUMP JUMPDEST SWAP3 POP POP DUP2 SWAP1 SSTORE POP DUP2 PUSH1 0x2 PUSH1 0x0 DUP4 DUP2 MSTORE PUSH1 0x20 ADD SWAP1 DUP2 MSTORE PUSH1 0x20 ADD PUSH1 0x0 KECCAK256 PUSH1 0x0 PUSH2 0x100 EXP DUP2 SLOAD DUP2 PUSH20 0xFFFFFFFFFFFFFFFFFFFFFFFFFFFFFFFFFFFFFFFF MUL NOT AND SWAP1 DUP4 PUSH20 0xFFFFFFFFFFFFFFFFFFFFFFFFFFFFFFFFFFFFFFFF AND MUL OR SWAP1 SSTORE POP DUP1 DUP3 PUSH20 0xFFFFFFFFFFFFFFFFFFFFFFFFFFFFFFFFFFFFFFFF AND DUP5 PUSH20 0xFFFFFFFFFFFFFFFFFFFFFFFFFFFFFFFFFFFFFFFF AND PUSH32 0xDDF252AD1BE2C89B69C2B068FC378DAA952BA7F163C4A11628F55A4DF523B3EF PUSH1 0x40 MLOAD PUSH1 0x40 MLOAD DUP1 SWAP2 SUB SWAP1 LOG4 POP POP POP JUMP JUMPDEST PUSH1 0x0 PUSH2 0x3118 PUSH2 0x1052 JUMP JUMPDEST SWAP1 POP PUSH1 0x0 JUMPDEST DUP4 DUP2 LT ISZERO PUSH2 0x314D JUMPI PUSH2 0x313A DUP4 DUP3 DUP5 PUSH2 0x3135 SWAP2 SWAP1 PUSH2 0x4D1E JUMP JUMPDEST PUSH2 0x36C7 JUMP JUMPDEST DUP1 DUP1 PUSH2 0x3145 SWAP1 PUSH2 0x5419 JUMP JUMPDEST SWAP2 POP POP PUSH2 0x311D JUMP JUMPDEST POP POP POP POP JUMP JUMPDEST PUSH1 0x0 PUSH1 0xA PUSH1 0x0 SWAP1 SLOAD SWAP1 PUSH2 0x100 EXP SWAP1 DIV PUSH20 0xFFFFFFFFFFFFFFFFFFFFFFFFFFFFFFFFFFFFFFFF AND SWAP1 POP DUP2 PUSH1 0xA PUSH1 0x0 PUSH2 0x100 EXP DUP2 SLOAD DUP2 PUSH20 0xFFFFFFFFFFFFFFFFFFFFFFFFFFFFFFFFFFFFFFFF MUL NOT AND SWAP1 DUP4 PUSH20 0xFFFFFFFFFFFFFFFFFFFFFFFFFFFFFFFFFFFFFFFF AND MUL OR SWAP1 SSTORE POP DUP2 PUSH20 0xFFFFFFFFFFFFFFFFFFFFFFFFFFFFFFFFFFFFFFFF AND DUP2 PUSH20 0xFFFFFFFFFFFFFFFFFFFFFFFFFFFFFFFFFFFFFFFF AND PUSH32 0x8BE0079C531659141344CD1FD0A4F28419497F9722A3DAAFE3B4186F6B6457E0 PUSH1 0x40 MLOAD PUSH1 0x40 MLOAD DUP1 SWAP2 SUB SWAP1 LOG3 POP POP JUMP JUMPDEST DUP2 PUSH20 0xFFFFFFFFFFFFFFFFFFFFFFFFFFFFFFFFFFFFFFFF AND DUP4 PUSH20 0xFFFFFFFFFFFFFFFFFFFFFFFFFFFFFFFFFFFFFFFF AND EQ ISZERO PUSH2 0x3288 JUMPI PUSH1 0x40 MLOAD PUSH32 0x8C379A000000000000000000000000000000000000000000000000000000000 DUP2 MSTORE PUSH1 0x4 ADD PUSH2 0x327F SWAP1 PUSH2 0x5A96 JUMP JUMPDEST PUSH1 0x40 MLOAD DUP1 SWAP2 SUB SWAP1 REVERT JUMPDEST DUP1 PUSH1 0x5 PUSH1 0x0 DUP6 PUSH20 0xFFFFFFFFFFFFFFFFFFFFFFFFFFFFFFFFFFFFFFFF AND PUSH20 0xFFFFFFFFFFFFFFFFFFFFFFFFFFFFFFFFFFFFFFFF AND DUP2 MSTORE PUSH1 0x20 ADD SWAP1 DUP2 MSTORE PUSH1 0x20 ADD PUSH1 0x0 KECCAK256 PUSH1 0x0 DUP5 PUSH20 0xFFFFFFFFFFFFFFFFFFFFFFFFFFFFFFFFFFFFFFFF AND PUSH20 0xFFFFFFFFFFFFFFFFFFFFFFFFFFFFFFFFFFFFFFFF AND DUP2 MSTORE PUSH1 0x20 ADD SWAP1 DUP2 MSTORE PUSH1 0x20 ADD PUSH1 0x0 KECCAK256 PUSH1 0x0 PUSH2 0x100 EXP DUP2 SLOAD DUP2 PUSH1 0xFF MUL NOT AND SWAP1 DUP4 ISZERO ISZERO MUL OR SWAP1 SSTORE POP DUP2 PUSH20 0xFFFFFFFFFFFFFFFFFFFFFFFFFFFFFFFFFFFFFFFF AND DUP4 PUSH20 0xFFFFFFFFFFFFFFFFFFFFFFFFFFFFFFFFFFFFFFFF AND PUSH32 0x17307EAB39AB6107E8899845AD3D59BD9653F200F220920489CA2B5937696C31 DUP4 PUSH1 0x40 MLOAD PUSH2 0x3379 SWAP2 SWAP1 PUSH2 0x4089 JUMP JUMPDEST PUSH1 0x40 MLOAD DUP1 SWAP2 SUB SWAP1 LOG3 POP POP POP JUMP JUMPDEST PUSH2 0x3391 DUP5 DUP5 DUP5 PUSH2 0x2EB2 JUMP JUMPDEST PUSH2 0x339D DUP5 DUP5 DUP5 DUP5 PUSH2 0x36E5 JUMP JUMPDEST PUSH2 0x33DC JUMPI PUSH1 0x40 MLOAD PUSH32 0x8C379A000000000000000000000000000000000000000000000000000000000 DUP2 MSTORE PUSH1 0x4 ADD PUSH2 0x33D3 SWAP1 PUSH2 0x5B28 JUMP JUMPDEST PUSH1 0x40 MLOAD DUP1 SWAP2 SUB SWAP1 REVERT JUMPDEST POP POP POP POP JUMP JUMPDEST PUSH1 0x60 PUSH1 0x17 DUP1 SLOAD PUSH2 0x33F1 SWAP1 PUSH2 0x490B JUMP JUMPDEST DUP1 PUSH1 0x1F ADD PUSH1 0x20 DUP1 SWAP2 DIV MUL PUSH1 0x20 ADD PUSH1 0x40 MLOAD SWAP1 DUP2 ADD PUSH1 0x40 MSTORE DUP1 SWAP3 SWAP2 SWAP1 DUP2 DUP2 MSTORE PUSH1 0x20 ADD DUP3 DUP1 SLOAD PUSH2 0x341D SWAP1 PUSH2 0x490B JUMP JUMPDEST DUP1 ISZERO PUSH2 0x346A JUMPI DUP1 PUSH1 0x1F LT PUSH2 0x343F JUMPI PUSH2 0x100 DUP1 DUP4 SLOAD DIV MUL DUP4 MSTORE SWAP2 PUSH1 0x20 ADD SWAP2 PUSH2 0x346A JUMP JUMPDEST DUP3 ADD SWAP2 SWAP1 PUSH1 0x0 MSTORE PUSH1 0x20 PUSH1 0x0 KECCAK256 SWAP1 JUMPDEST DUP2 SLOAD DUP2 MSTORE SWAP1 PUSH1 0x1 ADD SWAP1 PUSH1 0x20 ADD DUP1 DUP4 GT PUSH2 0x344D JUMPI DUP3 SWAP1 SUB PUSH1 0x1F AND DUP3 ADD SWAP2 JUMPDEST POP POP POP POP POP SWAP1 POP SWAP1 JUMP JUMPDEST PUSH1 0x60 PUSH1 0x0 DUP3 EQ ISZERO PUSH2 0x34BC JUMPI PUSH1 0x40 MLOAD DUP1 PUSH1 0x40 ADD PUSH1 0x40 MSTORE DUP1 PUSH1 0x1 DUP2 MSTORE PUSH1 0x20 ADD PUSH32 0x3000000000000000000000000000000000000000000000000000000000000000 DUP2 MSTORE POP SWAP1 POP PUSH2 0x35D0 JUMP JUMPDEST PUSH1 0x0 DUP3 SWAP1 POP PUSH1 0x0 JUMPDEST PUSH1 0x0 DUP3 EQ PUSH2 0x34EE JUMPI DUP1 DUP1 PUSH2 0x34D7 SWAP1 PUSH2 0x5419 JUMP JUMPDEST SWAP2 POP POP PUSH1 0xA DUP3 PUSH2 0x34E7 SWAP2 SWAP1 PUSH2 0x50DF JUMP JUMPDEST SWAP2 POP PUSH2 0x34C4 JUMP JUMPDEST PUSH1 0x0 DUP2 PUSH8 0xFFFFFFFFFFFFFFFF DUP2 GT ISZERO PUSH2 0x350A JUMPI PUSH2 0x3509 PUSH2 0x433E JUMP JUMPDEST JUMPDEST PUSH1 0x40 MLOAD SWAP1 DUP1 DUP3 MSTORE DUP1 PUSH1 0x1F ADD PUSH1 0x1F NOT AND PUSH1 0x20 ADD DUP3 ADD PUSH1 0x40 MSTORE DUP1 ISZERO PUSH2 0x353C JUMPI DUP2 PUSH1 0x20 ADD PUSH1 0x1 DUP3 MUL DUP1 CALLDATASIZE DUP4 CALLDATACOPY DUP1 DUP3 ADD SWAP2 POP POP SWAP1 POP JUMPDEST POP SWAP1 POP JUMPDEST PUSH1 0x0 DUP6 EQ PUSH2 0x35C9 JUMPI PUSH1 0x1 DUP3 PUSH2 0x3555 SWAP2 SWAP1 PUSH2 0x507C JUMP JUMPDEST SWAP2 POP PUSH1 0xA DUP6 PUSH2 0x3564 SWAP2 SWAP1 PUSH2 0x5B48 JUMP JUMPDEST PUSH1 0x30 PUSH2 0x3570 SWAP2 SWAP1 PUSH2 0x4D1E JUMP JUMPDEST PUSH1 0xF8 SHL DUP2 DUP4 DUP2 MLOAD DUP2 LT PUSH2 0x3586 JUMPI PUSH2 0x3585 PUSH2 0x51A2 JUMP JUMPDEST JUMPDEST PUSH1 0x20 ADD ADD SWAP1 PUSH31 0xFFFFFFFFFFFFFFFFFFFFFFFFFFFFFFFFFFFFFFFFFFFFFFFFFFFFFFFFFFFFFF NOT AND SWAP1 DUP2 PUSH1 0x0 BYTE SWAP1 MSTORE8 POP PUSH1 0xA DUP6 PUSH2 0x35C2 SWAP2 SWAP1 PUSH2 0x50DF JUMP JUMPDEST SWAP5 POP PUSH2 0x3540 JUMP JUMPDEST DUP1 SWAP4 POP POP POP POP JUMPDEST SWAP2 SWAP1 POP JUMP JUMPDEST PUSH1 0x0 PUSH32 0x80AC58CD00000000000000000000000000000000000000000000000000000000 PUSH28 0xFFFFFFFFFFFFFFFFFFFFFFFFFFFFFFFFFFFFFFFFFFFFFFFFFFFFFFFF NOT AND DUP3 PUSH28 0xFFFFFFFFFFFFFFFFFFFFFFFFFFFFFFFFFFFFFFFFFFFFFFFFFFFFFFFF NOT AND EQ DUP1 PUSH2 0x36A0 JUMPI POP PUSH32 0x5B5E139F00000000000000000000000000000000000000000000000000000000 PUSH28 0xFFFFFFFFFFFFFFFFFFFFFFFFFFFFFFFFFFFFFFFFFFFFFFFFFFFFFFFF NOT AND DUP3 PUSH28 0xFFFFFFFFFFFFFFFFFFFFFFFFFFFFFFFFFFFFFFFFFFFFFFFFFFFFFFFF NOT AND EQ JUMPDEST DUP1 PUSH2 0x36B0 JUMPI POP PUSH2 0x36AF DUP3 PUSH2 0x386D JUMP JUMPDEST JUMPDEST SWAP1 POP SWAP2 SWAP1 POP JUMP JUMPDEST PUSH2 0x36C2 DUP4 DUP4 DUP4 PUSH2 0x38D7 JUMP JUMPDEST POP POP POP JUMP JUMPDEST PUSH2 0x36E1 DUP3 DUP3 PUSH1 0x40 MLOAD DUP1 PUSH1 0x20 ADD PUSH1 0x40 MSTORE DUP1 PUSH1 0x0 DUP2 MSTORE POP PUSH2 0x39EB JUMP JUMPDEST POP POP JUMP JUMPDEST PUSH1 0x0 PUSH2 0x3706 DUP5 PUSH20 0xFFFFFFFFFFFFFFFFFFFFFFFFFFFFFFFFFFFFFFFF AND PUSH2 0x3A46 JUMP JUMPDEST ISZERO PUSH2 0x3860 JUMPI DUP4 PUSH20 0xFFFFFFFFFFFFFFFFFFFFFFFFFFFFFFFFFFFFFFFF AND PUSH4 0x150B7A02 PUSH2 0x372F PUSH2 0x2D13 JUMP JUMPDEST DUP8 DUP7 DUP7 PUSH1 0x40 MLOAD DUP6 PUSH4 0xFFFFFFFF AND PUSH1 0xE0 SHL DUP2 MSTORE PUSH1 0x4 ADD PUSH2 0x3751 SWAP5 SWAP4 SWAP3 SWAP2 SWAP1 PUSH2 0x5BCE JUMP JUMPDEST PUSH1 0x20 PUSH1 0x40 MLOAD DUP1 DUP4 SUB DUP2 PUSH1 0x0 DUP8 GAS CALL SWAP3 POP POP POP DUP1 ISZERO PUSH2 0x378D JUMPI POP PUSH1 0x40 MLOAD RETURNDATASIZE PUSH1 0x1F NOT PUSH1 0x1F DUP3 ADD AND DUP3 ADD DUP1 PUSH1 0x40 MSTORE POP DUP2 ADD SWAP1 PUSH2 0x378A SWAP2 SWAP1 PUSH2 0x5C2F JUMP JUMPDEST PUSH1 0x1 JUMPDEST PUSH2 0x3810 JUMPI RETURNDATASIZE DUP1 PUSH1 0x0 DUP2 EQ PUSH2 0x37BD JUMPI PUSH1 0x40 MLOAD SWAP2 POP PUSH1 0x1F NOT PUSH1 0x3F RETURNDATASIZE ADD AND DUP3 ADD PUSH1 0x40 MSTORE RETURNDATASIZE DUP3 MSTORE RETURNDATASIZE PUSH1 0x0 PUSH1 0x20 DUP5 ADD RETURNDATACOPY PUSH2 0x37C2 JUMP JUMPDEST PUSH1 0x60 SWAP2 POP JUMPDEST POP PUSH1 0x0 DUP2 MLOAD EQ ISZERO PUSH2 0x3808 JUMPI PUSH1 0x40 MLOAD PUSH32 0x8C379A000000000000000000000000000000000000000000000000000000000 DUP2 MSTORE PUSH1 0x4 ADD PUSH2 0x37FF SWAP1 PUSH2 0x5B28 JUMP JUMPDEST PUSH1 0x40 MLOAD DUP1 SWAP2 SUB SWAP1 REVERT JUMPDEST DUP1 MLOAD DUP2 PUSH1 0x20 ADD REVERT JUMPDEST PUSH4 0x150B7A02 PUSH1 0xE0 SHL PUSH28 0xFFFFFFFFFFFFFFFFFFFFFFFFFFFFFFFFFFFFFFFFFFFFFFFFFFFFFFFF NOT AND DUP2 PUSH28 0xFFFFFFFFFFFFFFFFFFFFFFFFFFFFFFFFFFFFFFFFFFFFFFFFFFFFFFFF NOT AND EQ SWAP2 POP POP PUSH2 0x3865 JUMP JUMPDEST PUSH1 0x1 SWAP1 POP JUMPDEST SWAP5 SWAP4 POP POP POP POP JUMP JUMPDEST PUSH1 0x0 PUSH32 0x1FFC9A700000000000000000000000000000000000000000000000000000000 PUSH28 0xFFFFFFFFFFFFFFFFFFFFFFFFFFFFFFFFFFFFFFFFFFFFFFFFFFFFFFFF NOT AND DUP3 PUSH28 0xFFFFFFFFFFFFFFFFFFFFFFFFFFFFFFFFFFFFFFFFFFFFFFFFFFFFFFFF NOT AND EQ SWAP1 POP SWAP2 SWAP1 POP JUMP JUMPDEST PUSH2 0x38E2 DUP4 DUP4 DUP4 PUSH2 0x3A59 JUMP JUMPDEST PUSH1 0x0 PUSH20 0xFFFFFFFFFFFFFFFFFFFFFFFFFFFFFFFFFFFFFFFF AND DUP4 PUSH20 0xFFFFFFFFFFFFFFFFFFFFFFFFFFFFFFFFFFFFFFFF AND EQ ISZERO PUSH2 0x3925 JUMPI PUSH2 0x3920 DUP2 PUSH2 0x3A5E JUMP JUMPDEST PUSH2 0x3964 JUMP JUMPDEST DUP2 PUSH20 0xFFFFFFFFFFFFFFFFFFFFFFFFFFFFFFFFFFFFFFFF AND DUP4 PUSH20 0xFFFFFFFFFFFFFFFFFFFFFFFFFFFFFFFFFFFFFFFF AND EQ PUSH2 0x3963 JUMPI PUSH2 0x3962 DUP4 DUP3 PUSH2 0x3AA7 JUMP JUMPDEST JUMPDEST JUMPDEST PUSH1 0x0 PUSH20 0xFFFFFFFFFFFFFFFFFFFFFFFFFFFFFFFFFFFFFFFF AND DUP3 PUSH20 0xFFFFFFFFFFFFFFFFFFFFFFFFFFFFFFFFFFFFFFFF AND EQ ISZERO PUSH2 0x39A7 JUMPI PUSH2 0x39A2 DUP2 PUSH2 0x3C14 JUMP JUMPDEST PUSH2 0x39E6 JUMP JUMPDEST DUP3 PUSH20 0xFFFFFFFFFFFFFFFFFFFFFFFFFFFFFFFFFFFFFFFF AND DUP3 PUSH20 0xFFFFFFFFFFFFFFFFFFFFFFFFFFFFFFFFFFFFFFFF AND EQ PUSH2 0x39E5 JUMPI PUSH2 0x39E4 DUP3 DUP3 PUSH2 0x3CE5 JUMP JUMPDEST JUMPDEST JUMPDEST POP POP POP JUMP JUMPDEST PUSH2 0x39F5 DUP4 DUP4 PUSH2 0x3D64 JUMP JUMPDEST PUSH2 0x3A02 PUSH1 0x0 DUP5 DUP5 DUP5 PUSH2 0x36E5 JUMP JUMPDEST PUSH2 0x3A41 JUMPI PUSH1 0x40 MLOAD PUSH32 0x8C379A000000000000000000000000000000000000000000000000000000000 DUP2 MSTORE PUSH1 0x4 ADD PUSH2 0x3A38 SWAP1 PUSH2 0x5B28 JUMP JUMPDEST PUSH1 0x40 MLOAD DUP1 SWAP2 SUB SWAP1 REVERT JUMPDEST POP POP POP JUMP JUMPDEST PUSH1 0x0 DUP1 DUP3 EXTCODESIZE SWAP1 POP PUSH1 0x0 DUP2 GT SWAP2 POP POP SWAP2 SWAP1 POP JUMP JUMPDEST POP POP POP JUMP JUMPDEST PUSH1 0x8 DUP1 SLOAD SWAP1 POP PUSH1 0x9 PUSH1 0x0 DUP4 DUP2 MSTORE PUSH1 0x20 ADD SWAP1 DUP2 MSTORE PUSH1 0x20 ADD PUSH1 0x0 KECCAK256 DUP2 SWAP1 SSTORE POP PUSH1 0x8 DUP2 SWAP1 DUP1 PUSH1 0x1 DUP2 SLOAD ADD DUP1 DUP3 SSTORE DUP1 SWAP2 POP POP PUSH1 0x1 SWAP1 SUB SWAP1 PUSH1 0x0 MSTORE PUSH1 0x20 PUSH1 0x0 KECCAK256 ADD PUSH1 0x0 SWAP1 SWAP2 SWAP1 SWAP2 SWAP1 SWAP2 POP SSTORE POP JUMP JUMPDEST PUSH1 0x0 PUSH1 0x1 PUSH2 0x3AB4 DUP5 PUSH2 0x1C95 JUMP JUMPDEST PUSH2 0x3ABE SWAP2 SWAP1 PUSH2 0x507C JUMP JUMPDEST SWAP1 POP PUSH1 0x0 PUSH1 0x7 PUSH1 0x0 DUP5 DUP2 MSTORE PUSH1 0x20 ADD SWAP1 DUP2 MSTORE PUSH1 0x20 ADD PUSH1 0x0 KECCAK256 SLOAD SWAP1 POP DUP2 DUP2 EQ PUSH2 0x3BA3 JUMPI PUSH1 0x0 PUSH1 0x6 PUSH1 0x0 DUP7 PUSH20 0xFFFFFFFFFFFFFFFFFFFFFFFFFFFFFFFFFFFFFFFF AND PUSH20 0xFFFFFFFFFFFFFFFFFFFFFFFFFFFFFFFFFFFFFFFF AND DUP2 MSTORE PUSH1 0x20 ADD SWAP1 DUP2 MSTORE PUSH1 0x20 ADD PUSH1 0x0 KECCAK256 PUSH1 0x0 DUP5 DUP2 MSTORE PUSH1 0x20 ADD SWAP1 DUP2 MSTORE PUSH1 0x20 ADD PUSH1 0x0 KECCAK256 SLOAD SWAP1 POP DUP1 PUSH1 0x6 PUSH1 0x0 DUP8 PUSH20 0xFFFFFFFFFFFFFFFFFFFFFFFFFFFFFFFFFFFFFFFF AND PUSH20 0xFFFFFFFFFFFFFFFFFFFFFFFFFFFFFFFFFFFFFFFF AND DUP2 MSTORE PUSH1 0x20 ADD SWAP1 DUP2 MSTORE PUSH1 0x20 ADD PUSH1 0x0 KECCAK256 PUSH1 0x0 DUP5 DUP2 MSTORE PUSH1 0x20 ADD SWAP1 DUP2 MSTORE PUSH1 0x20 ADD PUSH1 0x0 KECCAK256 DUP2 SWAP1 SSTORE POP DUP2 PUSH1 0x7 PUSH1 0x0 DUP4 DUP2 MSTORE PUSH1 0x20 ADD SWAP1 DUP2 MSTORE PUSH1 0x20 ADD PUSH1 0x0 KECCAK256 DUP2 SWAP1 SSTORE POP POP JUMPDEST PUSH1 0x7 PUSH1 0x0 DUP5 DUP2 MSTORE PUSH1 0x20 ADD SWAP1 DUP2 MSTORE PUSH1 0x20 ADD PUSH1 0x0 KECCAK256 PUSH1 0x0 SWAP1 SSTORE PUSH1 0x6 PUSH1 0x0 DUP6 PUSH20 0xFFFFFFFFFFFFFFFFFFFFFFFFFFFFFFFFFFFFFFFF AND PUSH20 0xFFFFFFFFFFFFFFFFFFFFFFFFFFFFFFFFFFFFFFFF AND DUP2 MSTORE PUSH1 0x20 ADD SWAP1 DUP2 MSTORE PUSH1 0x20 ADD PUSH1 0x0 KECCAK256 PUSH1 0x0 DUP4 DUP2 MSTORE PUSH1 0x20 ADD SWAP1 DUP2 MSTORE PUSH1 0x20 ADD PUSH1 0x0 KECCAK256 PUSH1 0x0 SWAP1 SSTORE POP POP POP POP JUMP JUMPDEST PUSH1 0x0 PUSH1 0x1 PUSH1 0x8 DUP1 SLOAD SWAP1 POP PUSH2 0x3C28 SWAP2 SWAP1 PUSH2 0x507C JUMP JUMPDEST SWAP1 POP PUSH1 0x0 PUSH1 0x9 PUSH1 0x0 DUP5 DUP2 MSTORE PUSH1 0x20 ADD SWAP1 DUP2 MSTORE PUSH1 0x20 ADD PUSH1 0x0 KECCAK256 SLOAD SWAP1 POP PUSH1 0x0 PUSH1 0x8 DUP4 DUP2 SLOAD DUP2 LT PUSH2 0x3C58 JUMPI PUSH2 0x3C57 PUSH2 0x51A2 JUMP JUMPDEST JUMPDEST SWAP1 PUSH1 0x0 MSTORE PUSH1 0x20 PUSH1 0x0 KECCAK256 ADD SLOAD SWAP1 POP DUP1 PUSH1 0x8 DUP4 DUP2 SLOAD DUP2 LT PUSH2 0x3C7A JUMPI PUSH2 0x3C79 PUSH2 0x51A2 JUMP JUMPDEST JUMPDEST SWAP1 PUSH1 0x0 MSTORE PUSH1 0x20 PUSH1 0x0 KECCAK256 ADD DUP2 SWAP1 SSTORE POP DUP2 PUSH1 0x9 PUSH1 0x0 DUP4 DUP2 MSTORE PUSH1 0x20 ADD SWAP1 DUP2 MSTORE PUSH1 0x20 ADD PUSH1 0x0 KECCAK256 DUP2 SWAP1 SSTORE POP PUSH1 0x9 PUSH1 0x0 DUP6 DUP2 MSTORE PUSH1 0x20 ADD SWAP1 DUP2 MSTORE PUSH1 0x20 ADD PUSH1 0x0 KECCAK256 PUSH1 0x0 SWAP1 SSTORE PUSH1 0x8 DUP1 SLOAD DUP1 PUSH2 0x3CC9 JUMPI PUSH2 0x3CC8 PUSH2 0x5C5C JUMP JUMPDEST JUMPDEST PUSH1 0x1 SWAP1 SUB DUP2 DUP2 SWAP1 PUSH1 0x0 MSTORE PUSH1 0x20 PUSH1 0x0 KECCAK256 ADD PUSH1 0x0 SWAP1 SSTORE SWAP1 SSTORE POP POP POP POP JUMP JUMPDEST PUSH1 0x0 PUSH2 0x3CF0 DUP4 PUSH2 0x1C95 JUMP JUMPDEST SWAP1 POP DUP2 PUSH1 0x6 PUSH1 0x0 DUP6 PUSH20 0xFFFFFFFFFFFFFFFFFFFFFFFFFFFFFFFFFFFFFFFF AND PUSH20 0xFFFFFFFFFFFFFFFFFFFFFFFFFFFFFFFFFFFFFFFF AND DUP2 MSTORE PUSH1 0x20 ADD SWAP1 DUP2 MSTORE PUSH1 0x20 ADD PUSH1 0x0 KECCAK256 PUSH1 0x0 DUP4 DUP2 MSTORE PUSH1 0x20 ADD SWAP1 DUP2 MSTORE PUSH1 0x20 ADD PUSH1 0x0 KECCAK256 DUP2 SWAP1 SSTORE POP DUP1 PUSH1 0x7 PUSH1 0x0 DUP5 DUP2 MSTORE PUSH1 0x20 ADD SWAP1 DUP2 MSTORE PUSH1 0x20 ADD PUSH1 0x0 KECCAK256 DUP2 SWAP1 SSTORE POP POP POP POP JUMP JUMPDEST PUSH1 0x0 PUSH20 0xFFFFFFFFFFFFFFFFFFFFFFFFFFFFFFFFFFFFFFFF AND DUP3 PUSH20 0xFFFFFFFFFFFFFFFFFFFFFFFFFFFFFFFFFFFFFFFF AND EQ ISZERO PUSH2 0x3DD4 JUMPI PUSH1 0x40 MLOAD PUSH32 0x8C379A000000000000000000000000000000000000000000000000000000000 DUP2 MSTORE PUSH1 0x4 ADD PUSH2 0x3DCB SWAP1 PUSH2 0x5CD7 JUMP JUMPDEST PUSH1 0x40 MLOAD DUP1 SWAP2 SUB SWAP1 REVERT JUMPDEST PUSH2 0x3DDD DUP2 PUSH2 0x2CA7 JUMP JUMPDEST ISZERO PUSH2 0x3E1D JUMPI PUSH1 0x40 MLOAD PUSH32 0x8C379A000000000000000000000000000000000000000000000000000000000 DUP2 MSTORE PUSH1 0x4 ADD PUSH2 0x3E14 SWAP1 PUSH2 0x5D43 JUMP JUMPDEST PUSH1 0x40 MLOAD DUP1 SWAP2 SUB SWAP1 REVERT JUMPDEST PUSH2 0x3E29 PUSH1 0x0 DUP4 DUP4 PUSH2 0x36B7 JUMP JUMPDEST PUSH1 0x1 PUSH1 0x3 PUSH1 0x0 DUP5 PUSH20 0xFFFFFFFFFFFFFFFFFFFFFFFFFFFFFFFFFFFFFFFF AND PUSH20 0xFFFFFFFFFFFFFFFFFFFFFFFFFFFFFFFFFFFFFFFF AND DUP2 MSTORE PUSH1 0x20 ADD SWAP1 DUP2 MSTORE PUSH1 0x20 ADD PUSH1 0x0 KECCAK256 PUSH1 0x0 DUP3 DUP3 SLOAD PUSH2 0x3E79 SWAP2 SWAP1 PUSH2 0x4D1E JUMP JUMPDEST SWAP3 POP POP DUP2 SWAP1 SSTORE POP DUP2 PUSH1 0x2 PUSH1 0x0 DUP4 DUP2 MSTORE PUSH1 0x20 ADD SWAP1 DUP2 MSTORE PUSH1 0x20 ADD PUSH1 0x0 KECCAK256 PUSH1 0x0 PUSH2 0x100 EXP DUP2 SLOAD DUP2 PUSH20 0xFFFFFFFFFFFFFFFFFFFFFFFFFFFFFFFFFFFFFFFF MUL NOT AND SWAP1 DUP4 PUSH20 0xFFFFFFFFFFFFFFFFFFFFFFFFFFFFFFFFFFFFFFFF AND MUL OR SWAP1 SSTORE POP DUP1 DUP3 PUSH20 0xFFFFFFFFFFFFFFFFFFFFFFFFFFFFFFFFFFFFFFFF AND PUSH1 0x0 PUSH20 0xFFFFFFFFFFFFFFFFFFFFFFFFFFFFFFFFFFFFFFFF AND PUSH32 0xDDF252AD1BE2C89B69C2B068FC378DAA952BA7F163C4A11628F55A4DF523B3EF PUSH1 0x40 MLOAD PUSH1 0x40 MLOAD DUP1 SWAP2 SUB SWAP1 LOG4 POP POP JUMP JUMPDEST DUP3 DUP1 SLOAD PUSH2 0x3F3E SWAP1 PUSH2 0x490B JUMP JUMPDEST SWAP1 PUSH1 0x0 MSTORE PUSH1 0x20 PUSH1 0x0 KECCAK256 SWAP1 PUSH1 0x1F ADD PUSH1 0x20 SWAP1 DIV DUP2 ADD SWAP3 DUP3 PUSH2 0x3F60 JUMPI PUSH1 0x0 DUP6 SSTORE PUSH2 0x3FA7 JUMP JUMPDEST DUP3 PUSH1 0x1F LT PUSH2 0x3F79 JUMPI DUP1 MLOAD PUSH1 0xFF NOT AND DUP4 DUP1 ADD OR DUP6 SSTORE PUSH2 0x3FA7 JUMP JUMPDEST DUP3 DUP1 ADD PUSH1 0x1 ADD DUP6 SSTORE DUP3 ISZERO PUSH2 0x3FA7 JUMPI SWAP2 DUP3 ADD JUMPDEST DUP3 DUP2 GT ISZERO PUSH2 0x3FA6 JUMPI DUP3 MLOAD DUP3 SSTORE SWAP2 PUSH1 0x20 ADD SWAP2 SWAP1 PUSH1 0x1 ADD SWAP1 PUSH2 0x3F8B JUMP JUMPDEST JUMPDEST POP SWAP1 POP PUSH2 0x3FB4 SWAP2 SWAP1 PUSH2 0x3FB8 JUMP JUMPDEST POP SWAP1 JUMP JUMPDEST JUMPDEST DUP1 DUP3 GT ISZERO PUSH2 0x3FD1 JUMPI PUSH1 0x0 DUP2 PUSH1 0x0 SWAP1 SSTORE POP PUSH1 0x1 ADD PUSH2 0x3FB9 JUMP JUMPDEST POP SWAP1 JUMP JUMPDEST PUSH1 0x0 PUSH1 0x40 MLOAD SWAP1 POP SWAP1 JUMP JUMPDEST PUSH1 0x0 DUP1 REVERT JUMPDEST PUSH1 0x0 DUP1 REVERT JUMPDEST PUSH1 0x0 PUSH32 0xFFFFFFFF00000000000000000000000000000000000000000000000000000000 DUP3 AND SWAP1 POP SWAP2 SWAP1 POP JUMP JUMPDEST PUSH2 0x401E DUP2 PUSH2 0x3FE9 JUMP JUMPDEST DUP2 EQ PUSH2 0x4029 JUMPI PUSH1 0x0 DUP1 REVERT JUMPDEST POP JUMP JUMPDEST PUSH1 0x0 DUP2 CALLDATALOAD SWAP1 POP PUSH2 0x403B DUP2 PUSH2 0x4015 JUMP JUMPDEST SWAP3 SWAP2 POP POP JUMP JUMPDEST PUSH1 0x0 PUSH1 0x20 DUP3 DUP5 SUB SLT ISZERO PUSH2 0x4057 JUMPI PUSH2 0x4056 PUSH2 0x3FDF JUMP JUMPDEST JUMPDEST PUSH1 0x0 PUSH2 0x4065 DUP5 DUP3 DUP6 ADD PUSH2 0x402C JUMP JUMPDEST SWAP2 POP POP SWAP3 SWAP2 POP POP JUMP JUMPDEST PUSH1 0x0 DUP2 ISZERO ISZERO SWAP1 POP SWAP2 SWAP1 POP JUMP JUMPDEST PUSH2 0x4083 DUP2 PUSH2 0x406E JUMP JUMPDEST DUP3 MSTORE POP POP JUMP JUMPDEST PUSH1 0x0 PUSH1 0x20 DUP3 ADD SWAP1 POP PUSH2 0x409E PUSH1 0x0 DUP4 ADD DUP5 PUSH2 0x407A JUMP JUMPDEST SWAP3 SWAP2 POP POP JUMP JUMPDEST PUSH1 0x0 DUP2 MLOAD SWAP1 POP SWAP2 SWAP1 POP JUMP JUMPDEST PUSH1 0x0 DUP3 DUP3 MSTORE PUSH1 0x20 DUP3 ADD SWAP1 POP SWAP3 SWAP2 POP POP JUMP JUMPDEST PUSH1 0x0 JUMPDEST DUP4 DUP2 LT ISZERO PUSH2 0x40DE JUMPI DUP1 DUP3 ADD MLOAD DUP2 DUP5 ADD MSTORE PUSH1 0x20 DUP2 ADD SWAP1 POP PUSH2 0x40C3 JUMP JUMPDEST DUP4 DUP2 GT ISZERO PUSH2 0x40ED JUMPI PUSH1 0x0 DUP5 DUP5 ADD MSTORE JUMPDEST POP POP POP POP JUMP JUMPDEST PUSH1 0x0 PUSH1 0x1F NOT PUSH1 0x1F DUP4 ADD AND SWAP1 POP SWAP2 SWAP1 POP JUMP JUMPDEST PUSH1 0x0 PUSH2 0x410F DUP3 PUSH2 0x40A4 JUMP JUMPDEST PUSH2 0x4119 DUP2 DUP6 PUSH2 0x40AF JUMP JUMPDEST SWAP4 POP PUSH2 0x4129 DUP2 DUP6 PUSH1 0x20 DUP7 ADD PUSH2 0x40C0 JUMP JUMPDEST PUSH2 0x4132 DUP2 PUSH2 0x40F3 JUMP JUMPDEST DUP5 ADD SWAP2 POP POP SWAP3 SWAP2 POP POP JUMP JUMPDEST PUSH1 0x0 PUSH1 0x20 DUP3 ADD SWAP1 POP DUP2 DUP2 SUB PUSH1 0x0 DUP4 ADD MSTORE PUSH2 0x4157 DUP2 DUP5 PUSH2 0x4104 JUMP JUMPDEST SWAP1 POP SWAP3 SWAP2 POP POP JUMP JUMPDEST PUSH1 0x0 DUP2 SWAP1 POP SWAP2 SWAP1 POP JUMP JUMPDEST PUSH2 0x4172 DUP2 PUSH2 0x415F JUMP JUMPDEST DUP2 EQ PUSH2 0x417D JUMPI PUSH1 0x0 DUP1 REVERT JUMPDEST POP JUMP JUMPDEST PUSH1 0x0 DUP2 CALLDATALOAD SWAP1 POP PUSH2 0x418F DUP2 PUSH2 0x4169 JUMP JUMPDEST SWAP3 SWAP2 POP POP JUMP JUMPDEST PUSH1 0x0 PUSH1 0x20 DUP3 DUP5 SUB SLT ISZERO PUSH2 0x41AB JUMPI PUSH2 0x41AA PUSH2 0x3FDF JUMP JUMPDEST JUMPDEST PUSH1 0x0 PUSH2 0x41B9 DUP5 DUP3 DUP6 ADD PUSH2 0x4180 JUMP JUMPDEST SWAP2 POP POP SWAP3 SWAP2 POP POP JUMP JUMPDEST PUSH1 0x0 PUSH20 0xFFFFFFFFFFFFFFFFFFFFFFFFFFFFFFFFFFFFFFFF DUP3 AND SWAP1 POP SWAP2 SWAP1 POP JUMP JUMPDEST PUSH1 0x0 PUSH2 0x41ED DUP3 PUSH2 0x41C2 JUMP JUMPDEST SWAP1 POP SWAP2 SWAP1 POP JUMP JUMPDEST PUSH2 0x41FD DUP2 PUSH2 0x41E2 JUMP JUMPDEST DUP3 MSTORE POP POP JUMP JUMPDEST PUSH1 0x0 PUSH1 0x20 DUP3 ADD SWAP1 POP PUSH2 0x4218 PUSH1 0x0 DUP4 ADD DUP5 PUSH2 0x41F4 JUMP JUMPDEST SWAP3 SWAP2 POP POP JUMP JUMPDEST PUSH2 0x4227 DUP2 PUSH2 0x41E2 JUMP JUMPDEST DUP2 EQ PUSH2 0x4232 JUMPI PUSH1 0x0 DUP1 REVERT JUMPDEST POP JUMP JUMPDEST PUSH1 0x0 DUP2 CALLDATALOAD SWAP1 POP PUSH2 0x4244 DUP2 PUSH2 0x421E JUMP JUMPDEST SWAP3 SWAP2 POP POP JUMP JUMPDEST PUSH1 0x0 DUP1 PUSH1 0x40 DUP4 DUP6 SUB SLT ISZERO PUSH2 0x4261 JUMPI PUSH2 0x4260 PUSH2 0x3FDF JUMP JUMPDEST JUMPDEST PUSH1 0x0 PUSH2 0x426F DUP6 DUP3 DUP7 ADD PUSH2 0x4235 JUMP JUMPDEST SWAP3 POP POP PUSH1 0x20 PUSH2 0x4280 DUP6 DUP3 DUP7 ADD PUSH2 0x4180 JUMP JUMPDEST SWAP2 POP POP SWAP3 POP SWAP3 SWAP1 POP JUMP JUMPDEST PUSH2 0x4293 DUP2 PUSH2 0x415F JUMP JUMPDEST DUP3 MSTORE POP POP JUMP JUMPDEST PUSH1 0x0 PUSH1 0x20 DUP3 ADD SWAP1 POP PUSH2 0x42AE PUSH1 0x0 DUP4 ADD DUP5 PUSH2 0x428A JUMP JUMPDEST SWAP3 SWAP2 POP POP JUMP JUMPDEST PUSH1 0x0 DUP1 PUSH1 0x0 PUSH1 0x60 DUP5 DUP7 SUB SLT ISZERO PUSH2 0x42CD JUMPI PUSH2 0x42CC PUSH2 0x3FDF JUMP JUMPDEST JUMPDEST PUSH1 0x0 PUSH2 0x42DB DUP7 DUP3 DUP8 ADD PUSH2 0x4235 JUMP JUMPDEST SWAP4 POP POP PUSH1 0x20 PUSH2 0x42EC DUP7 DUP3 DUP8 ADD PUSH2 0x4235 JUMP JUMPDEST SWAP3 POP POP PUSH1 0x40 PUSH2 0x42FD DUP7 DUP3 DUP8 ADD PUSH2 0x4180 JUMP JUMPDEST SWAP2 POP POP SWAP3 POP SWAP3 POP SWAP3 JUMP JUMPDEST PUSH1 0x0 PUSH1 0x20 DUP3 DUP5 SUB SLT ISZERO PUSH2 0x431D JUMPI PUSH2 0x431C PUSH2 0x3FDF JUMP JUMPDEST JUMPDEST PUSH1 0x0 PUSH2 0x432B DUP5 DUP3 DUP6 ADD PUSH2 0x4235 JUMP JUMPDEST SWAP2 POP POP SWAP3 SWAP2 POP POP JUMP JUMPDEST PUSH1 0x0 DUP1 REVERT JUMPDEST PUSH1 0x0 DUP1 REVERT JUMPDEST PUSH32 0x4E487B7100000000000000000000000000000000000000000000000000000000 PUSH1 0x0 MSTORE PUSH1 0x41 PUSH1 0x4 MSTORE PUSH1 0x24 PUSH1 0x0 REVERT JUMPDEST PUSH2 0x4376 DUP3 PUSH2 0x40F3 JUMP JUMPDEST DUP2 ADD DUP2 DUP2 LT PUSH8 0xFFFFFFFFFFFFFFFF DUP3 GT OR ISZERO PUSH2 0x4395 JUMPI PUSH2 0x4394 PUSH2 0x433E JUMP JUMPDEST JUMPDEST DUP1 PUSH1 0x40 MSTORE POP POP POP JUMP JUMPDEST PUSH1 0x0 PUSH2 0x43A8 PUSH2 0x3FD5 JUMP JUMPDEST SWAP1 POP PUSH2 0x43B4 DUP3 DUP3 PUSH2 0x436D JUMP JUMPDEST SWAP2 SWAP1 POP JUMP JUMPDEST PUSH1 0x0 PUSH8 0xFFFFFFFFFFFFFFFF DUP3 GT ISZERO PUSH2 0x43D4 JUMPI PUSH2 0x43D3 PUSH2 0x433E JUMP JUMPDEST JUMPDEST PUSH2 0x43DD DUP3 PUSH2 0x40F3 JUMP JUMPDEST SWAP1 POP PUSH1 0x20 DUP2 ADD SWAP1 POP SWAP2 SWAP1 POP JUMP JUMPDEST DUP3 DUP2 DUP4 CALLDATACOPY PUSH1 0x0 DUP4 DUP4 ADD MSTORE POP POP POP JUMP JUMPDEST PUSH1 0x0 PUSH2 0x440C PUSH2 0x4407 DUP5 PUSH2 0x43B9 JUMP JUMPDEST PUSH2 0x439E JUMP JUMPDEST SWAP1 POP DUP3 DUP2 MSTORE PUSH1 0x20 DUP2 ADD DUP5 DUP5 DUP5 ADD GT ISZERO PUSH2 0x4428 JUMPI PUSH2 0x4427 PUSH2 0x4339 JUMP JUMPDEST JUMPDEST PUSH2 0x4433 DUP5 DUP3 DUP6 PUSH2 0x43EA JUMP JUMPDEST POP SWAP4 SWAP3 POP POP POP JUMP JUMPDEST PUSH1 0x0 DUP3 PUSH1 0x1F DUP4 ADD SLT PUSH2 0x4450 JUMPI PUSH2 0x444F PUSH2 0x4334 JUMP JUMPDEST JUMPDEST DUP2 CALLDATALOAD PUSH2 0x4460 DUP5 DUP3 PUSH1 0x20 DUP7 ADD PUSH2 0x43F9 JUMP JUMPDEST SWAP2 POP POP SWAP3 SWAP2 POP POP JUMP JUMPDEST PUSH1 0x0 PUSH1 0x20 DUP3 DUP5 SUB SLT ISZERO PUSH2 0x447F JUMPI PUSH2 0x447E PUSH2 0x3FDF JUMP JUMPDEST JUMPDEST PUSH1 0x0 DUP3 ADD CALLDATALOAD PUSH8 0xFFFFFFFFFFFFFFFF DUP2 GT ISZERO PUSH2 0x449D JUMPI PUSH2 0x449C PUSH2 0x3FE4 JUMP JUMPDEST JUMPDEST PUSH2 0x44A9 DUP5 DUP3 DUP6 ADD PUSH2 0x443B JUMP JUMPDEST SWAP2 POP POP SWAP3 SWAP2 POP POP JUMP JUMPDEST PUSH1 0x0 DUP1 PUSH1 0x40 DUP4 DUP6 SUB SLT ISZERO PUSH2 0x44C9 JUMPI PUSH2 0x44C8 PUSH2 0x3FDF JUMP JUMPDEST JUMPDEST PUSH1 0x0 PUSH2 0x44D7 DUP6 DUP3 DUP7 ADD PUSH2 0x4180 JUMP JUMPDEST SWAP3 POP POP PUSH1 0x20 PUSH2 0x44E8 DUP6 DUP3 DUP7 ADD PUSH2 0x4235 JUMP JUMPDEST SWAP2 POP POP SWAP3 POP SWAP3 SWAP1 POP JUMP JUMPDEST PUSH1 0x0 DUP1 PUSH1 0x0 DUP1 PUSH1 0x0 DUP1 PUSH1 0xC0 DUP8 DUP10 SUB SLT ISZERO PUSH2 0x450F JUMPI PUSH2 0x450E PUSH2 0x3FDF JUMP JUMPDEST JUMPDEST PUSH1 0x0 PUSH2 0x451D DUP10 DUP3 DUP11 ADD PUSH2 0x4180 JUMP JUMPDEST SWAP7 POP POP PUSH1 0x20 PUSH2 0x452E DUP10 DUP3 DUP11 ADD PUSH2 0x4180 JUMP JUMPDEST SWAP6 POP POP PUSH1 0x40 PUSH2 0x453F DUP10 DUP3 DUP11 ADD PUSH2 0x4180 JUMP JUMPDEST SWAP5 POP POP PUSH1 0x60 PUSH2 0x4550 DUP10 DUP3 DUP11 ADD PUSH2 0x4180 JUMP JUMPDEST SWAP4 POP POP PUSH1 0x80 PUSH2 0x4561 DUP10 DUP3 DUP11 ADD PUSH2 0x4180 JUMP JUMPDEST SWAP3 POP POP PUSH1 0xA0 PUSH2 0x4572 DUP10 DUP3 DUP11 ADD PUSH2 0x4180 JUMP JUMPDEST SWAP2 POP POP SWAP3 SWAP6 POP SWAP3 SWAP6 POP SWAP3 SWAP6 JUMP JUMPDEST PUSH1 0x0 DUP1 REVERT JUMPDEST PUSH1 0x0 DUP1 REVERT JUMPDEST PUSH1 0x0 DUP1 DUP4 PUSH1 0x1F DUP5 ADD SLT PUSH2 0x459F JUMPI PUSH2 0x459E PUSH2 0x4334 JUMP JUMPDEST JUMPDEST DUP3 CALLDATALOAD SWAP1 POP PUSH8 0xFFFFFFFFFFFFFFFF DUP2 GT ISZERO PUSH2 0x45BC JUMPI PUSH2 0x45BB PUSH2 0x457F JUMP JUMPDEST JUMPDEST PUSH1 0x20 DUP4 ADD SWAP2 POP DUP4 PUSH1 0x20 DUP3 MUL DUP4 ADD GT ISZERO PUSH2 0x45D8 JUMPI PUSH2 0x45D7 PUSH2 0x4584 JUMP JUMPDEST JUMPDEST SWAP3 POP SWAP3 SWAP1 POP JUMP JUMPDEST PUSH1 0x0 DUP1 PUSH1 0x20 DUP4 DUP6 SUB SLT ISZERO PUSH2 0x45F6 JUMPI PUSH2 0x45F5 PUSH2 0x3FDF JUMP JUMPDEST JUMPDEST PUSH1 0x0 DUP4 ADD CALLDATALOAD PUSH8 0xFFFFFFFFFFFFFFFF DUP2 GT ISZERO PUSH2 0x4614 JUMPI PUSH2 0x4613 PUSH2 0x3FE4 JUMP JUMPDEST JUMPDEST PUSH2 0x4620 DUP6 DUP3 DUP7 ADD PUSH2 0x4589 JUMP JUMPDEST SWAP3 POP SWAP3 POP POP SWAP3 POP SWAP3 SWAP1 POP JUMP JUMPDEST PUSH2 0x4635 DUP2 PUSH2 0x406E JUMP JUMPDEST DUP2 EQ PUSH2 0x4640 JUMPI PUSH1 0x0 DUP1 REVERT JUMPDEST POP JUMP JUMPDEST PUSH1 0x0 DUP2 CALLDATALOAD SWAP1 POP PUSH2 0x4652 DUP2 PUSH2 0x462C JUMP JUMPDEST SWAP3 SWAP2 POP POP JUMP JUMPDEST PUSH1 0x0 DUP1 PUSH1 0x40 DUP4 DUP6 SUB SLT ISZERO PUSH2 0x466F JUMPI PUSH2 0x466E PUSH2 0x3FDF JUMP JUMPDEST JUMPDEST PUSH1 0x0 PUSH2 0x467D DUP6 DUP3 DUP7 ADD PUSH2 0x4235 JUMP JUMPDEST SWAP3 POP POP PUSH1 0x20 PUSH2 0x468E DUP6 DUP3 DUP7 ADD PUSH2 0x4643 JUMP JUMPDEST SWAP2 POP POP SWAP3 POP SWAP3 SWAP1 POP JUMP JUMPDEST PUSH1 0x0 PUSH8 0xFFFFFFFFFFFFFFFF DUP3 GT ISZERO PUSH2 0x46B3 JUMPI PUSH2 0x46B2 PUSH2 0x433E JUMP JUMPDEST JUMPDEST PUSH2 0x46BC DUP3 PUSH2 0x40F3 JUMP JUMPDEST SWAP1 POP PUSH1 0x20 DUP2 ADD SWAP1 POP SWAP2 SWAP1 POP JUMP JUMPDEST PUSH1 0x0 PUSH2 0x46DC PUSH2 0x46D7 DUP5 PUSH2 0x4698 JUMP JUMPDEST PUSH2 0x439E JUMP JUMPDEST SWAP1 POP DUP3 DUP2 MSTORE PUSH1 0x20 DUP2 ADD DUP5 DUP5 DUP5 ADD GT ISZERO PUSH2 0x46F8 JUMPI PUSH2 0x46F7 PUSH2 0x4339 JUMP JUMPDEST JUMPDEST PUSH2 0x4703 DUP5 DUP3 DUP6 PUSH2 0x43EA JUMP JUMPDEST POP SWAP4 SWAP3 POP POP POP JUMP JUMPDEST PUSH1 0x0 DUP3 PUSH1 0x1F DUP4 ADD SLT PUSH2 0x4720 JUMPI PUSH2 0x471F PUSH2 0x4334 JUMP JUMPDEST JUMPDEST DUP2 CALLDATALOAD PUSH2 0x4730 DUP5 DUP3 PUSH1 0x20 DUP7 ADD PUSH2 0x46C9 JUMP JUMPDEST SWAP2 POP POP SWAP3 SWAP2 POP POP JUMP JUMPDEST PUSH1 0x0 DUP1 PUSH1 0x0 DUP1 PUSH1 0x80 DUP6 DUP8 SUB SLT ISZERO PUSH2 0x4753 JUMPI PUSH2 0x4752 PUSH2 0x3FDF JUMP JUMPDEST JUMPDEST PUSH1 0x0 PUSH2 0x4761 DUP8 DUP3 DUP9 ADD PUSH2 0x4235 JUMP JUMPDEST SWAP5 POP POP PUSH1 0x20 PUSH2 0x4772 DUP8 DUP3 DUP9 ADD PUSH2 0x4235 JUMP JUMPDEST SWAP4 POP POP PUSH1 0x40 PUSH2 0x4783 DUP8 DUP3 DUP9 ADD PUSH2 0x4180 JUMP JUMPDEST SWAP3 POP POP PUSH1 0x60 DUP6 ADD CALLDATALOAD PUSH8 0xFFFFFFFFFFFFFFFF DUP2 GT ISZERO PUSH2 0x47A4 JUMPI PUSH2 0x47A3 PUSH2 0x3FE4 JUMP JUMPDEST JUMPDEST PUSH2 0x47B0 DUP8 DUP3 DUP9 ADD PUSH2 0x470B JUMP JUMPDEST SWAP2 POP POP SWAP3 SWAP6 SWAP2 SWAP5 POP SWAP3 POP JUMP JUMPDEST PUSH1 0x0 DUP2 MLOAD SWAP1 POP SWAP2 SWAP1 POP JUMP JUMPDEST PUSH1 0x0 DUP3 DUP3 MSTORE PUSH1 0x20 DUP3 ADD SWAP1 POP SWAP3 SWAP2 POP POP JUMP JUMPDEST PUSH1 0x0 DUP2 SWAP1 POP PUSH1 0x20 DUP3 ADD SWAP1 POP SWAP2 SWAP1 POP JUMP JUMPDEST PUSH2 0x47F1 DUP2 PUSH2 0x415F JUMP JUMPDEST DUP3 MSTORE POP POP JUMP JUMPDEST PUSH1 0x0 PUSH2 0x4803 DUP4 DUP4 PUSH2 0x47E8 JUMP JUMPDEST PUSH1 0x20 DUP4 ADD SWAP1 POP SWAP3 SWAP2 POP POP JUMP JUMPDEST PUSH1 0x0 PUSH1 0x20 DUP3 ADD SWAP1 POP SWAP2 SWAP1 POP JUMP JUMPDEST PUSH1 0x0 PUSH2 0x4827 DUP3 PUSH2 0x47BC JUMP JUMPDEST PUSH2 0x4831 DUP2 DUP6 PUSH2 0x47C7 JUMP JUMPDEST SWAP4 POP PUSH2 0x483C DUP4 PUSH2 0x47D8 JUMP JUMPDEST DUP1 PUSH1 0x0 JUMPDEST DUP4 DUP2 LT ISZERO PUSH2 0x486D JUMPI DUP2 MLOAD PUSH2 0x4854 DUP9 DUP3 PUSH2 0x47F7 JUMP JUMPDEST SWAP8 POP PUSH2 0x485F DUP4 PUSH2 0x480F JUMP JUMPDEST SWAP3 POP POP PUSH1 0x1 DUP2 ADD SWAP1 POP PUSH2 0x4840 JUMP JUMPDEST POP DUP6 SWAP4 POP POP POP POP SWAP3 SWAP2 POP POP JUMP JUMPDEST PUSH1 0x0 PUSH1 0x20 DUP3 ADD SWAP1 POP DUP2 DUP2 SUB PUSH1 0x0 DUP4 ADD MSTORE PUSH2 0x4894 DUP2 DUP5 PUSH2 0x481C JUMP JUMPDEST SWAP1 POP SWAP3 SWAP2 POP POP JUMP JUMPDEST PUSH1 0x0 DUP1 PUSH1 0x40 DUP4 DUP6 SUB SLT ISZERO PUSH2 0x48B3 JUMPI PUSH2 0x48B2 PUSH2 0x3FDF JUMP JUMPDEST JUMPDEST PUSH1 0x0 PUSH2 0x48C1 DUP6 DUP3 DUP7 ADD PUSH2 0x4235 JUMP JUMPDEST SWAP3 POP POP PUSH1 0x20 PUSH2 0x48D2 DUP6 DUP3 DUP7 ADD PUSH2 0x4235 JUMP JUMPDEST SWAP2 POP POP SWAP3 POP SWAP3 SWAP1 POP JUMP JUMPDEST PUSH32 0x4E487B7100000000000000000000000000000000000000000000000000000000 PUSH1 0x0 MSTORE PUSH1 0x22 PUSH1 0x4 MSTORE PUSH1 0x24 PUSH1 0x0 REVERT JUMPDEST PUSH1 0x0 PUSH1 0x2 DUP3 DIV SWAP1 POP PUSH1 0x1 DUP3 AND DUP1 PUSH2 0x4923 JUMPI PUSH1 0x7F DUP3 AND SWAP2 POP JUMPDEST PUSH1 0x20 DUP3 LT DUP2 EQ ISZERO PUSH2 0x4937 JUMPI PUSH2 0x4936 PUSH2 0x48DC JUMP JUMPDEST JUMPDEST POP SWAP2 SWAP1 POP JUMP JUMPDEST PUSH32 0x4552433732313A20617070726F76656420717565727920666F72206E6F6E6578 PUSH1 0x0 DUP3 ADD MSTORE PUSH32 0x697374656E7420746F6B656E0000000000000000000000000000000000000000 PUSH1 0x20 DUP3 ADD MSTORE POP JUMP JUMPDEST PUSH1 0x0 PUSH2 0x4999 PUSH1 0x2C DUP4 PUSH2 0x40AF JUMP JUMPDEST SWAP2 POP PUSH2 0x49A4 DUP3 PUSH2 0x493D JUMP JUMPDEST PUSH1 0x40 DUP3 ADD SWAP1 POP SWAP2 SWAP1 POP JUMP JUMPDEST PUSH1 0x0 PUSH1 0x20 DUP3 ADD SWAP1 POP DUP2 DUP2 SUB PUSH1 0x0 DUP4 ADD MSTORE PUSH2 0x49C8 DUP2 PUSH2 0x498C JUMP JUMPDEST SWAP1 POP SWAP2 SWAP1 POP JUMP JUMPDEST PUSH32 0x4552433732313A20617070726F76616C20746F2063757272656E74206F776E65 PUSH1 0x0 DUP3 ADD MSTORE PUSH32 0x7200000000000000000000000000000000000000000000000000000000000000 PUSH1 0x20 DUP3 ADD MSTORE POP JUMP JUMPDEST PUSH1 0x0 PUSH2 0x4A2B PUSH1 0x21 DUP4 PUSH2 0x40AF JUMP JUMPDEST SWAP2 POP PUSH2 0x4A36 DUP3 PUSH2 0x49CF JUMP JUMPDEST PUSH1 0x40 DUP3 ADD SWAP1 POP SWAP2 SWAP1 POP JUMP JUMPDEST PUSH1 0x0 PUSH1 0x20 DUP3 ADD SWAP1 POP DUP2 DUP2 SUB PUSH1 0x0 DUP4 ADD MSTORE PUSH2 0x4A5A DUP2 PUSH2 0x4A1E JUMP JUMPDEST SWAP1 POP SWAP2 SWAP1 POP JUMP JUMPDEST PUSH32 0x4552433732313A20617070726F76652063616C6C6572206973206E6F74206F77 PUSH1 0x0 DUP3 ADD MSTORE PUSH32 0x6E6572206E6F7220617070726F76656420666F7220616C6C0000000000000000 PUSH1 0x20 DUP3 ADD MSTORE POP JUMP JUMPDEST PUSH1 0x0 PUSH2 0x4ABD PUSH1 0x38 DUP4 PUSH2 0x40AF JUMP JUMPDEST SWAP2 POP PUSH2 0x4AC8 DUP3 PUSH2 0x4A61 JUMP JUMPDEST PUSH1 0x40 DUP3 ADD SWAP1 POP SWAP2 SWAP1 POP JUMP JUMPDEST PUSH1 0x0 PUSH1 0x20 DUP3 ADD SWAP1 POP DUP2 DUP2 SUB PUSH1 0x0 DUP4 ADD MSTORE PUSH2 0x4AEC DUP2 PUSH2 0x4AB0 JUMP JUMPDEST SWAP1 POP SWAP2 SWAP1 POP JUMP JUMPDEST PUSH32 0x4F776E61626C653A2063616C6C6572206973206E6F7420746865206F776E6572 PUSH1 0x0 DUP3 ADD MSTORE POP JUMP JUMPDEST PUSH1 0x0 PUSH2 0x4B29 PUSH1 0x20 DUP4 PUSH2 0x40AF JUMP JUMPDEST SWAP2 POP PUSH2 0x4B34 DUP3 PUSH2 0x4AF3 JUMP JUMPDEST PUSH1 0x20 DUP3 ADD SWAP1 POP SWAP2 SWAP1 POP JUMP JUMPDEST PUSH1 0x0 PUSH1 0x20 DUP3 ADD SWAP1 POP DUP2 DUP2 SUB PUSH1 0x0 DUP4 ADD MSTORE PUSH2 0x4B58 DUP2 PUSH2 0x4B1C JUMP JUMPDEST SWAP1 POP SWAP2 SWAP1 POP JUMP JUMPDEST PUSH32 0x4552433732313A207472616E736665722063616C6C6572206973206E6F74206F PUSH1 0x0 DUP3 ADD MSTORE PUSH32 0x776E6572206E6F7220617070726F766564000000000000000000000000000000 PUSH1 0x20 DUP3 ADD MSTORE POP JUMP JUMPDEST PUSH1 0x0 PUSH2 0x4BBB PUSH1 0x31 DUP4 PUSH2 0x40AF JUMP JUMPDEST SWAP2 POP PUSH2 0x4BC6 DUP3 PUSH2 0x4B5F JUMP JUMPDEST PUSH1 0x40 DUP3 ADD SWAP1 POP SWAP2 SWAP1 POP JUMP JUMPDEST PUSH1 0x0 PUSH1 0x20 DUP3 ADD SWAP1 POP DUP2 DUP2 SUB PUSH1 0x0 DUP4 ADD MSTORE PUSH2 0x4BEA DUP2 PUSH2 0x4BAE JUMP JUMPDEST SWAP1 POP SWAP2 SWAP1 POP JUMP JUMPDEST PUSH32 0x41756374696F6E206D7573742062652061637469766520746F206D696E742059 PUSH1 0x0 DUP3 ADD MSTORE PUSH32 0x6F6C6F4361747300000000000000000000000000000000000000000000000000 PUSH1 0x20 DUP3 ADD MSTORE POP JUMP JUMPDEST PUSH1 0x0 PUSH2 0x4C4D PUSH1 0x27 DUP4 PUSH2 0x40AF JUMP JUMPDEST SWAP2 POP PUSH2 0x4C58 DUP3 PUSH2 0x4BF1 JUMP JUMPDEST PUSH1 0x40 DUP3 ADD SWAP1 POP SWAP2 SWAP1 POP JUMP JUMPDEST PUSH1 0x0 PUSH1 0x20 DUP3 ADD SWAP1 POP DUP2 DUP2 SUB PUSH1 0x0 DUP4 ADD MSTORE PUSH2 0x4C7C DUP2 PUSH2 0x4C40 JUMP JUMPDEST SWAP1 POP SWAP2 SWAP1 POP JUMP JUMPDEST PUSH32 0x41756374696F6E206E6F74207374617274000000000000000000000000000000 PUSH1 0x0 DUP3 ADD MSTORE POP JUMP JUMPDEST PUSH1 0x0 PUSH2 0x4CB9 PUSH1 0x11 DUP4 PUSH2 0x40AF JUMP JUMPDEST SWAP2 POP PUSH2 0x4CC4 DUP3 PUSH2 0x4C83 JUMP JUMPDEST PUSH1 0x20 DUP3 ADD SWAP1 POP SWAP2 SWAP1 POP JUMP JUMPDEST PUSH1 0x0 PUSH1 0x20 DUP3 ADD SWAP1 POP DUP2 DUP2 SUB PUSH1 0x0 DUP4 ADD MSTORE PUSH2 0x4CE8 DUP2 PUSH2 0x4CAC JUMP JUMPDEST SWAP1 POP SWAP2 SWAP1 POP JUMP JUMPDEST PUSH32 0x4E487B7100000000000000000000000000000000000000000000000000000000 PUSH1 0x0 MSTORE PUSH1 0x11 PUSH1 0x4 MSTORE PUSH1 0x24 PUSH1 0x0 REVERT JUMPDEST PUSH1 0x0 PUSH2 0x4D29 DUP3 PUSH2 0x415F JUMP JUMPDEST SWAP2 POP PUSH2 0x4D34 DUP4 PUSH2 0x415F JUMP JUMPDEST SWAP3 POP DUP3 PUSH32 0xFFFFFFFFFFFFFFFFFFFFFFFFFFFFFFFFFFFFFFFFFFFFFFFFFFFFFFFFFFFFFFFF SUB DUP3 GT ISZERO PUSH2 0x4D69 JUMPI PUSH2 0x4D68 PUSH2 0x4CEF JUMP JUMPDEST JUMPDEST DUP3 DUP3 ADD SWAP1 POP SWAP3 SWAP2 POP POP JUMP JUMPDEST PUSH32 0x41756374696F6E20776F756C6420657863656564207469657220737570706C79 PUSH1 0x0 DUP3 ADD MSTORE POP JUMP JUMPDEST PUSH1 0x0 PUSH2 0x4DAA PUSH1 0x20 DUP4 PUSH2 0x40AF JUMP JUMPDEST SWAP2 POP PUSH2 0x4DB5 DUP3 PUSH2 0x4D74 JUMP JUMPDEST PUSH1 0x20 DUP3 ADD SWAP1 POP SWAP2 SWAP1 POP JUMP JUMPDEST PUSH1 0x0 PUSH1 0x20 DUP3 ADD SWAP1 POP DUP2 DUP2 SUB PUSH1 0x0 DUP4 ADD MSTORE PUSH2 0x4DD9 DUP2 PUSH2 0x4D9D JUMP JUMPDEST SWAP1 POP SWAP2 SWAP1 POP JUMP JUMPDEST PUSH32 0x41756374696F6E20776F756C6420657863656564206D617820737570706C7900 PUSH1 0x0 DUP3 ADD MSTORE POP JUMP JUMPDEST PUSH1 0x0 PUSH2 0x4E16 PUSH1 0x1F DUP4 PUSH2 0x40AF JUMP JUMPDEST SWAP2 POP PUSH2 0x4E21 DUP3 PUSH2 0x4DE0 JUMP JUMPDEST PUSH1 0x20 DUP3 ADD SWAP1 POP SWAP2 SWAP1 POP JUMP JUMPDEST PUSH1 0x0 PUSH1 0x20 DUP3 ADD SWAP1 POP DUP2 DUP2 SUB PUSH1 0x0 DUP4 ADD MSTORE PUSH2 0x4E45 DUP2 PUSH2 0x4E09 JUMP JUMPDEST SWAP1 POP SWAP2 SWAP1 POP JUMP JUMPDEST PUSH32 0x41756374696F6E20776F756C6420657863656564206D61782062616C616E6365 PUSH1 0x0 DUP3 ADD MSTORE POP JUMP JUMPDEST PUSH1 0x0 PUSH2 0x4E82 PUSH1 0x20 DUP4 PUSH2 0x40AF JUMP JUMPDEST SWAP2 POP PUSH2 0x4E8D DUP3 PUSH2 0x4E4C JUMP JUMPDEST PUSH1 0x20 DUP3 ADD SWAP1 POP SWAP2 SWAP1 POP JUMP JUMPDEST PUSH1 0x0 PUSH1 0x20 DUP3 ADD SWAP1 POP DUP2 DUP2 SUB PUSH1 0x0 DUP4 ADD MSTORE PUSH2 0x4EB1 DUP2 PUSH2 0x4E75 JUMP JUMPDEST SWAP1 POP SWAP2 SWAP1 POP JUMP JUMPDEST PUSH32 0x41756374696F6E20776F756C6420657863656564206D6178206D696E74000000 PUSH1 0x0 DUP3 ADD MSTORE POP JUMP JUMPDEST PUSH1 0x0 PUSH2 0x4EEE PUSH1 0x1D DUP4 PUSH2 0x40AF JUMP JUMPDEST SWAP2 POP PUSH2 0x4EF9 DUP3 PUSH2 0x4EB8 JUMP JUMPDEST PUSH1 0x20 DUP3 ADD SWAP1 POP SWAP2 SWAP1 POP JUMP JUMPDEST PUSH1 0x0 PUSH1 0x20 DUP3 ADD SWAP1 POP DUP2 DUP2 SUB PUSH1 0x0 DUP4 ADD MSTORE PUSH2 0x4F1D DUP2 PUSH2 0x4EE1 JUMP JUMPDEST SWAP1 POP SWAP2 SWAP1 POP JUMP JUMPDEST PUSH1 0x0 PUSH2 0x4F2F DUP3 PUSH2 0x415F JUMP JUMPDEST SWAP2 POP PUSH2 0x4F3A DUP4 PUSH2 0x415F JUMP JUMPDEST SWAP3 POP DUP2 PUSH32 0xFFFFFFFFFFFFFFFFFFFFFFFFFFFFFFFFFFFFFFFFFFFFFFFFFFFFFFFFFFFFFFFF DIV DUP4 GT DUP3 ISZERO ISZERO AND ISZERO PUSH2 0x4F73 JUMPI PUSH2 0x4F72 PUSH2 0x4CEF JUMP JUMPDEST JUMPDEST DUP3 DUP3 MUL SWAP1 POP SWAP3 SWAP2 POP POP JUMP JUMPDEST PUSH32 0x4E6F7420656E6F7567682065746865722073656E740000000000000000000000 PUSH1 0x0 DUP3 ADD MSTORE POP JUMP JUMPDEST PUSH1 0x0 PUSH2 0x4FB4 PUSH1 0x15 DUP4 PUSH2 0x40AF JUMP JUMPDEST SWAP2 POP PUSH2 0x4FBF DUP3 PUSH2 0x4F7E JUMP JUMPDEST PUSH1 0x20 DUP3 ADD SWAP1 POP SWAP2 SWAP1 POP JUMP JUMPDEST PUSH1 0x0 PUSH1 0x20 DUP3 ADD SWAP1 POP DUP2 DUP2 SUB PUSH1 0x0 DUP4 ADD MSTORE PUSH2 0x4FE3 DUP2 PUSH2 0x4FA7 JUMP JUMPDEST SWAP1 POP SWAP2 SWAP1 POP JUMP JUMPDEST PUSH32 0x455243373231456E756D657261626C653A206F776E657220696E646578206F75 PUSH1 0x0 DUP3 ADD MSTORE PUSH32 0x74206F6620626F756E6473000000000000000000000000000000000000000000 PUSH1 0x20 DUP3 ADD MSTORE POP JUMP JUMPDEST PUSH1 0x0 PUSH2 0x5046 PUSH1 0x2B DUP4 PUSH2 0x40AF JUMP JUMPDEST SWAP2 POP PUSH2 0x5051 DUP3 PUSH2 0x4FEA JUMP JUMPDEST PUSH1 0x40 DUP3 ADD SWAP1 POP SWAP2 SWAP1 POP JUMP JUMPDEST PUSH1 0x0 PUSH1 0x20 DUP3 ADD SWAP1 POP DUP2 DUP2 SUB PUSH1 0x0 DUP4 ADD MSTORE PUSH2 0x5075 DUP2 PUSH2 0x5039 JUMP JUMPDEST SWAP1 POP SWAP2 SWAP1 POP JUMP JUMPDEST PUSH1 0x0 PUSH2 0x5087 DUP3 PUSH2 0x415F JUMP JUMPDEST SWAP2 POP PUSH2 0x5092 DUP4 PUSH2 0x415F JUMP JUMPDEST SWAP3 POP DUP3 DUP3 LT ISZERO PUSH2 0x50A5 JUMPI PUSH2 0x50A4 PUSH2 0x4CEF JUMP JUMPDEST JUMPDEST DUP3 DUP3 SUB SWAP1 POP SWAP3 SWAP2 POP POP JUMP JUMPDEST PUSH32 0x4E487B7100000000000000000000000000000000000000000000000000000000 PUSH1 0x0 MSTORE PUSH1 0x12 PUSH1 0x4 MSTORE PUSH1 0x24 PUSH1 0x0 REVERT JUMPDEST PUSH1 0x0 PUSH2 0x50EA DUP3 PUSH2 0x415F JUMP JUMPDEST SWAP2 POP PUSH2 0x50F5 DUP4 PUSH2 0x415F JUMP JUMPDEST SWAP3 POP DUP3 PUSH2 0x5105 JUMPI PUSH2 0x5104 PUSH2 0x50B0 JUMP JUMPDEST JUMPDEST DUP3 DUP3 DIV SWAP1 POP SWAP3 SWAP2 POP POP JUMP JUMPDEST PUSH32 0x455243373231456E756D657261626C653A20676C6F62616C20696E646578206F PUSH1 0x0 DUP3 ADD MSTORE PUSH32 0x7574206F6620626F756E64730000000000000000000000000000000000000000 PUSH1 0x20 DUP3 ADD MSTORE POP JUMP JUMPDEST PUSH1 0x0 PUSH2 0x516C PUSH1 0x2C DUP4 PUSH2 0x40AF JUMP JUMPDEST SWAP2 POP PUSH2 0x5177 DUP3 PUSH2 0x5110 JUMP JUMPDEST PUSH1 0x40 DUP3 ADD SWAP1 POP SWAP2 SWAP1 POP JUMP JUMPDEST PUSH1 0x0 PUSH1 0x20 DUP3 ADD SWAP1 POP DUP2 DUP2 SUB PUSH1 0x0 DUP4 ADD MSTORE PUSH2 0x519B DUP2 PUSH2 0x515F JUMP JUMPDEST SWAP1 POP SWAP2 SWAP1 POP JUMP JUMPDEST PUSH32 0x4E487B7100000000000000000000000000000000000000000000000000000000 PUSH1 0x0 MSTORE PUSH1 0x32 PUSH1 0x4 MSTORE PUSH1 0x24 PUSH1 0x0 REVERT JUMPDEST PUSH32 0x5072657365727665206D696E7420776F756C6420657863656564207469657220 PUSH1 0x0 DUP3 ADD MSTORE PUSH32 0x737570706C790000000000000000000000000000000000000000000000000000 PUSH1 0x20 DUP3 ADD MSTORE POP JUMP JUMPDEST PUSH1 0x0 PUSH2 0x522D PUSH1 0x26 DUP4 PUSH2 0x40AF JUMP JUMPDEST SWAP2 POP PUSH2 0x5238 DUP3 PUSH2 0x51D1 JUMP JUMPDEST PUSH1 0x40 DUP3 ADD SWAP1 POP SWAP2 SWAP1 POP JUMP JUMPDEST PUSH1 0x0 PUSH1 0x20 DUP3 ADD SWAP1 POP DUP2 DUP2 SUB PUSH1 0x0 DUP4 ADD MSTORE PUSH2 0x525C DUP2 PUSH2 0x5220 JUMP JUMPDEST SWAP1 POP SWAP2 SWAP1 POP JUMP JUMPDEST PUSH32 0x5072657365727665206D696E7420776F756C6420657863656564206D61782073 PUSH1 0x0 DUP3 ADD MSTORE PUSH32 0x7570706C79000000000000000000000000000000000000000000000000000000 PUSH1 0x20 DUP3 ADD MSTORE POP JUMP JUMPDEST PUSH1 0x0 PUSH2 0x52BF PUSH1 0x25 DUP4 PUSH2 0x40AF JUMP JUMPDEST SWAP2 POP PUSH2 0x52CA DUP3 PUSH2 0x5263 JUMP JUMPDEST PUSH1 0x40 DUP3 ADD SWAP1 POP SWAP2 SWAP1 POP JUMP JUMPDEST PUSH1 0x0 PUSH1 0x20 DUP3 ADD SWAP1 POP DUP2 DUP2 SUB PUSH1 0x0 DUP4 ADD MSTORE PUSH2 0x52EE DUP2 PUSH2 0x52B2 JUMP JUMPDEST SWAP1 POP SWAP2 SWAP1 POP JUMP JUMPDEST PUSH32 0x4552433732313A206F776E657220717565727920666F72206E6F6E6578697374 PUSH1 0x0 DUP3 ADD MSTORE PUSH32 0x656E7420746F6B656E0000000000000000000000000000000000000000000000 PUSH1 0x20 DUP3 ADD MSTORE POP JUMP JUMPDEST PUSH1 0x0 PUSH2 0x5351 PUSH1 0x29 DUP4 PUSH2 0x40AF JUMP JUMPDEST SWAP2 POP PUSH2 0x535C DUP3 PUSH2 0x52F5 JUMP JUMPDEST PUSH1 0x40 DUP3 ADD SWAP1 POP SWAP2 SWAP1 POP JUMP JUMPDEST PUSH1 0x0 PUSH1 0x20 DUP3 ADD SWAP1 POP DUP2 DUP2 SUB PUSH1 0x0 DUP4 ADD MSTORE PUSH2 0x5380 DUP2 PUSH2 0x5344 JUMP JUMPDEST SWAP1 POP SWAP2 SWAP1 POP JUMP JUMPDEST PUSH32 0x4552433732313A2062616C616E636520717565727920666F7220746865207A65 PUSH1 0x0 DUP3 ADD MSTORE PUSH32 0x726F206164647265737300000000000000000000000000000000000000000000 PUSH1 0x20 DUP3 ADD MSTORE POP JUMP JUMPDEST PUSH1 0x0 PUSH2 0x53E3 PUSH1 0x2A DUP4 PUSH2 0x40AF JUMP JUMPDEST SWAP2 POP PUSH2 0x53EE DUP3 PUSH2 0x5387 JUMP JUMPDEST PUSH1 0x40 DUP3 ADD SWAP1 POP SWAP2 SWAP1 POP JUMP JUMPDEST PUSH1 0x0 PUSH1 0x20 DUP3 ADD SWAP1 POP DUP2 DUP2 SUB PUSH1 0x0 DUP4 ADD MSTORE PUSH2 0x5412 DUP2 PUSH2 0x53D6 JUMP JUMPDEST SWAP1 POP SWAP2 SWAP1 POP JUMP JUMPDEST PUSH1 0x0 PUSH2 0x5424 DUP3 PUSH2 0x415F JUMP JUMPDEST SWAP2 POP PUSH32 0xFFFFFFFFFFFFFFFFFFFFFFFFFFFFFFFFFFFFFFFFFFFFFFFFFFFFFFFFFFFFFFFF DUP3 EQ ISZERO PUSH2 0x5457 JUMPI PUSH2 0x5456 PUSH2 0x4CEF JUMP JUMPDEST JUMPDEST PUSH1 0x1 DUP3 ADD SWAP1 POP SWAP2 SWAP1 POP JUMP JUMPDEST PUSH32 0x53616C65206D7573742062652061637469766520746F206D696E7420596F6C6F PUSH1 0x0 DUP3 ADD MSTORE PUSH32 0x4361747300000000000000000000000000000000000000000000000000000000 PUSH1 0x20 DUP3 ADD MSTORE POP JUMP JUMPDEST PUSH1 0x0 PUSH2 0x54BE PUSH1 0x24 DUP4 PUSH2 0x40AF JUMP JUMPDEST SWAP2 POP PUSH2 0x54C9 DUP3 PUSH2 0x5462 JUMP JUMPDEST PUSH1 0x40 DUP3 ADD SWAP1 POP SWAP2 SWAP1 POP JUMP JUMPDEST PUSH1 0x0 PUSH1 0x20 DUP3 ADD SWAP1 POP DUP2 DUP2 SUB PUSH1 0x0 DUP4 ADD MSTORE PUSH2 0x54ED DUP2 PUSH2 0x54B1 JUMP JUMPDEST SWAP1 POP SWAP2 SWAP1 POP JUMP JUMPDEST PUSH32 0x53616C6520776F756C6420657863656564207469657220737570706C79000000 PUSH1 0x0 DUP3 ADD MSTORE POP JUMP JUMPDEST PUSH1 0x0 PUSH2 0x552A PUSH1 0x1D DUP4 PUSH2 0x40AF JUMP JUMPDEST SWAP2 POP PUSH2 0x5535 DUP3 PUSH2 0x54F4 JUMP JUMPDEST PUSH1 0x20 DUP3 ADD SWAP1 POP SWAP2 SWAP1 POP JUMP JUMPDEST PUSH1 0x0 PUSH1 0x20 DUP3 ADD SWAP1 POP DUP2 DUP2 SUB PUSH1 0x0 DUP4 ADD MSTORE PUSH2 0x5559 DUP2 PUSH2 0x551D JUMP JUMPDEST SWAP1 POP SWAP2 SWAP1 POP JUMP JUMPDEST PUSH32 0x53616C6520776F756C6420657863656564206D617820737570706C7900000000 PUSH1 0x0 DUP3 ADD MSTORE POP JUMP JUMPDEST PUSH1 0x0 PUSH2 0x5596 PUSH1 0x1C DUP4 PUSH2 0x40AF JUMP JUMPDEST SWAP2 POP PUSH2 0x55A1 DUP3 PUSH2 0x5560 JUMP JUMPDEST PUSH1 0x20 DUP3 ADD SWAP1 POP SWAP2 SWAP1 POP JUMP JUMPDEST PUSH1 0x0 PUSH1 0x20 DUP3 ADD SWAP1 POP DUP2 DUP2 SUB PUSH1 0x0 DUP4 ADD MSTORE PUSH2 0x55C5 DUP2 PUSH2 0x5589 JUMP JUMPDEST SWAP1 POP SWAP2 SWAP1 POP JUMP JUMPDEST PUSH32 0x53616C6520776F756C6420657863656564206D61782062616C616E6365000000 PUSH1 0x0 DUP3 ADD MSTORE POP JUMP JUMPDEST PUSH1 0x0 PUSH2 0x5602 PUSH1 0x1D DUP4 PUSH2 0x40AF JUMP JUMPDEST SWAP2 POP PUSH2 0x560D DUP3 PUSH2 0x55CC JUMP JUMPDEST PUSH1 0x20 DUP3 ADD SWAP1 POP SWAP2 SWAP1 POP JUMP JUMPDEST PUSH1 0x0 PUSH1 0x20 DUP3 ADD SWAP1 POP DUP2 DUP2 SUB PUSH1 0x0 DUP4 ADD MSTORE PUSH2 0x5631 DUP2 PUSH2 0x55F5 JUMP JUMPDEST SWAP1 POP SWAP2 SWAP1 POP JUMP JUMPDEST PUSH32 0x53616C6520776F756C6420657863656564206D6178206D696E74000000000000 PUSH1 0x0 DUP3 ADD MSTORE POP JUMP JUMPDEST PUSH1 0x0 PUSH2 0x566E PUSH1 0x1A DUP4 PUSH2 0x40AF JUMP JUMPDEST SWAP2 POP PUSH2 0x5679 DUP3 PUSH2 0x5638 JUMP JUMPDEST PUSH1 0x20 DUP3 ADD SWAP1 POP SWAP2 SWAP1 POP JUMP JUMPDEST PUSH1 0x0 PUSH1 0x20 DUP3 ADD SWAP1 POP DUP2 DUP2 SUB PUSH1 0x0 DUP4 ADD MSTORE PUSH2 0x569D DUP2 PUSH2 0x5661 JUMP JUMPDEST SWAP1 POP SWAP2 SWAP1 POP JUMP JUMPDEST PUSH32 0x4E6F7420696E207768697465206C697374000000000000000000000000000000 PUSH1 0x0 DUP3 ADD MSTORE POP JUMP JUMPDEST PUSH1 0x0 PUSH2 0x56DA PUSH1 0x11 DUP4 PUSH2 0x40AF JUMP JUMPDEST SWAP2 POP PUSH2 0x56E5 DUP3 PUSH2 0x56A4 JUMP JUMPDEST PUSH1 0x20 DUP3 ADD SWAP1 POP SWAP2 SWAP1 POP JUMP JUMPDEST PUSH1 0x0 PUSH1 0x20 DUP3 ADD SWAP1 POP DUP2 DUP2 SUB PUSH1 0x0 DUP4 ADD MSTORE PUSH2 0x5709 DUP2 PUSH2 0x56CD JUMP JUMPDEST SWAP1 POP SWAP2 SWAP1 POP JUMP JUMPDEST PUSH32 0x4552433732314D657461646174613A2055524920717565727920666F72206E6F PUSH1 0x0 DUP3 ADD MSTORE PUSH32 0x6E6578697374656E7420746F6B656E0000000000000000000000000000000000 PUSH1 0x20 DUP3 ADD MSTORE POP JUMP JUMPDEST PUSH1 0x0 PUSH2 0x576C PUSH1 0x2F DUP4 PUSH2 0x40AF JUMP JUMPDEST SWAP2 POP PUSH2 0x5777 DUP3 PUSH2 0x5710 JUMP JUMPDEST PUSH1 0x40 DUP3 ADD SWAP1 POP SWAP2 SWAP1 POP JUMP JUMPDEST PUSH1 0x0 PUSH1 0x20 DUP3 ADD SWAP1 POP DUP2 DUP2 SUB PUSH1 0x0 DUP4 ADD MSTORE PUSH2 0x579B DUP2 PUSH2 0x575F JUMP JUMPDEST SWAP1 POP SWAP2 SWAP1 POP JUMP JUMPDEST PUSH1 0x0 DUP2 SWAP1 POP SWAP3 SWAP2 POP POP JUMP JUMPDEST PUSH1 0x0 PUSH2 0x57B8 DUP3 PUSH2 0x40A4 JUMP JUMPDEST PUSH2 0x57C2 DUP2 DUP6 PUSH2 0x57A2 JUMP JUMPDEST SWAP4 POP PUSH2 0x57D2 DUP2 DUP6 PUSH1 0x20 DUP7 ADD PUSH2 0x40C0 JUMP JUMPDEST DUP1 DUP5 ADD SWAP2 POP POP SWAP3 SWAP2 POP POP JUMP JUMPDEST PUSH1 0x0 PUSH2 0x57EA DUP3 DUP6 PUSH2 0x57AD JUMP JUMPDEST SWAP2 POP PUSH2 0x57F6 DUP3 DUP5 PUSH2 0x57AD JUMP JUMPDEST SWAP2 POP DUP2 SWAP1 POP SWAP4 SWAP3 POP POP POP JUMP JUMPDEST PUSH32 0x4F776E61626C653A206E6577206F776E657220697320746865207A65726F2061 PUSH1 0x0 DUP3 ADD MSTORE PUSH32 0x6464726573730000000000000000000000000000000000000000000000000000 PUSH1 0x20 DUP3 ADD MSTORE POP JUMP JUMPDEST PUSH1 0x0 PUSH2 0x585E PUSH1 0x26 DUP4 PUSH2 0x40AF JUMP JUMPDEST SWAP2 POP PUSH2 0x5869 DUP3 PUSH2 0x5802 JUMP JUMPDEST PUSH1 0x40 DUP3 ADD SWAP1 POP SWAP2 SWAP1 POP JUMP JUMPDEST PUSH1 0x0 PUSH1 0x20 DUP3 ADD SWAP1 POP DUP2 DUP2 SUB PUSH1 0x0 DUP4 ADD MSTORE PUSH2 0x588D DUP2 PUSH2 0x5851 JUMP JUMPDEST SWAP1 POP SWAP2 SWAP1 POP JUMP JUMPDEST PUSH32 0x4552433732313A206F70657261746F7220717565727920666F72206E6F6E6578 PUSH1 0x0 DUP3 ADD MSTORE PUSH32 0x697374656E7420746F6B656E0000000000000000000000000000000000000000 PUSH1 0x20 DUP3 ADD MSTORE POP JUMP JUMPDEST PUSH1 0x0 PUSH2 0x58F0 PUSH1 0x2C DUP4 PUSH2 0x40AF JUMP JUMPDEST SWAP2 POP PUSH2 0x58FB DUP3 PUSH2 0x5894 JUMP JUMPDEST PUSH1 0x40 DUP3 ADD SWAP1 POP SWAP2 SWAP1 POP JUMP JUMPDEST PUSH1 0x0 PUSH1 0x20 DUP3 ADD SWAP1 POP DUP2 DUP2 SUB PUSH1 0x0 DUP4 ADD MSTORE PUSH2 0x591F DUP2 PUSH2 0x58E3 JUMP JUMPDEST SWAP1 POP SWAP2 SWAP1 POP JUMP JUMPDEST PUSH32 0x4552433732313A207472616E73666572206F6620746F6B656E20746861742069 PUSH1 0x0 DUP3 ADD MSTORE PUSH32 0x73206E6F74206F776E0000000000000000000000000000000000000000000000 PUSH1 0x20 DUP3 ADD MSTORE POP JUMP JUMPDEST PUSH1 0x0 PUSH2 0x5982 PUSH1 0x29 DUP4 PUSH2 0x40AF JUMP JUMPDEST SWAP2 POP PUSH2 0x598D DUP3 PUSH2 0x5926 JUMP JUMPDEST PUSH1 0x40 DUP3 ADD SWAP1 POP SWAP2 SWAP1 POP JUMP JUMPDEST PUSH1 0x0 PUSH1 0x20 DUP3 ADD SWAP1 POP DUP2 DUP2 SUB PUSH1 0x0 DUP4 ADD MSTORE PUSH2 0x59B1 DUP2 PUSH2 0x5975 JUMP JUMPDEST SWAP1 POP SWAP2 SWAP1 POP JUMP JUMPDEST PUSH32 0x4552433732313A207472616E7366657220746F20746865207A65726F20616464 PUSH1 0x0 DUP3 ADD MSTORE PUSH32 0x7265737300000000000000000000000000000000000000000000000000000000 PUSH1 0x20 DUP3 ADD MSTORE POP JUMP JUMPDEST PUSH1 0x0 PUSH2 0x5A14 PUSH1 0x24 DUP4 PUSH2 0x40AF JUMP JUMPDEST SWAP2 POP PUSH2 0x5A1F DUP3 PUSH2 0x59B8 JUMP JUMPDEST PUSH1 0x40 DUP3 ADD SWAP1 POP SWAP2 SWAP1 POP JUMP JUMPDEST PUSH1 0x0 PUSH1 0x20 DUP3 ADD SWAP1 POP DUP2 DUP2 SUB PUSH1 0x0 DUP4 ADD MSTORE PUSH2 0x5A43 DUP2 PUSH2 0x5A07 JUMP JUMPDEST SWAP1 POP SWAP2 SWAP1 POP JUMP JUMPDEST PUSH32 0x4552433732313A20617070726F766520746F2063616C6C657200000000000000 PUSH1 0x0 DUP3 ADD MSTORE POP JUMP JUMPDEST PUSH1 0x0 PUSH2 0x5A80 PUSH1 0x19 DUP4 PUSH2 0x40AF JUMP JUMPDEST SWAP2 POP PUSH2 0x5A8B DUP3 PUSH2 0x5A4A JUMP JUMPDEST PUSH1 0x20 DUP3 ADD SWAP1 POP SWAP2 SWAP1 POP JUMP JUMPDEST PUSH1 0x0 PUSH1 0x20 DUP3 ADD SWAP1 POP DUP2 DUP2 SUB PUSH1 0x0 DUP4 ADD MSTORE PUSH2 0x5AAF DUP2 PUSH2 0x5A73 JUMP JUMPDEST SWAP1 POP SWAP2 SWAP1 POP JUMP JUMPDEST PUSH32 0x4552433732313A207472616E7366657220746F206E6F6E204552433732315265 PUSH1 0x0 DUP3 ADD MSTORE PUSH32 0x63656976657220696D706C656D656E7465720000000000000000000000000000 PUSH1 0x20 DUP3 ADD MSTORE POP JUMP JUMPDEST PUSH1 0x0 PUSH2 0x5B12 PUSH1 0x32 DUP4 PUSH2 0x40AF JUMP JUMPDEST SWAP2 POP PUSH2 0x5B1D DUP3 PUSH2 0x5AB6 JUMP JUMPDEST PUSH1 0x40 DUP3 ADD SWAP1 POP SWAP2 SWAP1 POP JUMP JUMPDEST PUSH1 0x0 PUSH1 0x20 DUP3 ADD SWAP1 POP DUP2 DUP2 SUB PUSH1 0x0 DUP4 ADD MSTORE PUSH2 0x5B41 DUP2 PUSH2 0x5B05 JUMP JUMPDEST SWAP1 POP SWAP2 SWAP1 POP JUMP JUMPDEST PUSH1 0x0 PUSH2 0x5B53 DUP3 PUSH2 0x415F JUMP JUMPDEST SWAP2 POP PUSH2 0x5B5E DUP4 PUSH2 0x415F JUMP JUMPDEST SWAP3 POP DUP3 PUSH2 0x5B6E JUMPI PUSH2 0x5B6D PUSH2 0x50B0 JUMP JUMPDEST JUMPDEST DUP3 DUP3 MOD SWAP1 POP SWAP3 SWAP2 POP POP JUMP JUMPDEST PUSH1 0x0 DUP2 MLOAD SWAP1 POP SWAP2 SWAP1 POP JUMP JUMPDEST PUSH1 0x0 DUP3 DUP3 MSTORE PUSH1 0x20 DUP3 ADD SWAP1 POP SWAP3 SWAP2 POP POP JUMP JUMPDEST PUSH1 0x0 PUSH2 0x5BA0 DUP3 PUSH2 0x5B79 JUMP JUMPDEST PUSH2 0x5BAA DUP2 DUP6 PUSH2 0x5B84 JUMP JUMPDEST SWAP4 POP PUSH2 0x5BBA DUP2 DUP6 PUSH1 0x20 DUP7 ADD PUSH2 0x40C0 JUMP JUMPDEST PUSH2 0x5BC3 DUP2 PUSH2 0x40F3 JUMP JUMPDEST DUP5 ADD SWAP2 POP POP SWAP3 SWAP2 POP POP JUMP JUMPDEST PUSH1 0x0 PUSH1 0x80 DUP3 ADD SWAP1 POP PUSH2 0x5BE3 PUSH1 0x0 DUP4 ADD DUP8 PUSH2 0x41F4 JUMP JUMPDEST PUSH2 0x5BF0 PUSH1 0x20 DUP4 ADD DUP7 PUSH2 0x41F4 JUMP JUMPDEST PUSH2 0x5BFD PUSH1 0x40 DUP4 ADD DUP6 PUSH2 0x428A JUMP JUMPDEST DUP2 DUP2 SUB PUSH1 0x60 DUP4 ADD MSTORE PUSH2 0x5C0F DUP2 DUP5 PUSH2 0x5B95 JUMP JUMPDEST SWAP1 POP SWAP6 SWAP5 POP POP POP POP POP JUMP JUMPDEST PUSH1 0x0 DUP2 MLOAD SWAP1 POP PUSH2 0x5C29 DUP2 PUSH2 0x4015 JUMP JUMPDEST SWAP3 SWAP2 POP POP JUMP JUMPDEST PUSH1 0x0 PUSH1 0x20 DUP3 DUP5 SUB SLT ISZERO PUSH2 0x5C45 JUMPI PUSH2 0x5C44 PUSH2 0x3FDF JUMP JUMPDEST JUMPDEST PUSH1 0x0 PUSH2 0x5C53 DUP5 DUP3 DUP6 ADD PUSH2 0x5C1A JUMP JUMPDEST SWAP2 POP POP SWAP3 SWAP2 POP POP JUMP JUMPDEST PUSH32 0x4E487B7100000000000000000000000000000000000000000000000000000000 PUSH1 0x0 MSTORE PUSH1 0x31 PUSH1 0x4 MSTORE PUSH1 0x24 PUSH1 0x0 REVERT JUMPDEST PUSH32 0x4552433732313A206D696E7420746F20746865207A65726F2061646472657373 PUSH1 0x0 DUP3 ADD MSTORE POP JUMP JUMPDEST PUSH1 0x0 PUSH2 0x5CC1 PUSH1 0x20 DUP4 PUSH2 0x40AF JUMP JUMPDEST SWAP2 POP PUSH2 0x5CCC DUP3 PUSH2 0x5C8B JUMP JUMPDEST PUSH1 0x20 DUP3 ADD SWAP1 POP SWAP2 SWAP1 POP JUMP JUMPDEST PUSH1 0x0 PUSH1 0x20 DUP3 ADD SWAP1 POP DUP2 DUP2 SUB PUSH1 0x0 DUP4 ADD MSTORE PUSH2 0x5CF0 DUP2 PUSH2 0x5CB4 JUMP JUMPDEST SWAP1 POP SWAP2 SWAP1 POP JUMP JUMPDEST PUSH32 0x4552433732313A20746F6B656E20616C7265616479206D696E74656400000000 PUSH1 0x0 DUP3 ADD MSTORE POP JUMP JUMPDEST PUSH1 0x0 PUSH2 0x5D2D PUSH1 0x1C DUP4 PUSH2 0x40AF JUMP JUMPDEST SWAP2 POP PUSH2 0x5D38 DUP3 PUSH2 0x5CF7 JUMP JUMPDEST PUSH1 0x20 DUP3 ADD SWAP1 POP SWAP2 SWAP1 POP JUMP JUMPDEST PUSH1 0x0 PUSH1 0x20 DUP3 ADD SWAP1 POP DUP2 DUP2 SUB PUSH1 0x0 DUP4 ADD MSTORE PUSH2 0x5D5C DUP2 PUSH2 0x5D20 JUMP JUMPDEST SWAP1 POP SWAP2 SWAP1 POP JUMP INVALID LOG2 PUSH5 0x6970667358 0x22 SLT KECCAK256 SWAP3 0x25 PUSH32 0x974E26C6D3F98FBB40A8CBE3DBB9ADE5A967D165424D498732B6DF5F5664736F PUSH13 0x634300080A0033000000000000 "
		},
		"gasEstimates": {
			"creation": {
				"codeDepositCost": "4792200",
				"executionCost": "infinite",
				"totalCost": "infinite"
			},
			"external": {
				"MAX_SUPPLY()": "441",
				"_isAuctionActive()": "2589",
				"_isSaleActive()": "2590",
				"_isWhiteListSaleActive()": "2609",
				"approve(address,uint256)": "infinite",
				"auctionEndPrice()": "2497",
				"auctionMintYoloCat(uint256)": "infinite",
				"auctionPriceStep()": "2542",
				"auctionStartPrice()": "2518",
				"auctionStartTime()": "2495",
				"auctionStepNumber()": "2540",
				"auctionTimeStep()": "2496",
				"balanceOf(address)": "2970",
				"filpSaleActive()": "28981",
				"flipAuctionActive()": "28959",
				"flipWhiteListSaleActive()": "29025",
				"fomoDogWhiteList(address)": "2912",
				"fomoDogWhiteListPrice()": "2497",
				"getApproved(uint256)": "5274",
				"getAuctionPrice()": "infinite",
				"getTotalSupply()": "2613",
				"getYoloCatByOwner(address)": "infinite",
				"isApprovedForAll(address,address)": "infinite",
				"maxBalance()": "2497",
				"maxMint()": "2519",
				"mintPrice()": "2518",
				"mintYoloCats(uint256)": "infinite",
				"name()": "infinite",
				"owner()": "2634",
				"ownerOf(uint256)": "3111",
				"preserveMint(uint256,address)": "infinite",
				"renounceOwnership()": "30487",
				"safeTransferFrom(address,address,uint256)": "infinite",
				"safeTransferFrom(address,address,uint256,bytes)": "infinite",
				"setApprovalForAll(address,bool)": "infinite",
				"setAuction(uint256,uint256,uint256,uint256,uint256,uint256)": "infinite",
				"setBaseURI(string)": "infinite",
				"setFomoDogWhiteList(address[])": "infinite",
				"setFomoDogWhiteListPrice(uint256)": "24827",
				"setMaxBalance(uint256)": "24893",
				"setMaxMint(uint256)": "24894",
				"setMintPrice(uint256)": "24892",
				"setTierSupply(uint256)": "24829",
				"setWhiteList(address[])": "infinite",
				"setWhiteListPrice(uint256)": "24871",
				"supportsInterface(bytes4)": "975",
				"symbol()": "infinite",
				"tierSupply()": "2497",
				"tokenByIndex(uint256)": "infinite",
				"tokenOfOwnerByIndex(address,uint256)": "infinite",
				"tokenURI(uint256)": "infinite",
				"totalSupply()": "2558",
				"transferFrom(address,address,uint256)": "infinite",
				"transferOwnership(address)": "30833",
				"whiteList(address)": "2979",
				"whiteListMintYoloCats(uint256)": "infinite",
				"whiteListPrice()": "2540",
				"withdraw(address)": "infinite"
			},
			"internal": {
				"_baseURI()": "infinite",
				"_beforeTokenTransfer(address,address,uint256)": "infinite",
				"_mintYoloCat(uint256,address)": "infinite"
			}
		},
		"methodIdentifiers": {
			"MAX_SUPPLY()": "32cb6b0c",
			"_isAuctionActive()": "26cf76b6",
			"_isSaleActive()": "7080d6fc",
			"_isWhiteListSaleActive()": "f11207d8",
			"approve(address,uint256)": "095ea7b3",
			"auctionEndPrice()": "a04a6ac8",
			"auctionMintYoloCat(uint256)": "257c8597",
			"auctionPriceStep()": "4698a3d8",
			"auctionStartPrice()": "d756985b",
			"auctionStartTime()": "eb54f9ec",
			"auctionStepNumber()": "964dd240",
			"auctionTimeStep()": "9196eba5",
			"balanceOf(address)": "70a08231",
			"filpSaleActive()": "12675f36",
			"flipAuctionActive()": "42835c41",
			"flipWhiteListSaleActive()": "1ca62dbc",
			"fomoDogWhiteList(address)": "a8eae392",
			"fomoDogWhiteListPrice()": "8b169e58",
			"getApproved(uint256)": "081812fc",
			"getAuctionPrice()": "4bd25c6f",
			"getTotalSupply()": "c4e41b22",
			"getYoloCatByOwner(address)": "d7a9fbcc",
			"isApprovedForAll(address,address)": "e985e9c5",
			"maxBalance()": "73ad468a",
			"maxMint()": "7501f741",
			"mintPrice()": "6817c76c",
			"mintYoloCats(uint256)": "8914e838",
			"name()": "06fdde03",
			"owner()": "8da5cb5b",
			"ownerOf(uint256)": "6352211e",
			"preserveMint(uint256,address)": "5edd95f9",
			"renounceOwnership()": "715018a6",
			"safeTransferFrom(address,address,uint256)": "42842e0e",
			"safeTransferFrom(address,address,uint256,bytes)": "b88d4fde",
			"setApprovalForAll(address,bool)": "a22cb465",
			"setAuction(uint256,uint256,uint256,uint256,uint256,uint256)": "6a99cacb",
			"setBaseURI(string)": "55f804b3",
			"setFomoDogWhiteList(address[])": "8c2ac9f7",
			"setFomoDogWhiteListPrice(uint256)": "66534f4b",
			"setMaxBalance(uint256)": "9d51d9b7",
			"setMaxMint(uint256)": "547520fe",
			"setMintPrice(uint256)": "f4a0a528",
			"setTierSupply(uint256)": "209ee297",
			"setWhiteList(address[])": "775b9c13",
			"setWhiteListPrice(uint256)": "beafc89b",
			"supportsInterface(bytes4)": "01ffc9a7",
			"symbol()": "95d89b41",
			"tierSupply()": "549b9da5",
			"tokenByIndex(uint256)": "4f6ccce7",
			"tokenOfOwnerByIndex(address,uint256)": "2f745c59",
			"tokenURI(uint256)": "c87b56dd",
			"totalSupply()": "18160ddd",
			"transferFrom(address,address,uint256)": "23b872dd",
			"transferOwnership(address)": "f2fde38b",
			"whiteList(address)": "372c12b1",
			"whiteListMintYoloCats(uint256)": "a51cae30",
			"whiteListPrice()": "68575685",
			"withdraw(address)": "51cff8d9"
		}
	},
	"abi": [
		{
			"inputs": [],
			"stateMutability": "nonpayable",
			"type": "constructor"
		},
		{
			"anonymous": false,
			"inputs": [
				{
					"indexed": true,
					"internalType": "address",
					"name": "owner",
					"type": "address"
				},
				{
					"indexed": true,
					"internalType": "address",
					"name": "approved",
					"type": "address"
				},
				{
					"indexed": true,
					"internalType": "uint256",
					"name": "tokenId",
					"type": "uint256"
				}
			],
			"name": "Approval",
			"type": "event"
		},
		{
			"anonymous": false,
			"inputs": [
				{
					"indexed": true,
					"internalType": "address",
					"name": "owner",
					"type": "address"
				},
				{
					"indexed": true,
					"internalType": "address",
					"name": "operator",
					"type": "address"
				},
				{
					"indexed": false,
					"internalType": "bool",
					"name": "approved",
					"type": "bool"
				}
			],
			"name": "ApprovalForAll",
			"type": "event"
		},
		{
			"anonymous": false,
			"inputs": [
				{
					"indexed": true,
					"internalType": "address",
					"name": "previousOwner",
					"type": "address"
				},
				{
					"indexed": true,
					"internalType": "address",
					"name": "newOwner",
					"type": "address"
				}
			],
			"name": "OwnershipTransferred",
			"type": "event"
		},
		{
			"anonymous": false,
			"inputs": [
				{
					"indexed": false,
					"internalType": "uint256",
					"name": "supply",
					"type": "uint256"
				}
			],
			"name": "TokenMinted",
			"type": "event"
		},
		{
			"anonymous": false,
			"inputs": [
				{
					"indexed": true,
					"internalType": "address",
					"name": "from",
					"type": "address"
				},
				{
					"indexed": true,
					"internalType": "address",
					"name": "to",
					"type": "address"
				},
				{
					"indexed": true,
					"internalType": "uint256",
					"name": "tokenId",
					"type": "uint256"
				}
			],
			"name": "Transfer",
			"type": "event"
		},
		{
			"inputs": [],
			"name": "MAX_SUPPLY",
			"outputs": [
				{
					"internalType": "uint256",
					"name": "",
					"type": "uint256"
				}
			],
			"stateMutability": "view",
			"type": "function"
		},
		{
			"inputs": [],
			"name": "_isAuctionActive",
			"outputs": [
				{
					"internalType": "bool",
					"name": "",
					"type": "bool"
				}
			],
			"stateMutability": "view",
			"type": "function"
		},
		{
			"inputs": [],
			"name": "_isSaleActive",
			"outputs": [
				{
					"internalType": "bool",
					"name": "",
					"type": "bool"
				}
			],
			"stateMutability": "view",
			"type": "function"
		},
		{
			"inputs": [],
			"name": "_isWhiteListSaleActive",
			"outputs": [
				{
					"internalType": "bool",
					"name": "",
					"type": "bool"
				}
			],
			"stateMutability": "view",
			"type": "function"
		},
		{
			"inputs": [
				{
					"internalType": "address",
					"name": "to",
					"type": "address"
				},
				{
					"internalType": "uint256",
					"name": "tokenId",
					"type": "uint256"
				}
			],
			"name": "approve",
			"outputs": [],
			"stateMutability": "nonpayable",
			"type": "function"
		},
		{
			"inputs": [],
			"name": "auctionEndPrice",
			"outputs": [
				{
					"internalType": "uint256",
					"name": "",
					"type": "uint256"
				}
			],
			"stateMutability": "view",
			"type": "function"
		},
		{
			"inputs": [
				{
					"internalType": "uint256",
					"name": "numYoloCats",
					"type": "uint256"
				}
			],
			"name": "auctionMintYoloCat",
			"outputs": [],
			"stateMutability": "payable",
			"type": "function"
		},
		{
			"inputs": [],
			"name": "auctionPriceStep",
			"outputs": [
				{
					"internalType": "uint256",
					"name": "",
					"type": "uint256"
				}
			],
			"stateMutability": "view",
			"type": "function"
		},
		{
			"inputs": [],
			"name": "auctionStartPrice",
			"outputs": [
				{
					"internalType": "uint256",
					"name": "",
					"type": "uint256"
				}
			],
			"stateMutability": "view",
			"type": "function"
		},
		{
			"inputs": [],
			"name": "auctionStartTime",
			"outputs": [
				{
					"internalType": "uint256",
					"name": "",
					"type": "uint256"
				}
			],
			"stateMutability": "view",
			"type": "function"
		},
		{
			"inputs": [],
			"name": "auctionStepNumber",
			"outputs": [
				{
					"internalType": "uint256",
					"name": "",
					"type": "uint256"
				}
			],
			"stateMutability": "view",
			"type": "function"
		},
		{
			"inputs": [],
			"name": "auctionTimeStep",
			"outputs": [
				{
					"internalType": "uint256",
					"name": "",
					"type": "uint256"
				}
			],
			"stateMutability": "view",
			"type": "function"
		},
		{
			"inputs": [
				{
					"internalType": "address",
					"name": "owner",
					"type": "address"
				}
			],
			"name": "balanceOf",
			"outputs": [
				{
					"internalType": "uint256",
					"name": "",
					"type": "uint256"
				}
			],
			"stateMutability": "view",
			"type": "function"
		},
		{
			"inputs": [],
			"name": "filpSaleActive",
			"outputs": [],
			"stateMutability": "nonpayable",
			"type": "function"
		},
		{
			"inputs": [],
			"name": "flipAuctionActive",
			"outputs": [],
			"stateMutability": "nonpayable",
			"type": "function"
		},
		{
			"inputs": [],
			"name": "flipWhiteListSaleActive",
			"outputs": [],
			"stateMutability": "nonpayable",
			"type": "function"
		},
		{
			"inputs": [
				{
					"internalType": "address",
					"name": "",
					"type": "address"
				}
			],
			"name": "fomoDogWhiteList",
			"outputs": [
				{
					"internalType": "bool",
					"name": "",
					"type": "bool"
				}
			],
			"stateMutability": "view",
			"type": "function"
		},
		{
			"inputs": [],
			"name": "fomoDogWhiteListPrice",
			"outputs": [
				{
					"internalType": "uint256",
					"name": "",
					"type": "uint256"
				}
			],
			"stateMutability": "view",
			"type": "function"
		},
		{
			"inputs": [
				{
					"internalType": "uint256",
					"name": "tokenId",
					"type": "uint256"
				}
			],
			"name": "getApproved",
			"outputs": [
				{
					"internalType": "address",
					"name": "",
					"type": "address"
				}
			],
			"stateMutability": "view",
			"type": "function"
		},
		{
			"inputs": [],
			"name": "getAuctionPrice",
			"outputs": [
				{
					"internalType": "uint256",
					"name": "",
					"type": "uint256"
				}
			],
			"stateMutability": "view",
			"type": "function"
		},
		{
			"inputs": [],
			"name": "getTotalSupply",
			"outputs": [
				{
					"internalType": "uint256",
					"name": "",
					"type": "uint256"
				}
			],
			"stateMutability": "view",
			"type": "function"
		},
		{
			"inputs": [
				{
					"internalType": "address",
					"name": "_owner",
					"type": "address"
				}
			],
			"name": "getYoloCatByOwner",
			"outputs": [
				{
					"internalType": "uint256[]",
					"name": "",
					"type": "uint256[]"
				}
			],
			"stateMutability": "view",
			"type": "function"
		},
		{
			"inputs": [
				{
					"internalType": "address",
					"name": "owner",
					"type": "address"
				},
				{
					"internalType": "address",
					"name": "operator",
					"type": "address"
				}
			],
			"name": "isApprovedForAll",
			"outputs": [
				{
					"internalType": "bool",
					"name": "",
					"type": "bool"
				}
			],
			"stateMutability": "view",
			"type": "function"
		},
		{
			"inputs": [],
			"name": "maxBalance",
			"outputs": [
				{
					"internalType": "uint256",
					"name": "",
					"type": "uint256"
				}
			],
			"stateMutability": "view",
			"type": "function"
		},
		{
			"inputs": [],
			"name": "maxMint",
			"outputs": [
				{
					"internalType": "uint256",
					"name": "",
					"type": "uint256"
				}
			],
			"stateMutability": "view",
			"type": "function"
		},
		{
			"inputs": [],
			"name": "mintPrice",
			"outputs": [
				{
					"internalType": "uint256",
					"name": "",
					"type": "uint256"
				}
			],
			"stateMutability": "view",
			"type": "function"
		},
		{
			"inputs": [
				{
					"internalType": "uint256",
					"name": "numYoloCats",
					"type": "uint256"
				}
			],
			"name": "mintYoloCats",
			"outputs": [],
			"stateMutability": "payable",
			"type": "function"
		},
		{
			"inputs": [],
			"name": "name",
			"outputs": [
				{
					"internalType": "string",
					"name": "",
					"type": "string"
				}
			],
			"stateMutability": "view",
			"type": "function"
		},
		{
			"inputs": [],
			"name": "owner",
			"outputs": [
				{
					"internalType": "address",
					"name": "",
					"type": "address"
				}
			],
			"stateMutability": "view",
			"type": "function"
		},
		{
			"inputs": [
				{
					"internalType": "uint256",
					"name": "tokenId",
					"type": "uint256"
				}
			],
			"name": "ownerOf",
			"outputs": [
				{
					"internalType": "address",
					"name": "",
					"type": "address"
				}
			],
			"stateMutability": "view",
			"type": "function"
		},
		{
			"inputs": [
				{
					"internalType": "uint256",
					"name": "numYoloCats",
					"type": "uint256"
				},
				{
					"internalType": "address",
					"name": "to",
					"type": "address"
				}
			],
			"name": "preserveMint",
			"outputs": [],
			"stateMutability": "nonpayable",
			"type": "function"
		},
		{
			"inputs": [],
			"name": "renounceOwnership",
			"outputs": [],
			"stateMutability": "nonpayable",
			"type": "function"
		},
		{
			"inputs": [
				{
					"internalType": "address",
					"name": "from",
					"type": "address"
				},
				{
					"internalType": "address",
					"name": "to",
					"type": "address"
				},
				{
					"internalType": "uint256",
					"name": "tokenId",
					"type": "uint256"
				}
			],
			"name": "safeTransferFrom",
			"outputs": [],
			"stateMutability": "nonpayable",
			"type": "function"
		},
		{
			"inputs": [
				{
					"internalType": "address",
					"name": "from",
					"type": "address"
				},
				{
					"internalType": "address",
					"name": "to",
					"type": "address"
				},
				{
					"internalType": "uint256",
					"name": "tokenId",
					"type": "uint256"
				},
				{
					"internalType": "bytes",
					"name": "_data",
					"type": "bytes"
				}
			],
			"name": "safeTransferFrom",
			"outputs": [],
			"stateMutability": "nonpayable",
			"type": "function"
		},
		{
			"inputs": [
				{
					"internalType": "address",
					"name": "operator",
					"type": "address"
				},
				{
					"internalType": "bool",
					"name": "approved",
					"type": "bool"
				}
			],
			"name": "setApprovalForAll",
			"outputs": [],
			"stateMutability": "nonpayable",
			"type": "function"
		},
		{
			"inputs": [
				{
					"internalType": "uint256",
					"name": "_auctionStartTime",
					"type": "uint256"
				},
				{
					"internalType": "uint256",
					"name": "_auctionTimeStep",
					"type": "uint256"
				},
				{
					"internalType": "uint256",
					"name": "_auctionStartPrice",
					"type": "uint256"
				},
				{
					"internalType": "uint256",
					"name": "_auctionEndPrice",
					"type": "uint256"
				},
				{
					"internalType": "uint256",
					"name": "_auctionPriceStep",
					"type": "uint256"
				},
				{
					"internalType": "uint256",
					"name": "_auctionStepNumber",
					"type": "uint256"
				}
			],
			"name": "setAuction",
			"outputs": [],
			"stateMutability": "nonpayable",
			"type": "function"
		},
		{
			"inputs": [
				{
					"internalType": "string",
					"name": "baseURI_",
					"type": "string"
				}
			],
			"name": "setBaseURI",
			"outputs": [],
			"stateMutability": "nonpayable",
			"type": "function"
		},
		{
			"inputs": [
				{
					"internalType": "address[]",
					"name": "_fomoDogWhiteList",
					"type": "address[]"
				}
			],
			"name": "setFomoDogWhiteList",
			"outputs": [],
			"stateMutability": "nonpayable",
			"type": "function"
		},
		{
			"inputs": [
				{
					"internalType": "uint256",
					"name": "_fomoDogWhiteListPrice",
					"type": "uint256"
				}
			],
			"name": "setFomoDogWhiteListPrice",
			"outputs": [],
			"stateMutability": "nonpayable",
			"type": "function"
		},
		{
			"inputs": [
				{
					"internalType": "uint256",
					"name": "_maxBalance",
					"type": "uint256"
				}
			],
			"name": "setMaxBalance",
			"outputs": [],
			"stateMutability": "nonpayable",
			"type": "function"
		},
		{
			"inputs": [
				{
					"internalType": "uint256",
					"name": "_maxMint",
					"type": "uint256"
				}
			],
			"name": "setMaxMint",
			"outputs": [],
			"stateMutability": "nonpayable",
			"type": "function"
		},
		{
			"inputs": [
				{
					"internalType": "uint256",
					"name": "_mintPrice",
					"type": "uint256"
				}
			],
			"name": "setMintPrice",
			"outputs": [],
			"stateMutability": "nonpayable",
			"type": "function"
		},
		{
			"inputs": [
				{
					"internalType": "uint256",
					"name": "_tierSupply",
					"type": "uint256"
				}
			],
			"name": "setTierSupply",
			"outputs": [],
			"stateMutability": "nonpayable",
			"type": "function"
		},
		{
			"inputs": [
				{
					"internalType": "address[]",
					"name": "_whiteList",
					"type": "address[]"
				}
			],
			"name": "setWhiteList",
			"outputs": [],
			"stateMutability": "nonpayable",
			"type": "function"
		},
		{
			"inputs": [
				{
					"internalType": "uint256",
					"name": "_whiteListPrice",
					"type": "uint256"
				}
			],
			"name": "setWhiteListPrice",
			"outputs": [],
			"stateMutability": "nonpayable",
			"type": "function"
		},
		{
			"inputs": [
				{
					"internalType": "bytes4",
					"name": "interfaceId",
					"type": "bytes4"
				}
			],
			"name": "supportsInterface",
			"outputs": [
				{
					"internalType": "bool",
					"name": "",
					"type": "bool"
				}
			],
			"stateMutability": "view",
			"type": "function"
		},
		{
			"inputs": [],
			"name": "symbol",
			"outputs": [
				{
					"internalType": "string",
					"name": "",
					"type": "string"
				}
			],
			"stateMutability": "view",
			"type": "function"
		},
		{
			"inputs": [],
			"name": "tierSupply",
			"outputs": [
				{
					"internalType": "uint256",
					"name": "",
					"type": "uint256"
				}
			],
			"stateMutability": "view",
			"type": "function"
		},
		{
			"inputs": [
				{
					"internalType": "uint256",
					"name": "index",
					"type": "uint256"
				}
			],
			"name": "tokenByIndex",
			"outputs": [
				{
					"internalType": "uint256",
					"name": "",
					"type": "uint256"
				}
			],
			"stateMutability": "view",
			"type": "function"
		},
		{
			"inputs": [
				{
					"internalType": "address",
					"name": "owner",
					"type": "address"
				},
				{
					"internalType": "uint256",
					"name": "index",
					"type": "uint256"
				}
			],
			"name": "tokenOfOwnerByIndex",
			"outputs": [
				{
					"internalType": "uint256",
					"name": "",
					"type": "uint256"
				}
			],
			"stateMutability": "view",
			"type": "function"
		},
		{
			"inputs": [
				{
					"internalType": "uint256",
					"name": "tokenId",
					"type": "uint256"
				}
			],
			"name": "tokenURI",
			"outputs": [
				{
					"internalType": "string",
					"name": "",
					"type": "string"
				}
			],
			"stateMutability": "view",
			"type": "function"
		},
		{
			"inputs": [],
			"name": "totalSupply",
			"outputs": [
				{
					"internalType": "uint256",
					"name": "",
					"type": "uint256"
				}
			],
			"stateMutability": "view",
			"type": "function"
		},
		{
			"inputs": [
				{
					"internalType": "address",
					"name": "from",
					"type": "address"
				},
				{
					"internalType": "address",
					"name": "to",
					"type": "address"
				},
				{
					"internalType": "uint256",
					"name": "tokenId",
					"type": "uint256"
				}
			],
			"name": "transferFrom",
			"outputs": [],
			"stateMutability": "nonpayable",
			"type": "function"
		},
		{
			"inputs": [
				{
					"internalType": "address",
					"name": "newOwner",
					"type": "address"
				}
			],
			"name": "transferOwnership",
			"outputs": [],
			"stateMutability": "nonpayable",
			"type": "function"
		},
		{
			"inputs": [
				{
					"internalType": "address",
					"name": "",
					"type": "address"
				}
			],
			"name": "whiteList",
			"outputs": [
				{
					"internalType": "bool",
					"name": "",
					"type": "bool"
				}
			],
			"stateMutability": "view",
			"type": "function"
		},
		{
			"inputs": [
				{
					"internalType": "uint256",
					"name": "numYoloCats",
					"type": "uint256"
				}
			],
			"name": "whiteListMintYoloCats",
			"outputs": [],
			"stateMutability": "payable",
			"type": "function"
		},
		{
			"inputs": [],
			"name": "whiteListPrice",
			"outputs": [
				{
					"internalType": "uint256",
					"name": "",
					"type": "uint256"
				}
			],
			"stateMutability": "view",
			"type": "function"
		},
		{
			"inputs": [
				{
					"internalType": "address",
					"name": "to",
					"type": "address"
				}
			],
			"name": "withdraw",
			"outputs": [],
			"stateMutability": "nonpayable",
			"type": "function"
		}
	]
}